{
  "contractName": "GrowerRole",
  "abi": [
    {
      "inputs": [],
      "payable": false,
      "stateMutability": "nonpayable",
      "type": "constructor"
    },
    {
      "anonymous": false,
      "inputs": [
        {
          "indexed": true,
          "name": "account",
          "type": "address"
        }
      ],
      "name": "GrowerAdded",
      "type": "event"
    },
    {
      "anonymous": false,
      "inputs": [
        {
          "indexed": true,
          "name": "account",
          "type": "address"
        }
      ],
      "name": "GrowerRemoved",
      "type": "event"
    },
    {
      "constant": true,
      "inputs": [
        {
          "name": "account",
          "type": "address"
        }
      ],
      "name": "isGrower",
      "outputs": [
        {
          "name": "",
          "type": "bool"
        }
      ],
      "payable": false,
      "stateMutability": "view",
      "type": "function"
    },
    {
      "constant": false,
      "inputs": [
        {
          "name": "account",
          "type": "address"
        }
      ],
      "name": "addGrower",
      "outputs": [],
      "payable": false,
      "stateMutability": "nonpayable",
      "type": "function"
    },
    {
      "constant": false,
      "inputs": [],
      "name": "renounceGrower",
      "outputs": [],
      "payable": false,
      "stateMutability": "nonpayable",
      "type": "function"
    }
  ],
  "bytecode": "0x608060405234801561001057600080fd5b5061002333640100000000610028810204565b610105565b61004060008264010000000061024261007782021704565b604051600160a060020a038216907f423fd8158a2c5772d65f93f5aa158245f414b4da880b0d6d2a3361a3915ad3ae90600090a250565b600160a060020a038116151561008c57600080fd5b61009f82826401000000006100ce810204565b156100a957600080fd5b600160a060020a0316600090815260209190915260409020805460ff19166001179055565b6000600160a060020a03821615156100e557600080fd5b50600160a060020a03166000908152602091909152604090205460ff1690565b6102bc806101146000396000f3fe6080604052600436106100565763ffffffff7c01000000000000000000000000000000000000000000000000000000006000350416630c11596b811461005b578063b8b06c8614610072578063c4d10d74146100a5575b600080fd5b34801561006757600080fd5b506100706100ec565b005b34801561007e57600080fd5b506100706004803603602081101561009557600080fd5b5035600160a060020a03166100f7565b3480156100b157600080fd5b506100d8600480360360208110156100c857600080fd5b5035600160a060020a0316610117565b604080519115158252519081900360200190f35b6100f53361012f565b565b61010033610117565b151561010b57600080fd5b61011481610177565b50565b6000610129818363ffffffff6101bf16565b92915050565b61014060008263ffffffff6101f616565b604051600160a060020a038216907f686dbfa27271f8cf2fe2e5eaeaf43f15d839d20c7e162ca3aee8362b6c6a861b90600090a250565b61018860008263ffffffff61024216565b604051600160a060020a038216907f423fd8158a2c5772d65f93f5aa158245f414b4da880b0d6d2a3361a3915ad3ae90600090a250565b6000600160a060020a03821615156101d657600080fd5b50600160a060020a03166000908152602091909152604090205460ff1690565b600160a060020a038116151561020b57600080fd5b61021582826101bf565b151561022057600080fd5b600160a060020a0316600090815260209190915260409020805460ff19169055565b600160a060020a038116151561025757600080fd5b61026182826101bf565b1561026b57600080fd5b600160a060020a0316600090815260209190915260409020805460ff1916600117905556fea165627a7a72305820b067fac2f3df7addd4e45ce904851844d3a3773cc5e6101768a28ee7ecc680d60029",
  "source": "pragma solidity = 0.5.0;\n\n// Import the library 'Roles'\nimport \"./Roles.sol\";\n\n// Define a contract 'GrowerRole' to manage this role - add, remove, check\ncontract GrowerRole {\n    using Roles for Roles.Role;\n\n    // Define 2 events, one for Adding, and other for Removing\n    event GrowerAdded(address indexed account);\n    event GrowerRemoved(address indexed account);\n\n    // Define a struct 'Growers' by inheriting from 'Roles' library, struct Role\n    Roles.Role private Growers;\n\n    // In the constructor make the address that deploys this contract the 1st Grower\n    constructor() public {\n        _addGrower(msg.sender);\n    }\n\n    // Define a modifier that checks to see if msg.sender has the appropriate role\n    modifier onlyGrower() {\n        require(isGrower(msg.sender));\n        _;\n    }\n\n    // Define a function 'isGrower' to check this role\n    function isGrower(address account) public view returns (bool) {\n        return Growers.has(account);\n    }\n\n    // Define a function 'addGrower' that adds this role\n    function addGrower(address account) public onlyGrower {\n        _addGrower(account);\n    }\n\n    // Define a function 'renounceGrower' to renounce this role\n    function renounceGrower() public {\n        _removeGrower(msg.sender);\n    }\n\n    // Define an internal function '_addGrower' to add this role, called by 'addGrower'\n    function _addGrower(address account) internal {\n        Growers.add(account);\n        emit GrowerAdded(account);\n    }\n\n    // Define an internal function '_removeGrower' to remove this role, called by 'removeGrower'\n    function _removeGrower(address account) internal {\n        Growers.remove(account);\n        emit GrowerRemoved(account);\n    }\n}",
  "sourcePath": "/home/david2099/Documents/nodesall/supplyChainDApp/contracts/wineaccesscontrol/GrowerRole.sol",
  "compiler": {
    "name": "solc",
    "version": "0.5.0+commit.1d4f565a.Emscripten.clang"
  },
  "schemaVersion": "3.0.2",
  "updatedAt": "2019-02-25T19:25:23.845Z",
  "devdoc": {
    "methods": {}
  },
  "userdoc": {
    "methods": {}
  }
}