{
  "contractName": "ProducerRole",
  "abi": [
    {
      "inputs": [],
      "payable": false,
      "stateMutability": "nonpayable",
      "type": "constructor"
    },
    {
      "anonymous": false,
      "inputs": [
        {
          "indexed": true,
          "name": "account",
          "type": "address"
        }
      ],
      "name": "ProducerAdded",
      "type": "event"
    },
    {
      "anonymous": false,
      "inputs": [
        {
          "indexed": true,
          "name": "account",
          "type": "address"
        }
      ],
      "name": "ProducerRemoved",
      "type": "event"
    },
    {
      "constant": true,
      "inputs": [
        {
          "name": "account",
          "type": "address"
        }
      ],
      "name": "isProducer",
      "outputs": [
        {
          "name": "",
          "type": "bool"
        }
      ],
      "payable": false,
      "stateMutability": "view",
      "type": "function"
    },
    {
      "constant": false,
      "inputs": [
        {
          "name": "account",
          "type": "address"
        }
      ],
      "name": "addProducer",
      "outputs": [],
      "payable": false,
      "stateMutability": "nonpayable",
      "type": "function"
    },
    {
      "constant": false,
      "inputs": [],
      "name": "renounceProducer",
      "outputs": [],
      "payable": false,
      "stateMutability": "nonpayable",
      "type": "function"
    }
  ],
  "bytecode": "0x608060405234801561001057600080fd5b5061002333640100000000610028810204565b610105565b6100406000826401000000006101f661007782021704565b604051600160a060020a038216907f2977383b0207d39ef14220620b6cf3e6c9b6e78592af90baeef6614ed2fcd2c690600090a250565b600160a060020a038116151561008c57600080fd5b61009f82826401000000006100ce810204565b156100a957600080fd5b600160a060020a0316600090815260209190915260409020805460ff19166001179055565b6000600160a060020a03821615156100e557600080fd5b50600160a060020a03166000908152602091909152604090205460ff1690565b6102bc806101146000396000f3fe6080604052600436106100565763ffffffff7c0100000000000000000000000000000000000000000000000000000000600035041663ddf80166811461005b578063f552102214610090578063f9b867d8146100d7575b600080fd5b34801561006757600080fd5b5061008e6004803603602081101561007e57600080fd5b5035600160a060020a03166100ec565b005b34801561009c57600080fd5b506100c3600480360360208110156100b357600080fd5b5035600160a060020a031661010c565b604080519115158252519081900360200190f35b3480156100e357600080fd5b5061008e610124565b6100f53361010c565b151561010057600080fd5b6101098161012f565b50565b600061011e818363ffffffff61017716565b92915050565b61012d336101ae565b565b61014060008263ffffffff6101f616565b604051600160a060020a038216907f2977383b0207d39ef14220620b6cf3e6c9b6e78592af90baeef6614ed2fcd2c690600090a250565b6000600160a060020a038216151561018e57600080fd5b50600160a060020a03166000908152602091909152604090205460ff1690565b6101bf60008263ffffffff61024416565b604051600160a060020a038216907fb78e9906c5bae930ccf756a5214c9855b1782f0eb30f9566de2384f034af48f390600090a250565b600160a060020a038116151561020b57600080fd5b6102158282610177565b1561021f57600080fd5b600160a060020a0316600090815260209190915260409020805460ff19166001179055565b600160a060020a038116151561025957600080fd5b6102638282610177565b151561026e57600080fd5b600160a060020a0316600090815260209190915260409020805460ff1916905556fea165627a7a72305820bd4da63dd173c28947f871f7f7d8a57e6b4ceb5c7d00032b0ac9006ad9b492a60029",
  "source": "pragma solidity = 0.5.0;\n\n// Import the library 'Roles'\nimport \"./Roles.sol\";\n\n// Define a contract 'ProducerRole' to manage this role - add, remove, check\ncontract ProducerRole {\n\n    using Roles for Roles.Role;\n\n    // Define 2 events, one for Adding, and other for Removing\n    event ProducerAdded(address indexed account);\n    event ProducerRemoved(address indexed account);\n\n    // Define a struct 'Producers' by inheriting from 'Roles' library, struct Role\n    Roles.Role private Producers;\n\n    // In the constructor make the address that deploys this contract the 1st Producer\n    constructor() public {\n        _addProducer(msg.sender);\n    }\n\n    // Define a modifier that checks to see if msg.sender has the appropriate role\n    modifier onlyProducer() {\n        require(isProducer(msg.sender));\n        _;\n    }\n\n    // Define a function 'isProducer' to check this role\n    function isProducer(address account) public view returns (bool) {\n        return Producers.has(account);\n    }\n\n    // Define a function 'addProducer' that adds this role\n    function addProducer(address account) public onlyProducer {\n        _addProducer(account);\n    }\n\n    // Define a function 'renounceProducer' to renounce this role\n    function renounceProducer() public {\n        _removeProducer(msg.sender);\n    }\n\n    // Define an internal function '_addProducer' to add this role, called by 'addProducer'\n    function _addProducer(address account) internal {\n        Producers.add(account);\n        emit ProducerAdded(account);\n    }\n\n    // Define an internal function '_removeProducer' to remove this role, called by 'removeProducer'\n    function _removeProducer(address account) internal {\n        Producers.remove(account);\n        emit ProducerRemoved(account);\n    }\n}\n",
  "sourcePath": "/home/david2099/Documents/nodesall/supplyChainDApp/contracts/wineaccesscontrol/ProducerRole.sol",
  "compiler": {
    "name": "solc",
    "version": "0.5.0+commit.1d4f565a.Emscripten.clang"
  },
  "schemaVersion": "3.0.2",
  "updatedAt": "2019-02-26T10:53:47.756Z",
  "devdoc": {
    "methods": {}
  },
  "userdoc": {
    "methods": {}
  }
}