{
  "contractName": "SupplyChain",
  "abi": [
    {
      "constant": false,
      "inputs": [],
      "name": "renounceGrower",
      "outputs": [],
      "payable": false,
      "stateMutability": "nonpayable",
      "type": "function"
    },
    {
      "constant": false,
      "inputs": [
        {
          "name": "account",
          "type": "address"
        }
      ],
      "name": "addConsumer",
      "outputs": [],
      "payable": false,
      "stateMutability": "nonpayable",
      "type": "function"
    },
    {
      "constant": true,
      "inputs": [
        {
          "name": "account",
          "type": "address"
        }
      ],
      "name": "isRetailer",
      "outputs": [
        {
          "name": "",
          "type": "bool"
        }
      ],
      "payable": false,
      "stateMutability": "view",
      "type": "function"
    },
    {
      "constant": false,
      "inputs": [],
      "name": "renounceConsumer",
      "outputs": [],
      "payable": false,
      "stateMutability": "nonpayable",
      "type": "function"
    },
    {
      "constant": true,
      "inputs": [
        {
          "name": "account",
          "type": "address"
        }
      ],
      "name": "isWholesaler",
      "outputs": [
        {
          "name": "",
          "type": "bool"
        }
      ],
      "payable": false,
      "stateMutability": "view",
      "type": "function"
    },
    {
      "constant": true,
      "inputs": [
        {
          "name": "account",
          "type": "address"
        }
      ],
      "name": "isConsumer",
      "outputs": [
        {
          "name": "",
          "type": "bool"
        }
      ],
      "payable": false,
      "stateMutability": "view",
      "type": "function"
    },
    {
      "constant": false,
      "inputs": [
        {
          "name": "account",
          "type": "address"
        }
      ],
      "name": "addRetailer",
      "outputs": [],
      "payable": false,
      "stateMutability": "nonpayable",
      "type": "function"
    },
    {
      "constant": false,
      "inputs": [
        {
          "name": "account",
          "type": "address"
        }
      ],
      "name": "addGrower",
      "outputs": [],
      "payable": false,
      "stateMutability": "nonpayable",
      "type": "function"
    },
    {
      "constant": true,
      "inputs": [
        {
          "name": "account",
          "type": "address"
        }
      ],
      "name": "isGrower",
      "outputs": [
        {
          "name": "",
          "type": "bool"
        }
      ],
      "payable": false,
      "stateMutability": "view",
      "type": "function"
    },
    {
      "constant": false,
      "inputs": [],
      "name": "renounceRetailer",
      "outputs": [],
      "payable": false,
      "stateMutability": "nonpayable",
      "type": "function"
    },
    {
      "constant": false,
      "inputs": [
        {
          "name": "account",
          "type": "address"
        }
      ],
      "name": "addProducer",
      "outputs": [],
      "payable": false,
      "stateMutability": "nonpayable",
      "type": "function"
    },
    {
      "constant": false,
      "inputs": [
        {
          "name": "account",
          "type": "address"
        }
      ],
      "name": "addWholesaler",
      "outputs": [],
      "payable": false,
      "stateMutability": "nonpayable",
      "type": "function"
    },
    {
      "constant": true,
      "inputs": [
        {
          "name": "account",
          "type": "address"
        }
      ],
      "name": "isProducer",
      "outputs": [
        {
          "name": "",
          "type": "bool"
        }
      ],
      "payable": false,
      "stateMutability": "view",
      "type": "function"
    },
    {
      "constant": false,
      "inputs": [],
      "name": "renounceProducer",
      "outputs": [],
      "payable": false,
      "stateMutability": "nonpayable",
      "type": "function"
    },
    {
      "constant": false,
      "inputs": [],
      "name": "renounceWholesaler",
      "outputs": [],
      "payable": false,
      "stateMutability": "nonpayable",
      "type": "function"
    },
    {
      "inputs": [],
      "payable": true,
      "stateMutability": "payable",
      "type": "constructor"
    },
    {
      "anonymous": false,
      "inputs": [
        {
          "indexed": false,
          "name": "grapeId",
          "type": "uint256"
        }
      ],
      "name": "GrapeHarvested",
      "type": "event"
    },
    {
      "anonymous": false,
      "inputs": [
        {
          "indexed": false,
          "name": "grapeId",
          "type": "uint256"
        }
      ],
      "name": "GrapeForSale",
      "type": "event"
    },
    {
      "anonymous": false,
      "inputs": [
        {
          "indexed": false,
          "name": "grapeId",
          "type": "uint256"
        }
      ],
      "name": "GrapeSold",
      "type": "event"
    },
    {
      "anonymous": false,
      "inputs": [
        {
          "indexed": false,
          "name": "grapeId",
          "type": "uint256"
        }
      ],
      "name": "GrapeShipped",
      "type": "event"
    },
    {
      "anonymous": false,
      "inputs": [
        {
          "indexed": false,
          "name": "grapeId",
          "type": "uint256"
        }
      ],
      "name": "GrapeReceived",
      "type": "event"
    },
    {
      "anonymous": false,
      "inputs": [
        {
          "indexed": false,
          "name": "upc",
          "type": "uint256"
        }
      ],
      "name": "WineProduced",
      "type": "event"
    },
    {
      "anonymous": false,
      "inputs": [
        {
          "indexed": false,
          "name": "upc",
          "type": "uint256"
        }
      ],
      "name": "WinePacked",
      "type": "event"
    },
    {
      "anonymous": false,
      "inputs": [
        {
          "indexed": false,
          "name": "upc",
          "type": "uint256"
        }
      ],
      "name": "WineForSale",
      "type": "event"
    },
    {
      "anonymous": false,
      "inputs": [
        {
          "indexed": false,
          "name": "upc",
          "type": "uint256"
        }
      ],
      "name": "WineSold",
      "type": "event"
    },
    {
      "anonymous": false,
      "inputs": [
        {
          "indexed": false,
          "name": "upc",
          "type": "uint256"
        }
      ],
      "name": "WineShipped",
      "type": "event"
    },
    {
      "anonymous": false,
      "inputs": [
        {
          "indexed": false,
          "name": "upc",
          "type": "uint256"
        }
      ],
      "name": "WineReceived",
      "type": "event"
    },
    {
      "anonymous": false,
      "inputs": [
        {
          "indexed": false,
          "name": "upc",
          "type": "uint256"
        }
      ],
      "name": "WinePurchased",
      "type": "event"
    },
    {
      "anonymous": false,
      "inputs": [
        {
          "indexed": true,
          "name": "account",
          "type": "address"
        }
      ],
      "name": "ConsumerAdded",
      "type": "event"
    },
    {
      "anonymous": false,
      "inputs": [
        {
          "indexed": true,
          "name": "account",
          "type": "address"
        }
      ],
      "name": "ConsumerRemoved",
      "type": "event"
    },
    {
      "anonymous": false,
      "inputs": [
        {
          "indexed": true,
          "name": "account",
          "type": "address"
        }
      ],
      "name": "RetailerAdded",
      "type": "event"
    },
    {
      "anonymous": false,
      "inputs": [
        {
          "indexed": true,
          "name": "account",
          "type": "address"
        }
      ],
      "name": "RetailerRemoved",
      "type": "event"
    },
    {
      "anonymous": false,
      "inputs": [
        {
          "indexed": true,
          "name": "account",
          "type": "address"
        }
      ],
      "name": "WholesalerAdded",
      "type": "event"
    },
    {
      "anonymous": false,
      "inputs": [
        {
          "indexed": true,
          "name": "account",
          "type": "address"
        }
      ],
      "name": "WholesalerRemoved",
      "type": "event"
    },
    {
      "anonymous": false,
      "inputs": [
        {
          "indexed": true,
          "name": "account",
          "type": "address"
        }
      ],
      "name": "ProducerAdded",
      "type": "event"
    },
    {
      "anonymous": false,
      "inputs": [
        {
          "indexed": true,
          "name": "account",
          "type": "address"
        }
      ],
      "name": "ProducerRemoved",
      "type": "event"
    },
    {
      "anonymous": false,
      "inputs": [
        {
          "indexed": true,
          "name": "account",
          "type": "address"
        }
      ],
      "name": "GrowerAdded",
      "type": "event"
    },
    {
      "anonymous": false,
      "inputs": [
        {
          "indexed": true,
          "name": "account",
          "type": "address"
        }
      ],
      "name": "GrowerRemoved",
      "type": "event"
    },
    {
      "constant": false,
      "inputs": [],
      "name": "kill",
      "outputs": [],
      "payable": false,
      "stateMutability": "nonpayable",
      "type": "function"
    },
    {
      "constant": false,
      "inputs": [
        {
          "name": "_grapeID",
          "type": "uint256"
        },
        {
          "name": "_growerName",
          "type": "string"
        },
        {
          "name": "_growerInformation",
          "type": "string"
        },
        {
          "name": "_growerLatitude",
          "type": "string"
        },
        {
          "name": "_growerLongitude",
          "type": "string"
        },
        {
          "name": "_grapePrice",
          "type": "uint256"
        }
      ],
      "name": "harvestGrapes",
      "outputs": [],
      "payable": false,
      "stateMutability": "nonpayable",
      "type": "function"
    },
    {
      "constant": false,
      "inputs": [
        {
          "name": "_grapeID",
          "type": "uint256"
        }
      ],
      "name": "addGrapesForSale",
      "outputs": [],
      "payable": false,
      "stateMutability": "nonpayable",
      "type": "function"
    },
    {
      "constant": true,
      "inputs": [
        {
          "name": "_grapeID",
          "type": "uint256"
        }
      ],
      "name": "fetchGrape",
      "outputs": [
        {
          "name": "grapeGrapeID",
          "type": "uint256"
        },
        {
          "name": "ownerID",
          "type": "address"
        },
        {
          "name": "growerID",
          "type": "address"
        },
        {
          "name": "growerName",
          "type": "string"
        },
        {
          "name": "growerInformation",
          "type": "string"
        },
        {
          "name": "growerLatitude",
          "type": "string"
        },
        {
          "name": "growerLongitude",
          "type": "string"
        },
        {
          "name": "grapePrice",
          "type": "uint256"
        },
        {
          "name": "grapeState",
          "type": "uint8"
        }
      ],
      "payable": false,
      "stateMutability": "view",
      "type": "function"
    },
    {
      "constant": false,
      "inputs": [
        {
          "name": "_grapeID",
          "type": "uint256"
        },
        {
          "name": "_grapePrice",
          "type": "uint256"
        }
      ],
      "name": "buyGrapes",
      "outputs": [],
      "payable": true,
      "stateMutability": "payable",
      "type": "function"
    },
    {
      "constant": false,
      "inputs": [
        {
          "name": "_grapeID",
          "type": "uint256"
        }
      ],
      "name": "shipGrapes",
      "outputs": [],
      "payable": false,
      "stateMutability": "nonpayable",
      "type": "function"
    },
    {
      "constant": false,
      "inputs": [
        {
          "name": "_grapeID",
          "type": "uint256"
        }
      ],
      "name": "receiveGrapes",
      "outputs": [],
      "payable": false,
      "stateMutability": "nonpayable",
      "type": "function"
    },
    {
      "constant": false,
      "inputs": [
        {
          "name": "_producerName",
          "type": "string"
        },
        {
          "name": "_producerInformation",
          "type": "string"
        },
        {
          "name": "_producerLatitude",
          "type": "string"
        },
        {
          "name": "_producerLongitude",
          "type": "string"
        },
        {
          "name": "_productNotes",
          "type": "string"
        },
        {
          "name": "_grapesIDs",
          "type": "uint256[]"
        },
        {
          "name": "_wineState",
          "type": "uint8"
        }
      ],
      "name": "produceWine",
      "outputs": [
        {
          "name": "_upc",
          "type": "uint256"
        }
      ],
      "payable": false,
      "stateMutability": "nonpayable",
      "type": "function"
    },
    {
      "constant": true,
      "inputs": [
        {
          "name": "_upc",
          "type": "uint256"
        }
      ],
      "name": "fetchWineOne",
      "outputs": [
        {
          "name": "wineSku",
          "type": "uint256"
        },
        {
          "name": "wineUpc",
          "type": "uint256"
        },
        {
          "name": "ownerID",
          "type": "address"
        },
        {
          "name": "producerID",
          "type": "address"
        },
        {
          "name": "productPrice",
          "type": "uint256"
        },
        {
          "name": "wineState",
          "type": "uint8"
        },
        {
          "name": "wholesalerID",
          "type": "address"
        },
        {
          "name": "retailerID",
          "type": "address"
        },
        {
          "name": "consumerID",
          "type": "address"
        }
      ],
      "payable": false,
      "stateMutability": "view",
      "type": "function"
    },
    {
      "constant": true,
      "inputs": [
        {
          "name": "_upc",
          "type": "uint256"
        }
      ],
      "name": "fetchWineTwo",
      "outputs": [
        {
          "name": "wineSku",
          "type": "uint256"
        },
        {
          "name": "wineUpc",
          "type": "uint256"
        },
        {
          "name": "producerName",
          "type": "string"
        },
        {
          "name": "producerInformation",
          "type": "string"
        },
        {
          "name": "producerLatitude",
          "type": "string"
        },
        {
          "name": "producerLongitude",
          "type": "string"
        },
        {
          "name": "productID",
          "type": "uint256"
        },
        {
          "name": "productNotes",
          "type": "string"
        },
        {
          "name": "productPrice",
          "type": "uint256"
        }
      ],
      "payable": false,
      "stateMutability": "view",
      "type": "function"
    },
    {
      "constant": true,
      "inputs": [
        {
          "name": "_upc",
          "type": "uint256"
        }
      ],
      "name": "fetchWineGrapes",
      "outputs": [
        {
          "name": "wineGrapesIDs",
          "type": "uint256[]"
        }
      ],
      "payable": false,
      "stateMutability": "view",
      "type": "function"
    },
    {
      "constant": false,
      "inputs": [
        {
          "name": "_upc",
          "type": "uint256"
        }
      ],
      "name": "packWine",
      "outputs": [],
      "payable": false,
      "stateMutability": "nonpayable",
      "type": "function"
    },
    {
      "constant": false,
      "inputs": [
        {
          "name": "_upc",
          "type": "uint256"
        }
      ],
      "name": "addWineForSale",
      "outputs": [],
      "payable": false,
      "stateMutability": "nonpayable",
      "type": "function"
    },
    {
      "constant": false,
      "inputs": [
        {
          "name": "_upc",
          "type": "uint256"
        }
      ],
      "name": "buyWine",
      "outputs": [],
      "payable": false,
      "stateMutability": "nonpayable",
      "type": "function"
    },
    {
      "constant": false,
      "inputs": [
        {
          "name": "_upc",
          "type": "uint256"
        }
      ],
      "name": "shipWine",
      "outputs": [],
      "payable": false,
      "stateMutability": "nonpayable",
      "type": "function"
    },
    {
      "constant": false,
      "inputs": [
        {
          "name": "_upc",
          "type": "uint256"
        }
      ],
      "name": "receiveWine",
      "outputs": [],
      "payable": false,
      "stateMutability": "nonpayable",
      "type": "function"
    },
    {
      "constant": false,
      "inputs": [
        {
          "name": "_upc",
          "type": "uint256"
        }
      ],
      "name": "purchaseWine",
      "outputs": [],
      "payable": false,
      "stateMutability": "nonpayable",
      "type": "function"
    }
  ],
  "bytecode": "0x60806040526200001e33620000e5640100000000026401000000009004565b62000038336200014f640100000000026401000000009004565b6200005233620001b9640100000000026401000000009004565b6200006c3362000223640100000000026401000000009004565b62000086336200028d640100000000026401000000009004565b33600560006101000a81548173ffffffffffffffffffffffffffffffffffffffff021916908373ffffffffffffffffffffffffffffffffffffffff1602179055506001600781905550600160068190555060016008819055506200044f565b62000109816000620002f764010000000002620043b3179091906401000000009004565b8073ffffffffffffffffffffffffffffffffffffffff167f423fd8158a2c5772d65f93f5aa158245f414b4da880b0d6d2a3361a3915ad3ae60405160405180910390a250565b62000173816001620002f764010000000002620043b3179091906401000000009004565b8073ffffffffffffffffffffffffffffffffffffffff167f2977383b0207d39ef14220620b6cf3e6c9b6e78592af90baeef6614ed2fcd2c660405160405180910390a250565b620001dd816002620002f764010000000002620043b3179091906401000000009004565b8073ffffffffffffffffffffffffffffffffffffffff167fd8a7ad7929975a375d2b12bf49040286b5b105df0fe351f10df6d85e5b7142f760405160405180910390a250565b62000247816003620002f764010000000002620043b3179091906401000000009004565b8073ffffffffffffffffffffffffffffffffffffffff167f71ae26cad02663e3d92efd6ec56031a80d74a20c0ab4183faa8bf262261c9baa60405160405180910390a250565b620002b1816004620002f764010000000002620043b3179091906401000000009004565b8073ffffffffffffffffffffffffffffffffffffffff167f28b26e7a3d20aedbc5f8f2ebf7da671c0491723a2b78f47a097b0e46dee0714260405160405180910390a250565b600073ffffffffffffffffffffffffffffffffffffffff168173ffffffffffffffffffffffffffffffffffffffff16141515156200033457600080fd5b6200034f8282620003ba640100000000026401000000009004565b1515156200035c57600080fd5b60018260000160008373ffffffffffffffffffffffffffffffffffffffff1673ffffffffffffffffffffffffffffffffffffffff16815260200190815260200160002060006101000a81548160ff0219169083151502179055505050565b60008073ffffffffffffffffffffffffffffffffffffffff168273ffffffffffffffffffffffffffffffffffffffff1614151515620003f857600080fd5b8260000160008373ffffffffffffffffffffffffffffffffffffffff1673ffffffffffffffffffffffffffffffffffffffff16815260200190815260200160002060009054906101000a900460ff16905092915050565b6146fc806200045f6000396000f3fe608060405260043610610196576000357c0100000000000000000000000000000000000000000000000000000000900463ffffffff16806304fee1eb1461019b5780630c11596b146101d6578063112940f9146101ed5780631cd0924e1461023e57806326820e7e146106175780632c2dbba11461065257806341c0e1b51461068d57806344a0a968146106a457806353f80c0f146106df5780635da09b88146107175780635dfb81361461078057806361e6982d14610a0057806364d1ba1f14610a175780637b97bb3414610a80578063834ff73914610abb57806384f66ba714610b245780638ec4f50514610dc55780639e083bd314610e16578063b8b06c8614610f87578063c4d10d7414610fd8578063c64b7e8d14611041578063cbcf23491461107c578063d1e74044146110b7578063db0e6a2f146110f2578063ddf8016614611109578063de63bdb91461115a578063dfc90b50146111ab578063e2dde0521461123b578063f5521022146114bc578063f9b867d814611525578063fd3338351461153c578063fe19d15214611577575b600080fd5b3480156101a757600080fd5b506101d4600480360360208110156101be57600080fd5b810190808035906020019092919050505061158e565b005b3480156101e257600080fd5b506101eb611664565b005b3480156101f957600080fd5b5061023c6004803603602081101561021057600080fd5b81019080803573ffffffffffffffffffffffffffffffffffffffff16906020019092919050505061166f565b005b34801561024a57600080fd5b50610601600480360360e081101561026157600080fd5b810190808035906020019064010000000081111561027e57600080fd5b82018360208201111561029057600080fd5b803590602001918460018302840111640100000000831117156102b257600080fd5b91908080601f016020809104026020016040519081016040528093929190818152602001838380828437600081840152601f19601f8201169050808301925050505050505091929192908035906020019064010000000081111561031557600080fd5b82018360208201111561032757600080fd5b8035906020019184600183028401116401000000008311171561034957600080fd5b91908080601f016020809104026020016040519081016040528093929190818152602001838380828437600081840152601f19601f820116905080830192505050505050509192919290803590602001906401000000008111156103ac57600080fd5b8201836020820111156103be57600080fd5b803590602001918460018302840111640100000000831117156103e057600080fd5b91908080601f016020809104026020016040519081016040528093929190818152602001838380828437600081840152601f19601f8201169050808301925050505050505091929192908035906020019064010000000081111561044357600080fd5b82018360208201111561045557600080fd5b8035906020019184600183028401116401000000008311171561047757600080fd5b91908080601f016020809104026020016040519081016040528093929190818152602001838380828437600081840152601f19601f820116905080830192505050505050509192919290803590602001906401000000008111156104da57600080fd5b8201836020820111156104ec57600080fd5b8035906020019184600183028401116401000000008311171561050e57600080fd5b91908080601f016020809104026020016040519081016040528093929190818152602001838380828437600081840152601f19601f8201169050808301925050505050505091929192908035906020019064010000000081111561057157600080fd5b82018360208201111561058357600080fd5b803590602001918460208302840111640100000000831117156105a557600080fd5b919080806020026020016040519081016040528093929190818152602001838360200280828437600081840152601f19601f820116905080830192505050505050509192919290803560ff16906020019092919050505061168f565b6040518082815260200191505060405180910390f35b34801561062357600080fd5b506106506004803603602081101561063a57600080fd5b8101908080359060200190929190505050611a7c565b005b34801561065e57600080fd5b5061068b6004803603602081101561067557600080fd5b8101908080359060200190929190505050611b52565b005b34801561069957600080fd5b506106a2611c8a565b005b3480156106b057600080fd5b506106dd600480360360208110156106c757600080fd5b8101908080359060200190929190505050611d1d565b005b610715600480360360408110156106f557600080fd5b810190808035906020019092919080359060200190929190505050611e51565b005b34801561072357600080fd5b506107666004803603602081101561073a57600080fd5b81019080803573ffffffffffffffffffffffffffffffffffffffff169060200190929190505050612066565b604051808215151515815260200191505060405180910390f35b34801561078c57600080fd5b506107b9600480360360208110156107a357600080fd5b8101908080359060200190929190505050612083565b604051808a8152602001898152602001806020018060200180602001806020018881526020018060200187815260200186810386528d818151815260200191508051906020019080838360005b83811015610821578082015181840152602081019050610806565b50505050905090810190601f16801561084e5780820380516001836020036101000a031916815260200191505b5086810385528c818151815260200191508051906020019080838360005b8381101561088757808201518184015260208101905061086c565b50505050905090810190601f1680156108b45780820380516001836020036101000a031916815260200191505b5086810384528b818151815260200191508051906020019080838360005b838110156108ed5780820151818401526020810190506108d2565b50505050905090810190601f16801561091a5780820380516001836020036101000a031916815260200191505b5086810383528a818151815260200191508051906020019080838360005b83811015610953578082015181840152602081019050610938565b50505050905090810190601f1680156109805780820380516001836020036101000a031916815260200191505b50868103825288818151815260200191508051906020019080838360005b838110156109b957808201518184015260208101905061099e565b50505050905090810190601f1680156109e65780820380516001836020036101000a031916815260200191505b509e50505050505050505050505050505060405180910390f35b348015610a0c57600080fd5b50610a15612691565b005b348015610a2357600080fd5b50610a6660048036036020811015610a3a57600080fd5b81019080803573ffffffffffffffffffffffffffffffffffffffff16906020019092919050505061269c565b604051808215151515815260200191505060405180910390f35b348015610a8c57600080fd5b50610ab960048036036020811015610aa357600080fd5b81019080803590602001909291905050506126b9565b005b348015610ac757600080fd5b50610b0a60048036036020811015610ade57600080fd5b81019080803573ffffffffffffffffffffffffffffffffffffffff1690602001909291905050506127f1565b604051808215151515815260200191505060405180910390f35b348015610b3057600080fd5b50610dc3600480360360c0811015610b4757600080fd5b810190808035906020019092919080359060200190640100000000811115610b6e57600080fd5b820183602082011115610b8057600080fd5b80359060200191846001830284011164010000000083111715610ba257600080fd5b91908080601f016020809104026020016040519081016040528093929190818152602001838380828437600081840152601f19601f82011690508083019250505050505050919291929080359060200190640100000000811115610c0557600080fd5b820183602082011115610c1757600080fd5b80359060200191846001830284011164010000000083111715610c3957600080fd5b91908080601f016020809104026020016040519081016040528093929190818152602001838380828437600081840152601f19601f82011690508083019250505050505050919291929080359060200190640100000000811115610c9c57600080fd5b820183602082011115610cae57600080fd5b80359060200191846001830284011164010000000083111715610cd057600080fd5b91908080601f016020809104026020016040519081016040528093929190818152602001838380828437600081840152601f19601f82011690508083019250505050505050919291929080359060200190640100000000811115610d3357600080fd5b820183602082011115610d4557600080fd5b80359060200191846001830284011164010000000083111715610d6757600080fd5b91908080601f016020809104026020016040519081016040528093929190818152602001838380828437600081840152601f19601f8201169050808301925050505050505091929192908035906020019092919050505061280e565b005b348015610dd157600080fd5b50610e1460048036036020811015610de857600080fd5b81019080803573ffffffffffffffffffffffffffffffffffffffff169060200190929190505050612a3c565b005b348015610e2257600080fd5b50610e4f60048036036020811015610e3957600080fd5b8101908080359060200190929190505050612a5c565b604051808a81526020018981526020018873ffffffffffffffffffffffffffffffffffffffff1673ffffffffffffffffffffffffffffffffffffffff1681526020018773ffffffffffffffffffffffffffffffffffffffff1673ffffffffffffffffffffffffffffffffffffffff168152602001868152602001856006811115610ed557fe5b60ff1681526020018473ffffffffffffffffffffffffffffffffffffffff1673ffffffffffffffffffffffffffffffffffffffff1681526020018373ffffffffffffffffffffffffffffffffffffffff1673ffffffffffffffffffffffffffffffffffffffff1681526020018273ffffffffffffffffffffffffffffffffffffffff1673ffffffffffffffffffffffffffffffffffffffff168152602001995050505050505050505060405180910390f35b348015610f9357600080fd5b50610fd660048036036020811015610faa57600080fd5b81019080803573ffffffffffffffffffffffffffffffffffffffff16906020019092919050505061306b565b005b348015610fe457600080fd5b5061102760048036036020811015610ffb57600080fd5b81019080803573ffffffffffffffffffffffffffffffffffffffff16906020019092919050505061308b565b604051808215151515815260200191505060405180910390f35b34801561104d57600080fd5b5061107a6004803603602081101561106457600080fd5b81019080803590602001909291905050506130a8565b005b34801561108857600080fd5b506110b56004803603602081101561109f57600080fd5b8101908080359060200190929190505050613191565b005b3480156110c357600080fd5b506110f0600480360360208110156110da57600080fd5b81019080803590602001909291905050506132aa565b005b3480156110fe57600080fd5b50611107613380565b005b34801561111557600080fd5b506111586004803603602081101561112c57600080fd5b81019080803573ffffffffffffffffffffffffffffffffffffffff16906020019092919050505061338b565b005b34801561116657600080fd5b506111a96004803603602081101561117d57600080fd5b81019080803573ffffffffffffffffffffffffffffffffffffffff1690602001909291905050506133ab565b005b3480156111b757600080fd5b506111e4600480360360208110156111ce57600080fd5b81019080803590602001909291905050506133cb565b6040518080602001828103825283818151815260200191508051906020019060200280838360005b8381101561122757808201518184015260208101905061120c565b505050509050019250505060405180910390f35b34801561124757600080fd5b506112746004803603602081101561125e57600080fd5b810190808035906020019092919050505061398a565b604051808a81526020018973ffffffffffffffffffffffffffffffffffffffff1673ffffffffffffffffffffffffffffffffffffffff1681526020018873ffffffffffffffffffffffffffffffffffffffff1673ffffffffffffffffffffffffffffffffffffffff1681526020018060200180602001806020018060200187815260200186600481111561130457fe5b60ff16815260200185810385528b818151815260200191508051906020019080838360005b83811015611344578082015181840152602081019050611329565b50505050905090810190601f1680156113715780820380516001836020036101000a031916815260200191505b5085810384528a818151815260200191508051906020019080838360005b838110156113aa57808201518184015260208101905061138f565b50505050905090810190601f1680156113d75780820380516001836020036101000a031916815260200191505b50858103835289818151815260200191508051906020019080838360005b838110156114105780820151818401526020810190506113f5565b50505050905090810190601f16801561143d5780820380516001836020036101000a031916815260200191505b50858103825288818151815260200191508051906020019080838360005b8381101561147657808201518184015260208101905061145b565b50505050905090810190601f1680156114a35780820380516001836020036101000a031916815260200191505b509d505050505050505050505050505060405180910390f35b3480156114c857600080fd5b5061150b600480360360208110156114df57600080fd5b81019080803573ffffffffffffffffffffffffffffffffffffffff169060200190929190505050613d85565b604051808215151515815260200191505060405180910390f35b34801561153157600080fd5b5061153a613da2565b005b34801561154857600080fd5b506115756004803603602081101561155f57600080fd5b8101908080359060200190929190505050613dad565b005b34801561158357600080fd5b5061158c613ee1565b005b611597336127f1565b15156115a257600080fd5b80600560068111156115b057fe5b600a6000838152602001908152602001600020600c0160009054906101000a900460ff1660068111156115df57fe5b1415156115eb57600080fd5b6000600a60008481526020019081526020016000209050600681600c0160006101000a81548160ff0219169083600681111561162357fe5b02179055507f0513f8569d804d90dd149e0e50db1c075f672ccfbb4ccabe023ff332ffa2196c836040518082815260200191505060405180910390a1505050565b61166d33613eec565b565b611678336127f1565b151561168357600080fd5b61168c81613f46565b50565b600061169a33613d85565b15156116a557600080fd5b6000600654600754019050600654915061020060405190810160405280600754815260200160065481526020013373ffffffffffffffffffffffffffffffffffffffff1681526020013373ffffffffffffffffffffffffffffffffffffffff1681526020018a81526020018981526020018881526020018781526020018281526020018681526020016000815260200185815260200184600681111561174757fe5b8152602001600073ffffffffffffffffffffffffffffffffffffffff168152602001600073ffffffffffffffffffffffffffffffffffffffff168152602001600073ffffffffffffffffffffffffffffffffffffffff16815250600a6000848152602001908152602001600020600082015181600001556020820151816001015560408201518160020160006101000a81548173ffffffffffffffffffffffffffffffffffffffff021916908373ffffffffffffffffffffffffffffffffffffffff16021790555060608201518160030160006101000a81548173ffffffffffffffffffffffffffffffffffffffff021916908373ffffffffffffffffffffffffffffffffffffffff1602179055506080820151816004019080519060200190611872929190614463565b5060a082015181600501908051906020019061188f929190614463565b5060c08201518160060190805190602001906118ac929190614463565b5060e08201518160070190805190602001906118c9929190614463565b5061010082015181600801556101208201518160090190805190602001906118f2929190614463565b5061014082015181600a015561016082015181600b01908051906020019061191b9291906144e3565b5061018082015181600c0160006101000a81548160ff0219169083600681111561194157fe5b02179055506101a082015181600c0160016101000a81548173ffffffffffffffffffffffffffffffffffffffff021916908373ffffffffffffffffffffffffffffffffffffffff1602179055506101c082015181600d0160006101000a81548173ffffffffffffffffffffffffffffffffffffffff021916908373ffffffffffffffffffffffffffffffffffffffff1602179055506101e082015181600e0160006101000a81548173ffffffffffffffffffffffffffffffffffffffff021916908373ffffffffffffffffffffffffffffffffffffffff1602179055509050506001600654016006819055506001600754016007819055507f83e1ab300d19168d03dcd993384c2d69adc560b1021bb4c18a68bf40cde1f4d7826040518082815260200191505060405180910390a150979650505050505050565b611a8533613d85565b1515611a9057600080fd5b8060036006811115611a9e57fe5b600a6000838152602001908152602001600020600c0160009054906101000a900460ff166006811115611acd57fe5b141515611ad957600080fd5b6000600a60008481526020019081526020016000209050600481600c0160006101000a81548160ff02191690836006811115611b1157fe5b02179055507fc45d1150d9c75df34f991dd286a910d790ce07ba5af619b7f7d37139c3c2cafc836040518082815260200191505060405180910390a1505050565b611b5b33613d85565b1515611b6657600080fd5b8060016006811115611b7457fe5b600a6000838152602001908152602001600020600c0160009054906101000a900460ff166006811115611ba357fe5b141515611baf57600080fd5b6000600a600084815260200190815260200160002090508060030160009054906101000a900473ffffffffffffffffffffffffffffffffffffffff1673ffffffffffffffffffffffffffffffffffffffff163373ffffffffffffffffffffffffffffffffffffffff16141515611c2457600080fd5b600281600c0160006101000a81548160ff02191690836006811115611c4557fe5b02179055507fa97ba00ead9a7c7102566aab6635515af6ade3035fee035f2e91f51daf03423681600101546040518082815260200191505060405180910390a1505050565b600560009054906101000a900473ffffffffffffffffffffffffffffffffffffffff1673ffffffffffffffffffffffffffffffffffffffff163373ffffffffffffffffffffffffffffffffffffffff161415611d1b57600560009054906101000a900473ffffffffffffffffffffffffffffffffffffffff1673ffffffffffffffffffffffffffffffffffffffff16ff5b565b611d2633613d85565b1515611d3157600080fd5b8060036004811115611d3f57fe5b6009600083815260200190815260200160002060080160009054906101000a900460ff166004811115611d6e57fe5b141515611d7a57600080fd5b60006009600084815260200190815260200160002090508060010160009054906101000a900473ffffffffffffffffffffffffffffffffffffffff1673ffffffffffffffffffffffffffffffffffffffff163373ffffffffffffffffffffffffffffffffffffffff16141515611def57600080fd5b60048160080160006101000a81548160ff02191690836004811115611e1057fe5b02179055507fa4ebe2faef1a8e12d4ae5cc1d71ce997889854e26a0cbf25aa01f719e95276d1836040518082815260200191505060405180910390a1505050565b611e5a33613d85565b1515611e6557600080fd5b8160016004811115611e7357fe5b6009600083815260200190815260200160002060080160009054906101000a900460ff166004811115611ea257fe5b141515611eae57600080fd5b81803410151515611ebe57600080fd5b836000600960008781526020019081526020016000209050806007015485141515611ee857600080fd5b60028160080160006101000a81548160ff02191690836004811115611f0957fe5b0217905550338160010160006101000a81548173ffffffffffffffffffffffffffffffffffffffff021916908373ffffffffffffffffffffffffffffffffffffffff1602179055508060020160009054906101000a900473ffffffffffffffffffffffffffffffffffffffff1673ffffffffffffffffffffffffffffffffffffffff166108fc869081150290604051600060405180830381858888f19350505050158015611fbb573d6000803e3d6000fd5b507fdbcd9442ea51662810e0fc9e143a1cee86d83e1010e20963373aa6bf17ba439d866040518082815260200191505060405180910390a150600060096000838152602001908152602001600020600701549050600081340390503373ffffffffffffffffffffffffffffffffffffffff166108fc829081150290604051600060405180830381858888f1935050505015801561205c573d6000803e3d6000fd5b5050505050505050565b600061207c826003613fa090919063ffffffff16565b9050919050565b60008060608060608060006060600061209a614530565b600a60008c8152602001908152602001600020610200604051908101604052908160008201548152602001600182015481526020016002820160009054906101000a900473ffffffffffffffffffffffffffffffffffffffff1673ffffffffffffffffffffffffffffffffffffffff1673ffffffffffffffffffffffffffffffffffffffff1681526020016003820160009054906101000a900473ffffffffffffffffffffffffffffffffffffffff1673ffffffffffffffffffffffffffffffffffffffff1673ffffffffffffffffffffffffffffffffffffffff168152602001600482018054600181600116156101000203166002900480601f0160208091040260200160405190810160405280929190818152602001828054600181600116156101000203166002900480156122135780601f106121e857610100808354040283529160200191612213565b820191906000526020600020905b8154815290600101906020018083116121f657829003601f168201915b50505050508152602001600582018054600181600116156101000203166002900480601f0160208091040260200160405190810160405280929190818152602001828054600181600116156101000203166002900480156122b55780601f1061228a576101008083540402835291602001916122b5565b820191906000526020600020905b81548152906001019060200180831161229857829003601f168201915b50505050508152602001600682018054600181600116156101000203166002900480601f0160208091040260200160405190810160405280929190818152602001828054600181600116156101000203166002900480156123575780601f1061232c57610100808354040283529160200191612357565b820191906000526020600020905b81548152906001019060200180831161233a57829003601f168201915b50505050508152602001600782018054600181600116156101000203166002900480601f0160208091040260200160405190810160405280929190818152602001828054600181600116156101000203166002900480156123f95780601f106123ce576101008083540402835291602001916123f9565b820191906000526020600020905b8154815290600101906020018083116123dc57829003601f168201915b5050505050815260200160088201548152602001600982018054600181600116156101000203166002900480601f0160208091040260200160405190810160405280929190818152602001828054600181600116156101000203166002900480156124a55780601f1061247a576101008083540402835291602001916124a5565b820191906000526020600020905b81548152906001019060200180831161248857829003601f168201915b50505050508152602001600a8201548152602001600b820180548060200260200160405190810160405280929190818152602001828054801561250757602002820191906000526020600020905b8154815260200190600101908083116124f3575b50505050508152602001600c820160009054906101000a900460ff16600681111561252e57fe5b600681111561253957fe5b8152602001600c820160019054906101000a900473ffffffffffffffffffffffffffffffffffffffff1673ffffffffffffffffffffffffffffffffffffffff1673ffffffffffffffffffffffffffffffffffffffff168152602001600d820160009054906101000a900473ffffffffffffffffffffffffffffffffffffffff1673ffffffffffffffffffffffffffffffffffffffff1673ffffffffffffffffffffffffffffffffffffffff168152602001600e820160009054906101000a900473ffffffffffffffffffffffffffffffffffffffff1673ffffffffffffffffffffffffffffffffffffffff1673ffffffffffffffffffffffffffffffffffffffff168152505090508060000151995080602001519850806080015197508060a0015196508060c0015195508060e001519450806101000151935080610120015192508061014001519150509193959799909294969850565b61269a33614034565b565b60006126b2826002613fa090919063ffffffff16565b9050919050565b6126c233613d85565b15156126cd57600080fd5b80600060068111156126db57fe5b600a6000838152602001908152602001600020600c0160009054906101000a900460ff16600681111561270a57fe5b14151561271657600080fd5b6000600a600084815260200190815260200160002090508060030160009054906101000a900473ffffffffffffffffffffffffffffffffffffffff1673ffffffffffffffffffffffffffffffffffffffff163373ffffffffffffffffffffffffffffffffffffffff1614151561278b57600080fd5b600181600c0160006101000a81548160ff021916908360068111156127ac57fe5b02179055507f0869ab0322800b441c2ace7097217dfee49f6c8129437dd36e5e4146e0e6992881600101546040518082815260200191505060405180910390a1505050565b6000612807826004613fa090919063ffffffff16565b9050919050565b6128173361308b565b151561282257600080fd5b610120604051908101604052808781526020013373ffffffffffffffffffffffffffffffffffffffff1681526020013373ffffffffffffffffffffffffffffffffffffffff1681526020018681526020018581526020018481526020018381526020018281526020016000600481111561289857fe5b815250600960008881526020019081526020016000206000820151816000015560208201518160010160006101000a81548173ffffffffffffffffffffffffffffffffffffffff021916908373ffffffffffffffffffffffffffffffffffffffff16021790555060408201518160020160006101000a81548173ffffffffffffffffffffffffffffffffffffffff021916908373ffffffffffffffffffffffffffffffffffffffff1602179055506060820151816003019080519060200190612962929190614463565b50608082015181600401908051906020019061297f929190614463565b5060a082015181600501908051906020019061299c929190614463565b5060c08201518160060190805190602001906129b9929190614463565b5060e082015181600701556101008201518160080160006101000a81548160ff021916908360048111156129e957fe5b02179055509050506001600854016008819055507fe98cb48b7c65f60e2a8d0b20a8dbaac7cc3c2c897044fe92d5f5d3f97382ca75866040518082815260200191505060405180910390a1505050505050565b612a4533612066565b1515612a5057600080fd5b612a598161408e565b50565b6000806000806000806000806000612a72614530565b600a60008c8152602001908152602001600020610200604051908101604052908160008201548152602001600182015481526020016002820160009054906101000a900473ffffffffffffffffffffffffffffffffffffffff1673ffffffffffffffffffffffffffffffffffffffff1673ffffffffffffffffffffffffffffffffffffffff1681526020016003820160009054906101000a900473ffffffffffffffffffffffffffffffffffffffff1673ffffffffffffffffffffffffffffffffffffffff1673ffffffffffffffffffffffffffffffffffffffff168152602001600482018054600181600116156101000203166002900480601f016020809104026020016040519081016040528092919081815260200182805460018160011615610100020316600290048015612beb5780601f10612bc057610100808354040283529160200191612beb565b820191906000526020600020905b815481529060010190602001808311612bce57829003601f168201915b50505050508152602001600582018054600181600116156101000203166002900480601f016020809104026020016040519081016040528092919081815260200182805460018160011615610100020316600290048015612c8d5780601f10612c6257610100808354040283529160200191612c8d565b820191906000526020600020905b815481529060010190602001808311612c7057829003601f168201915b50505050508152602001600682018054600181600116156101000203166002900480601f016020809104026020016040519081016040528092919081815260200182805460018160011615610100020316600290048015612d2f5780601f10612d0457610100808354040283529160200191612d2f565b820191906000526020600020905b815481529060010190602001808311612d1257829003601f168201915b50505050508152602001600782018054600181600116156101000203166002900480601f016020809104026020016040519081016040528092919081815260200182805460018160011615610100020316600290048015612dd15780601f10612da657610100808354040283529160200191612dd1565b820191906000526020600020905b815481529060010190602001808311612db457829003601f168201915b5050505050815260200160088201548152602001600982018054600181600116156101000203166002900480601f016020809104026020016040519081016040528092919081815260200182805460018160011615610100020316600290048015612e7d5780601f10612e5257610100808354040283529160200191612e7d565b820191906000526020600020905b815481529060010190602001808311612e6057829003601f168201915b50505050508152602001600a8201548152602001600b8201805480602002602001604051908101604052809291908181526020018280548015612edf57602002820191906000526020600020905b815481526020019060010190808311612ecb575b50505050508152602001600c820160009054906101000a900460ff166006811115612f0657fe5b6006811115612f1157fe5b8152602001600c820160019054906101000a900473ffffffffffffffffffffffffffffffffffffffff1673ffffffffffffffffffffffffffffffffffffffff1673ffffffffffffffffffffffffffffffffffffffff168152602001600d820160009054906101000a900473ffffffffffffffffffffffffffffffffffffffff1673ffffffffffffffffffffffffffffffffffffffff1673ffffffffffffffffffffffffffffffffffffffff168152602001600e820160009054906101000a900473ffffffffffffffffffffffffffffffffffffffff1673ffffffffffffffffffffffffffffffffffffffff1673ffffffffffffffffffffffffffffffffffffffff168152505090508060000151995080602001519850806040015197508060600151965080610140015195508061018001519450806101a001519350806101c001519250806101e001519150509193959799909294969850565b6130743361308b565b151561307f57600080fd5b613088816140e8565b50565b60006130a1826000613fa090919063ffffffff16565b9050919050565b6130b13361308b565b15156130bc57600080fd5b60006009600083815260200190815260200160002090508060010160009054906101000a900473ffffffffffffffffffffffffffffffffffffffff1673ffffffffffffffffffffffffffffffffffffffff163373ffffffffffffffffffffffffffffffffffffffff1614151561313157600080fd5b60018160080160006101000a81548160ff0219169083600481111561315257fe5b02179055507e3260cac5be8a3ee788081a5ebb9ddedc21351f222a74d9553c1482bb0c8d34826040518082815260200191505060405180910390a15050565b61319a33612066565b15156131a557600080fd5b80600260068111156131b357fe5b600a6000838152602001908152602001600020600c0160009054906101000a900460ff1660068111156131e257fe5b1415156131ee57600080fd5b6000600a600084815260200190815260200160002090503381600d0160006101000a81548173ffffffffffffffffffffffffffffffffffffffff021916908373ffffffffffffffffffffffffffffffffffffffff160217905550600381600c0160006101000a81548160ff0219169083600681111561326957fe5b02179055507fc4e50a10ecdbba8d26cab330220ec6f89afc954c92251c4e529542119b85c084836040518082815260200191505060405180910390a1505050565b6132b333612066565b15156132be57600080fd5b80600460068111156132cc57fe5b600a6000838152602001908152602001600020600c0160009054906101000a900460ff1660068111156132fb57fe5b14151561330757600080fd5b6000600a60008481526020019081526020016000209050600581600c0160006101000a81548160ff0219169083600681111561333f57fe5b02179055507f14b6cc590b47a9656821bdb6db91b9e1537ca4d36ff65f265a661c8e13bfd098836040518082815260200191505060405180910390a1505050565b61338933614142565b565b61339433613d85565b151561339f57600080fd5b6133a88161419c565b50565b6133b43361269c565b15156133bf57600080fd5b6133c8816141f6565b50565b60606133d5614530565b600a6000848152602001908152602001600020610200604051908101604052908160008201548152602001600182015481526020016002820160009054906101000a900473ffffffffffffffffffffffffffffffffffffffff1673ffffffffffffffffffffffffffffffffffffffff1673ffffffffffffffffffffffffffffffffffffffff1681526020016003820160009054906101000a900473ffffffffffffffffffffffffffffffffffffffff1673ffffffffffffffffffffffffffffffffffffffff1673ffffffffffffffffffffffffffffffffffffffff168152602001600482018054600181600116156101000203166002900480601f01602080910402602001604051908101604052809291908181526020018280546001816001161561010002031660029004801561354e5780601f106135235761010080835404028352916020019161354e565b820191906000526020600020905b81548152906001019060200180831161353157829003601f168201915b50505050508152602001600582018054600181600116156101000203166002900480601f0160208091040260200160405190810160405280929190818152602001828054600181600116156101000203166002900480156135f05780601f106135c5576101008083540402835291602001916135f0565b820191906000526020600020905b8154815290600101906020018083116135d357829003601f168201915b50505050508152602001600682018054600181600116156101000203166002900480601f0160208091040260200160405190810160405280929190818152602001828054600181600116156101000203166002900480156136925780601f1061366757610100808354040283529160200191613692565b820191906000526020600020905b81548152906001019060200180831161367557829003601f168201915b50505050508152602001600782018054600181600116156101000203166002900480601f0160208091040260200160405190810160405280929190818152602001828054600181600116156101000203166002900480156137345780601f1061370957610100808354040283529160200191613734565b820191906000526020600020905b81548152906001019060200180831161371757829003601f168201915b5050505050815260200160088201548152602001600982018054600181600116156101000203166002900480601f0160208091040260200160405190810160405280929190818152602001828054600181600116156101000203166002900480156137e05780601f106137b5576101008083540402835291602001916137e0565b820191906000526020600020905b8154815290600101906020018083116137c357829003601f168201915b50505050508152602001600a8201548152602001600b820180548060200260200160405190810160405280929190818152602001828054801561384257602002820191906000526020600020905b81548152602001906001019080831161382e575b50505050508152602001600c820160009054906101000a900460ff16600681111561386957fe5b600681111561387457fe5b8152602001600c820160019054906101000a900473ffffffffffffffffffffffffffffffffffffffff1673ffffffffffffffffffffffffffffffffffffffff1673ffffffffffffffffffffffffffffffffffffffff168152602001600d820160009054906101000a900473ffffffffffffffffffffffffffffffffffffffff1673ffffffffffffffffffffffffffffffffffffffff1673ffffffffffffffffffffffffffffffffffffffff168152602001600e820160009054906101000a900473ffffffffffffffffffffffffffffffffffffffff1673ffffffffffffffffffffffffffffffffffffffff1673ffffffffffffffffffffffffffffffffffffffff16815250509050806101600151915050919050565b60008060006060806060806000806139a0614627565b600960008c81526020019081526020016000206101206040519081016040529081600082015481526020016001820160009054906101000a900473ffffffffffffffffffffffffffffffffffffffff1673ffffffffffffffffffffffffffffffffffffffff1673ffffffffffffffffffffffffffffffffffffffff1681526020016002820160009054906101000a900473ffffffffffffffffffffffffffffffffffffffff1673ffffffffffffffffffffffffffffffffffffffff1673ffffffffffffffffffffffffffffffffffffffff168152602001600382018054600181600116156101000203166002900480601f016020809104026020016040519081016040528092919081815260200182805460018160011615610100020316600290048015613b0f5780601f10613ae457610100808354040283529160200191613b0f565b820191906000526020600020905b815481529060010190602001808311613af257829003601f168201915b50505050508152602001600482018054600181600116156101000203166002900480601f016020809104026020016040519081016040528092919081815260200182805460018160011615610100020316600290048015613bb15780601f10613b8657610100808354040283529160200191613bb1565b820191906000526020600020905b815481529060010190602001808311613b9457829003601f168201915b50505050508152602001600582018054600181600116156101000203166002900480601f016020809104026020016040519081016040528092919081815260200182805460018160011615610100020316600290048015613c535780601f10613c2857610100808354040283529160200191613c53565b820191906000526020600020905b815481529060010190602001808311613c3657829003601f168201915b50505050508152602001600682018054600181600116156101000203166002900480601f016020809104026020016040519081016040528092919081815260200182805460018160011615610100020316600290048015613cf55780601f10613cca57610100808354040283529160200191613cf5565b820191906000526020600020905b815481529060010190602001808311613cd857829003601f168201915b50505050508152602001600782015481526020016008820160009054906101000a900460ff166004811115613d2657fe5b6004811115613d3157fe5b81525050905080600001519950806020015198508060400151975080606001519650806080015195508060a0015194508060c0015193508060e0015192508061010001519150509193959799909294969850565b6000613d9b826001613fa090919063ffffffff16565b9050919050565b613dab33614250565b565b613db63361308b565b1515613dc157600080fd5b8060026004811115613dcf57fe5b6009600083815260200190815260200160002060080160009054906101000a900460ff166004811115613dfe57fe5b141515613e0a57600080fd5b60006009600084815260200190815260200160002090508060020160009054906101000a900473ffffffffffffffffffffffffffffffffffffffff1673ffffffffffffffffffffffffffffffffffffffff163373ffffffffffffffffffffffffffffffffffffffff16141515613e7f57600080fd5b60038160080160006101000a81548160ff02191690836004811115613ea057fe5b02179055507fb4f140a99563fe049d6206aa111e9592995d91e14529b45430d6c3b0dcf49975836040518082815260200191505060405180910390a1505050565b613eea336142aa565b565b613f0081600061430490919063ffffffff16565b8073ffffffffffffffffffffffffffffffffffffffff167f686dbfa27271f8cf2fe2e5eaeaf43f15d839d20c7e162ca3aee8362b6c6a861b60405160405180910390a250565b613f5a8160046143b390919063ffffffff16565b8073ffffffffffffffffffffffffffffffffffffffff167f28b26e7a3d20aedbc5f8f2ebf7da671c0491723a2b78f47a097b0e46dee0714260405160405180910390a250565b60008073ffffffffffffffffffffffffffffffffffffffff168273ffffffffffffffffffffffffffffffffffffffff1614151515613fdd57600080fd5b8260000160008373ffffffffffffffffffffffffffffffffffffffff1673ffffffffffffffffffffffffffffffffffffffff16815260200190815260200160002060009054906101000a900460ff16905092915050565b61404881600461430490919063ffffffff16565b8073ffffffffffffffffffffffffffffffffffffffff167fe3f5ed5f263f1f01764a96edfc7d025f511ec5f7d180e8816908b78bcf74f09860405160405180910390a250565b6140a28160036143b390919063ffffffff16565b8073ffffffffffffffffffffffffffffffffffffffff167f71ae26cad02663e3d92efd6ec56031a80d74a20c0ab4183faa8bf262261c9baa60405160405180910390a250565b6140fc8160006143b390919063ffffffff16565b8073ffffffffffffffffffffffffffffffffffffffff167f423fd8158a2c5772d65f93f5aa158245f414b4da880b0d6d2a3361a3915ad3ae60405160405180910390a250565b61415681600361430490919063ffffffff16565b8073ffffffffffffffffffffffffffffffffffffffff167fdb7176e79cffef81cb01767dd0447a0b24bb72ca9778d4b245581086b2a7e6db60405160405180910390a250565b6141b08160016143b390919063ffffffff16565b8073ffffffffffffffffffffffffffffffffffffffff167f2977383b0207d39ef14220620b6cf3e6c9b6e78592af90baeef6614ed2fcd2c660405160405180910390a250565b61420a8160026143b390919063ffffffff16565b8073ffffffffffffffffffffffffffffffffffffffff167fd8a7ad7929975a375d2b12bf49040286b5b105df0fe351f10df6d85e5b7142f760405160405180910390a250565b61426481600161430490919063ffffffff16565b8073ffffffffffffffffffffffffffffffffffffffff167fb78e9906c5bae930ccf756a5214c9855b1782f0eb30f9566de2384f034af48f360405160405180910390a250565b6142be81600261430490919063ffffffff16565b8073ffffffffffffffffffffffffffffffffffffffff167f7f865f710a7604537eb2bc0334f082fa642d210a705398937f53663384485b2860405160405180910390a250565b600073ffffffffffffffffffffffffffffffffffffffff168173ffffffffffffffffffffffffffffffffffffffff161415151561434057600080fd5b61434a8282613fa0565b151561435557600080fd5b60008260000160008373ffffffffffffffffffffffffffffffffffffffff1673ffffffffffffffffffffffffffffffffffffffff16815260200190815260200160002060006101000a81548160ff0219169083151502179055505050565b600073ffffffffffffffffffffffffffffffffffffffff168173ffffffffffffffffffffffffffffffffffffffff16141515156143ef57600080fd5b6143f98282613fa0565b15151561440557600080fd5b60018260000160008373ffffffffffffffffffffffffffffffffffffffff1673ffffffffffffffffffffffffffffffffffffffff16815260200190815260200160002060006101000a81548160ff0219169083151502179055505050565b828054600181600116156101000203166002900490600052602060002090601f016020900481019282601f106144a457805160ff19168380011785556144d2565b828001600101855582156144d2579182015b828111156144d15782518255916020019190600101906144b6565b5b5090506144df91906146ab565b5090565b82805482825590600052602060002090810192821561451f579160200282015b8281111561451e578251825591602001919060010190614503565b5b50905061452c91906146ab565b5090565b610200604051908101604052806000815260200160008152602001600073ffffffffffffffffffffffffffffffffffffffff168152602001600073ffffffffffffffffffffffffffffffffffffffff1681526020016060815260200160608152602001606081526020016060815260200160008152602001606081526020016000815260200160608152602001600060068111156145ca57fe5b8152602001600073ffffffffffffffffffffffffffffffffffffffff168152602001600073ffffffffffffffffffffffffffffffffffffffff168152602001600073ffffffffffffffffffffffffffffffffffffffff1681525090565b6101206040519081016040528060008152602001600073ffffffffffffffffffffffffffffffffffffffff168152602001600073ffffffffffffffffffffffffffffffffffffffff1681526020016060815260200160608152602001606081526020016060815260200160008152602001600060048111156146a557fe5b81525090565b6146cd91905b808211156146c95760008160009055506001016146b1565b5090565b9056fea165627a7a7230582081eb458512856320b5d6a4a4cbf9507839b38765bc2a3989575672241f13bbb60029",
  "source": "pragma solidity = 0.5.0;\nimport \"../wineaccesscontrol/ConsumerRole.sol\";\nimport \"../wineaccesscontrol/GrowerRole.sol\";\nimport \"../wineaccesscontrol/ProducerRole.sol\";\nimport \"../wineaccesscontrol/RetailerRole.sol\";\nimport \"../wineaccesscontrol/WholesalerRole.sol\";\nimport \"../winecore/Ownable.sol\";\n\n\ncontract SupplyChain is\n    GrowerRole,\n    ProducerRole,\n    WholeSalerRole,\n    RetailerRole,\n    ConsumerRole\n{\n\n    // Define 'owner'\n    address payable owner;\n\n    // Define a variable called 'upc' for Universal Product Code (UPC)\n    uint  upc;\n\n    // Define a variable called 'sku' for Stock Keeping Unit (SKU)\n    uint  sku;\n\n    // Define a variable called 'grapeID' for indentifying grapes.\n    // The Wine Supply Chain Traceability GS1 Application Guideline\n    // does not recommend the use of GTIN (Global Trade Item Number)\n    // for the grapes as it is not yet a branded product\n    // but we still need a way to uniquely identify the grapes.\n    uint  grapeID;\n\n    // Define a public mapping 'grapes' that maps the grapeID to a wine.\n    mapping (uint => Grape) grapes;\n\n    // Define a public mapping 'items' that maps the UPC to a wine.\n    mapping (uint => Wine) items;\n\n    // Define a public mapping 'itemsHistory' that maps the UPC to an array of TxHash,\n    // that track its journey through the supply chain -- to be sent from DApp.\n    mapping (uint => string[]) itemsHistory;\n\n    // Define enum 'GrapeState' with the following values:\n    enum GrapeState\n    {\n        Harvested,  // 0\n        ForSale,    // 1\n        Sold,       // 2\n        Shipped,    // 3\n        Received    // 4\n    }\n\n    // Define enum 'WineState' with the following values:\n    enum WineState\n    {\n        Produced,  // 0\n        Packed,    // 1\n        ForSale,   // 2\n        Sold,      // 3\n        Shipped,   // 4\n        Received,  // 5\n        Purchased   // 6\n    }\n\n    //TODO: set default states for grapes and items\n\n    // Define a struct for grapes\n    struct Grape {\n        uint grapeId; // unique ID of grapes\n        address payable ownerID;  // Metamask-Ethereum address of the current owner as the product moves through different stages\n        address payable growerID; // Metamask-Ethereum address of the Grower\n        string  growerName; // Grower Name\n        string  growerInformation;  // Grower Information\n        string  growerLatitude; // Grower plot Latitude\n        string  growerLongitude;  // Grower plot Longitude\n        uint    grapePrice; // Product Price\n        GrapeState   grapeState;  // Grape State as represented in the enum above\n    }\n\n    // Define a struct 'Item' with the following fields:\n    struct Wine {\n        uint    sku;  // Stock Keeping Unit (SKU)\n        uint    upc; // Universal Product Code (UPC), generated by the Producer, goes on the package, can be verified by the Consumer\n        address payable ownerID;  // Metamask-Ethereum address of the current owner as the product moves through different stages\n        address payable producerID; // Metamask-Ethereum address of the Producer\n        string  producerName; // Producer Name\n        string  producerInformation;  // Producer Information\n        string  producerLatitude; // Producer Latitude\n        string  producerLongitude;  // Producer Longitude\n        uint    productID;  // Product ID potentially a combination of upc + sku\n        string  productNotes; // Product Notes\n        uint    productPrice; // Product Price\n        uint[] grapesIDs; // Array of grapes IDs\n        WineState   wineState;  // Product State as represented in the enum above\n        address payable wholesalerID;  // Metamask-Ethereum address of the Wholesaler\n        address payable retailerID; // Metamask-Ethereum address of the Retailer\n        address payable consumerID; // Metamask-Ethereum address of the Consumer\n    }\n\n    // Define events for grapes\n    event GrapeHarvested(uint grapeId);\n    event GrapeForSale(uint grapeId);\n    event GrapeSold(uint grapeId);\n    event GrapeShipped(uint grapeId);\n    event GrapeReceived(uint grapeId);\n    // Define events for wine\n    event WineProduced(uint upc);\n    event WinePacked(uint upc);\n    event WineForSale(uint upc);\n    event WineSold(uint upc);\n    event WineShipped(uint upc);\n    event WineReceived(uint upc);\n    event WinePurchased(uint upc);\n\n    // Define a modifer that verifies the Caller\n    modifier verifyCaller (address _address) {\n        require(msg.sender == _address);\n        _;\n    }\n\n    // Define a modifier that checks if the paid amount is sufficient to cover the price\n    modifier paidEnough(uint _price) {\n        require(msg.value >= _price);\n        _;\n    }\n\n    modifier checkGrapeValue(uint _grapeID) {\n        _;\n        uint _price = grapes[_grapeID].grapePrice;\n        uint amountToReturn = msg.value - _price;\n        msg.sender.transfer(amountToReturn);\n    }\n\n\n    // Define a modifier that checks the price and refunds the remaining balance\n    modifier checkValue(uint _upc) {\n        _;\n        uint _price = items[_upc].productPrice;\n        uint amountToReturn = msg.value - _price;\n        items[_upc].ownerID.transfer(amountToReturn); // TODO: check this value\n    }\n\n    // Define a modifier that checks if an grapes.grapeState of a grapeID is Harvested\n    modifier grapeHarvested(uint _grapeId) {\n        require(grapes[_grapeId].grapeState == GrapeState.Harvested);\n        _;\n    }\n\n    // Define a modifier that checks if an item.grapeState of a upc is ForSale\n    modifier grapeForSale(uint _grapeId) {\n        require(grapes[_grapeId].grapeState == GrapeState.ForSale);\n        _;\n    }\n\n    // Define a modifier that checks if an item.grapeState of a upc is Sold\n    modifier grapeSold(uint _grapeId) {\n        require(grapes[_grapeId].grapeState == GrapeState.Sold);\n        _;\n    }\n\n    // Define a modifier that checks if an item.grapeState of a upc is Shipped\n    modifier grapeShipped(uint _grapeId) {\n        require(grapes[_grapeId].grapeState == GrapeState.Shipped);\n        _;\n    }\n\n    // Define a modifier that checks if an item.grapeState of a upc is Received\n    modifier grapeReceived(uint _grapeId) {\n        require(grapes[_grapeId].grapeState == GrapeState.Received);\n        _;\n    }\n\n    // Define a modifier that checks if an item.wineState of a upc is Produced\n    modifier wineProduced(uint _upc) {\n        require(items[_upc].wineState == WineState.Produced);\n        _;\n    }\n\n    // Define a modifier that checks if an item.wineState of a upc is Packed\n    modifier winePacked(uint _upc) {\n        require(items[_upc].wineState == WineState.Packed);\n        _;\n    }\n\n    // Define a modifier that checks if an item.wineState of a upc is ForSale\n    modifier wineForSale(uint _upc) {\n        require(items[_upc].wineState == WineState.ForSale);\n        _;\n    }\n\n    // Define a modifier that checks if an item.wineState of a upc is Sold\n    modifier wineSold(uint _upc) {\n        require(items[_upc].wineState == WineState.Sold);\n        _;\n    }\n\n    // Define a modifier that checks if an item.wineState of a upc is Shipped\n    modifier wineShipped(uint _upc) {\n        require(items[_upc].wineState == WineState.Shipped);\n        _;\n    }\n\n    // Define a modifier that checks if an item.wineState of a upc is Shipped\n    modifier wineReceived(uint _upc) {\n        require(items[_upc].wineState == WineState.Received);\n        _;\n    }\n\n    // Define a modifier that checks if an item.wineState of a upc is Purchased\n    modifier winePurchased(uint _upc) {\n        require(items[_upc].wineState == WineState.Purchased);\n        _;\n    }\n\n    // In the constructor set 'owner' to the address that instantiated the contract\n    // and set 'sku' to 1\n    // and set 'upc' to 1\n    constructor() public payable {\n        owner = msg.sender;\n        sku = 1;\n        upc = 1;\n        grapeID = 1;\n    }\n\n    // Define a function 'kill' if required\n    function kill() public {\n        if (msg.sender == owner) {\n            selfdestruct(owner);\n        }\n    }\n\n    // Define a function 'harvestGrape' that allows a grower to mark grapes 'Harvested'\n    function harvestGrapes(\n        uint _grapeID,\n        string memory _growerName,\n        string memory _growerInformation,\n        string memory _growerLatitude,\n        string memory _growerLongitude,\n        uint  _grapePrice)\n    public\n    onlyGrower\n    {\n        // Add the new grapes\n        grapes[_grapeID] = Grape(\n            _grapeID,\n            msg.sender,\n            msg.sender,\n            _growerName,\n            _growerInformation,\n            _growerLatitude,\n            _growerLongitude,\n            _grapePrice,\n            GrapeState.Harvested\n        );\n        // Increment grapeID\n        grapeID = grapeID + 1;\n        // Emit the appropriate event\n        emit GrapeHarvested(_grapeID);\n    }\n\n    // Let a grower that owns havested grapes to put them for sale\n    function addGrapesForSale(uint _grapeID)\n    public\n    onlyGrower\n    {\n        Grape storage grape = grapes[_grapeID];\n        require(msg.sender == grape.ownerID);\n        grape.grapeState = GrapeState.ForSale;\n        emit GrapeForSale(_grapeID);\n    }\n\n    function fetchGrape(uint _grapeID) public view returns (\n        uint grapeGrapeID,\n        address payable ownerID,\n        address payable growerID,\n        string memory growerName,\n        string memory growerInformation,\n        string memory growerLatitude,\n        string memory growerLongitude,\n        uint grapePrice,\n        GrapeState grapeState\n    ) {\n        Grape memory grape = grapes[_grapeID];\n        grapeGrapeID = grape.grapeId;\n        ownerID = grape.ownerID;\n        growerID = grape.growerID;\n        growerName = grape.growerName;\n        growerInformation = grape.growerInformation;\n        growerLatitude = grape.growerLatitude;\n        growerLongitude = grape.growerLongitude;\n        grapePrice = grape.grapePrice;\n        grapeState = grape.grapeState;\n    }\n\n    function buyGrapes(uint _grapeID, uint _grapePrice)\n    public\n    payable\n    onlyProducer\n    grapeForSale(_grapeID)\n    paidEnough(_grapePrice)\n    checkGrapeValue(_grapeID)\n    {\n        Grape storage grape = grapes[_grapeID];\n        require(_grapePrice == grape.grapePrice);\n        grape.grapeState = GrapeState.Sold;\n        grape.ownerID = msg.sender;\n        grape.growerID.transfer(_grapePrice);\n        emit GrapeSold(_grapeID);\n    }\n\n    function shipGrapes(uint _grapeID)\n    public\n    onlyGrower\n    grapeSold(_grapeID)\n    {\n        Grape storage grape = grapes[_grapeID];\n        require(msg.sender == grape.growerID);\n        grape.grapeState = GrapeState.Shipped;\n        emit GrapeShipped(_grapeID);\n    }\n\n    function receiveGrapes(uint _grapeID)\n    public\n    onlyProducer\n    grapeShipped(_grapeID)\n    {\n        Grape storage grape = grapes[_grapeID];\n        require(msg.sender == grape.ownerID);\n        grape.grapeState = GrapeState.Received;\n        emit GrapeReceived(_grapeID);\n    }\n\n    function produceWine(\n        string memory _producerName,\n        string memory _producerInformation,\n        string memory _producerLatitude,\n        string memory _producerLongitude,\n        string memory _productNotes,\n        uint[] memory _grapesIDs,\n        WineState _wineState\n    )\n    public\n    onlyProducer\n    returns (uint _upc)\n    {\n        uint _productID = sku + upc; // TODO: rework this part.\n        _upc = upc;\n        items[_upc] = Wine(\n            sku,\n            upc,\n            msg.sender,\n            msg.sender,\n            _producerName,\n            _producerInformation,\n            _producerLatitude,\n            _producerLongitude,\n            _productID,\n            _productNotes,\n            0,\n            _grapesIDs,\n            _wineState,\n            address(0),\n            address(0),\n            address(0)\n        );\n        upc = upc + 1;\n        sku = sku + 1;\n        emit WineProduced(_upc);\n    }\n\n    // fetchWine - 3 functions - stack too deep compilation error\n    function fetchWineOne(uint _upc) public view returns (\n        uint wineSku,\n        uint wineUpc,\n        address payable ownerID,\n        address payable producerID,\n        uint productPrice,\n        WineState wineState,\n        address wholesalerID,\n        address retailerID,\n        address consumerID\n    ) {\n        Wine memory wine = items[_upc];\n        wineSku = wine.sku;\n        wineUpc = wine.upc;\n        ownerID = wine.ownerID;\n        producerID = wine.producerID;\n        productPrice = wine.productPrice;\n        wineState = wine.wineState;\n        wholesalerID = wine.wholesalerID;\n        retailerID = wine.retailerID;\n        consumerID = wine.consumerID;\n    }\n\n    // fetchWineTwo\n    function fetchWineTwo(uint _upc) public view returns (\n        uint wineSku,\n        uint wineUpc,\n        string memory producerName,\n        string memory producerInformation,\n        string memory producerLatitude,\n        string memory producerLongitude,\n        uint productID,\n        string memory productNotes,\n        uint productPrice\n    ) {\n        Wine memory wine = items[_upc];\n        wineSku = wine.sku;\n        wineUpc = wine.upc;\n        producerName = wine.producerName;\n        producerInformation = wine.producerInformation;\n        producerLatitude = wine.producerLatitude;\n        producerLongitude = wine.producerLongitude;\n        productID = wine.productID;\n        productNotes = wine.productNotes;\n        productPrice = wine.productPrice;\n    }\n\n    function fetchWineGrapes(uint _upc) public view returns (uint[] memory wineGrapesIDs) {\n        Wine memory wine = items[_upc];\n        wineGrapesIDs = wine.grapesIDs;\n    }\n\n    function packWine(uint _upc)\n    public\n    onlyProducer\n    wineProduced(_upc)\n    {\n        Wine storage wine = items[_upc];\n        require(msg.sender == wine.producerID);\n        wine.wineState = WineState.Packed;\n        emit WinePacked(wine.upc);\n    }\n\n\n    function addWineForSale(uint _upc)\n    public\n    onlyProducer\n    winePacked(_upc)\n    {\n        Wine storage wine = items[_upc];\n        require(msg.sender == wine.producerID);\n        wine.wineState = WineState.ForSale;\n        emit WineForSale(wine.upc);\n    }\n\n\n    function buyWine(uint _upc)\n    public\n    onlyRetailer\n    wineForSale(_upc)\n    {\n        Wine storage wine = items[_upc];\n        wine.retailerID = msg.sender;\n        wine.wineState = WineState.Sold;\n        emit WineSold(_upc);\n    }\n\n    function shipWine(uint _upc)\n    public\n    onlyProducer\n    wineSold(_upc)\n    {\n        Wine storage wine = items[_upc];\n        wine.wineState = WineState.Shipped;\n        emit WineShipped(_upc);\n    }\n\n    function receiveWine(uint _upc)\n    public\n    onlyRetailer\n    wineShipped(_upc)\n    {\n        Wine storage wine = items[_upc];\n        wine.wineState = WineState.Received;\n        emit WineReceived(_upc);\n    }\n\n    function purchaseWine(uint _upc)\n    public\n    onlyConsumer\n    wineReceived(_upc)\n    {\n        Wine storage wine = items[_upc];\n        wine.wineState = WineState.Purchased;\n        emit WinePurchased(_upc);\n    }\n}\n",
  "sourcePath": "/home/david2099/Documents/nodesall/supplyChainDApp/contracts/winebase/SupplyChain.sol",
  "compiler": {
    "name": "solc",
    "version": "0.5.0+commit.1d4f565a.Emscripten.clang"
  },
  "schemaVersion": "3.0.2",
  "updatedAt": "2019-02-22T20:19:13.047Z",
  "devdoc": {
    "methods": {}
  },
  "userdoc": {
    "methods": {}
  }
}