{
  "contractName": "SupplyChain",
  "abi": [
    {
      "constant": false,
      "inputs": [],
      "name": "renounceGrower",
      "outputs": [],
      "payable": false,
      "stateMutability": "nonpayable",
      "type": "function",
      "signature": "0x0c11596b"
    },
    {
      "constant": false,
      "inputs": [
        {
          "name": "account",
          "type": "address"
        }
      ],
      "name": "addConsumer",
      "outputs": [],
      "payable": false,
      "stateMutability": "nonpayable",
      "type": "function",
      "signature": "0x112940f9"
    },
    {
      "constant": true,
      "inputs": [
        {
          "name": "account",
          "type": "address"
        }
      ],
      "name": "isRetailer",
      "outputs": [
        {
          "name": "",
          "type": "bool"
        }
      ],
      "payable": false,
      "stateMutability": "view",
      "type": "function",
      "signature": "0x5da09b88"
    },
    {
      "constant": false,
      "inputs": [],
      "name": "renounceConsumer",
      "outputs": [],
      "payable": false,
      "stateMutability": "nonpayable",
      "type": "function",
      "signature": "0x61e6982d"
    },
    {
      "constant": true,
      "inputs": [
        {
          "name": "account",
          "type": "address"
        }
      ],
      "name": "isWholesaler",
      "outputs": [
        {
          "name": "",
          "type": "bool"
        }
      ],
      "payable": false,
      "stateMutability": "view",
      "type": "function",
      "signature": "0x64d1ba1f"
    },
    {
      "constant": true,
      "inputs": [
        {
          "name": "account",
          "type": "address"
        }
      ],
      "name": "isConsumer",
      "outputs": [
        {
          "name": "",
          "type": "bool"
        }
      ],
      "payable": false,
      "stateMutability": "view",
      "type": "function",
      "signature": "0x834ff739"
    },
    {
      "constant": false,
      "inputs": [
        {
          "name": "account",
          "type": "address"
        }
      ],
      "name": "addRetailer",
      "outputs": [],
      "payable": false,
      "stateMutability": "nonpayable",
      "type": "function",
      "signature": "0x8ec4f505"
    },
    {
      "constant": false,
      "inputs": [
        {
          "name": "account",
          "type": "address"
        }
      ],
      "name": "addGrower",
      "outputs": [],
      "payable": false,
      "stateMutability": "nonpayable",
      "type": "function",
      "signature": "0xb8b06c86"
    },
    {
      "constant": true,
      "inputs": [
        {
          "name": "account",
          "type": "address"
        }
      ],
      "name": "isGrower",
      "outputs": [
        {
          "name": "",
          "type": "bool"
        }
      ],
      "payable": false,
      "stateMutability": "view",
      "type": "function",
      "signature": "0xc4d10d74"
    },
    {
      "constant": false,
      "inputs": [],
      "name": "renounceRetailer",
      "outputs": [],
      "payable": false,
      "stateMutability": "nonpayable",
      "type": "function",
      "signature": "0xdb0e6a2f"
    },
    {
      "constant": false,
      "inputs": [
        {
          "name": "account",
          "type": "address"
        }
      ],
      "name": "addProducer",
      "outputs": [],
      "payable": false,
      "stateMutability": "nonpayable",
      "type": "function",
      "signature": "0xddf80166"
    },
    {
      "constant": false,
      "inputs": [
        {
          "name": "account",
          "type": "address"
        }
      ],
      "name": "addWholesaler",
      "outputs": [],
      "payable": false,
      "stateMutability": "nonpayable",
      "type": "function",
      "signature": "0xde63bdb9"
    },
    {
      "constant": true,
      "inputs": [
        {
          "name": "account",
          "type": "address"
        }
      ],
      "name": "isProducer",
      "outputs": [
        {
          "name": "",
          "type": "bool"
        }
      ],
      "payable": false,
      "stateMutability": "view",
      "type": "function",
      "signature": "0xf5521022"
    },
    {
      "constant": false,
      "inputs": [],
      "name": "renounceProducer",
      "outputs": [],
      "payable": false,
      "stateMutability": "nonpayable",
      "type": "function",
      "signature": "0xf9b867d8"
    },
    {
      "constant": false,
      "inputs": [],
      "name": "renounceWholesaler",
      "outputs": [],
      "payable": false,
      "stateMutability": "nonpayable",
      "type": "function",
      "signature": "0xfe19d152"
    },
    {
      "inputs": [],
      "payable": false,
      "stateMutability": "nonpayable",
      "type": "constructor",
      "signature": "constructor"
    },
    {
      "anonymous": false,
      "inputs": [
        {
          "indexed": true,
          "name": "account",
          "type": "address"
        }
      ],
      "name": "ConsumerAdded",
      "type": "event",
      "signature": "0x28b26e7a3d20aedbc5f8f2ebf7da671c0491723a2b78f47a097b0e46dee07142"
    },
    {
      "anonymous": false,
      "inputs": [
        {
          "indexed": true,
          "name": "account",
          "type": "address"
        }
      ],
      "name": "ConsumerRemoved",
      "type": "event",
      "signature": "0xe3f5ed5f263f1f01764a96edfc7d025f511ec5f7d180e8816908b78bcf74f098"
    },
    {
      "anonymous": false,
      "inputs": [
        {
          "indexed": true,
          "name": "account",
          "type": "address"
        }
      ],
      "name": "RetailerAdded",
      "type": "event",
      "signature": "0x71ae26cad02663e3d92efd6ec56031a80d74a20c0ab4183faa8bf262261c9baa"
    },
    {
      "anonymous": false,
      "inputs": [
        {
          "indexed": true,
          "name": "account",
          "type": "address"
        }
      ],
      "name": "RetailerRemoved",
      "type": "event",
      "signature": "0xdb7176e79cffef81cb01767dd0447a0b24bb72ca9778d4b245581086b2a7e6db"
    },
    {
      "anonymous": false,
      "inputs": [
        {
          "indexed": true,
          "name": "account",
          "type": "address"
        }
      ],
      "name": "WholesalerAdded",
      "type": "event",
      "signature": "0xd8a7ad7929975a375d2b12bf49040286b5b105df0fe351f10df6d85e5b7142f7"
    },
    {
      "anonymous": false,
      "inputs": [
        {
          "indexed": true,
          "name": "account",
          "type": "address"
        }
      ],
      "name": "WholesalerRemoved",
      "type": "event",
      "signature": "0x7f865f710a7604537eb2bc0334f082fa642d210a705398937f53663384485b28"
    },
    {
      "anonymous": false,
      "inputs": [
        {
          "indexed": true,
          "name": "account",
          "type": "address"
        }
      ],
      "name": "ProducerAdded",
      "type": "event",
      "signature": "0x2977383b0207d39ef14220620b6cf3e6c9b6e78592af90baeef6614ed2fcd2c6"
    },
    {
      "anonymous": false,
      "inputs": [
        {
          "indexed": true,
          "name": "account",
          "type": "address"
        }
      ],
      "name": "ProducerRemoved",
      "type": "event",
      "signature": "0xb78e9906c5bae930ccf756a5214c9855b1782f0eb30f9566de2384f034af48f3"
    },
    {
      "anonymous": false,
      "inputs": [
        {
          "indexed": true,
          "name": "account",
          "type": "address"
        }
      ],
      "name": "GrowerAdded",
      "type": "event",
      "signature": "0x423fd8158a2c5772d65f93f5aa158245f414b4da880b0d6d2a3361a3915ad3ae"
    },
    {
      "anonymous": false,
      "inputs": [
        {
          "indexed": true,
          "name": "account",
          "type": "address"
        }
      ],
      "name": "GrowerRemoved",
      "type": "event",
      "signature": "0x686dbfa27271f8cf2fe2e5eaeaf43f15d839d20c7e162ca3aee8362b6c6a861b"
    }
  ],
  "bytecode": "0x60806040523480156200001157600080fd5b506200002c336200009a640100000000026401000000009004565b620000463362000104640100000000026401000000009004565b62000060336200016e640100000000026401000000009004565b6200007a33620001d8640100000000026401000000009004565b620000943362000242640100000000026401000000009004565b62000404565b620000be816000620002ac6401000000000262000b24179091906401000000009004565b8073ffffffffffffffffffffffffffffffffffffffff167f423fd8158a2c5772d65f93f5aa158245f414b4da880b0d6d2a3361a3915ad3ae60405160405180910390a250565b62000128816001620002ac6401000000000262000b24179091906401000000009004565b8073ffffffffffffffffffffffffffffffffffffffff167f2977383b0207d39ef14220620b6cf3e6c9b6e78592af90baeef6614ed2fcd2c660405160405180910390a250565b62000192816002620002ac6401000000000262000b24179091906401000000009004565b8073ffffffffffffffffffffffffffffffffffffffff167fd8a7ad7929975a375d2b12bf49040286b5b105df0fe351f10df6d85e5b7142f760405160405180910390a250565b620001fc816003620002ac6401000000000262000b24179091906401000000009004565b8073ffffffffffffffffffffffffffffffffffffffff167f71ae26cad02663e3d92efd6ec56031a80d74a20c0ab4183faa8bf262261c9baa60405160405180910390a250565b62000266816004620002ac6401000000000262000b24179091906401000000009004565b8073ffffffffffffffffffffffffffffffffffffffff167f28b26e7a3d20aedbc5f8f2ebf7da671c0491723a2b78f47a097b0e46dee0714260405160405180910390a250565b600073ffffffffffffffffffffffffffffffffffffffff168173ffffffffffffffffffffffffffffffffffffffff1614151515620002e957600080fd5b6200030482826200036f640100000000026401000000009004565b1515156200031157600080fd5b60018260000160008373ffffffffffffffffffffffffffffffffffffffff1673ffffffffffffffffffffffffffffffffffffffff16815260200190815260200160002060006101000a81548160ff0219169083151502179055505050565b60008073ffffffffffffffffffffffffffffffffffffffff168273ffffffffffffffffffffffffffffffffffffffff1614151515620003ad57600080fd5b8260000160008373ffffffffffffffffffffffffffffffffffffffff1673ffffffffffffffffffffffffffffffffffffffff16815260200190815260200160002060009054906101000a900460ff16905092915050565b610c0080620004146000396000f3fe6080604052600436106100db576000357c0100000000000000000000000000000000000000000000000000000000900463ffffffff1680630c11596b146100e0578063112940f9146100f75780635da09b881461014857806361e6982d146101b157806364d1ba1f146101c8578063834ff739146102315780638ec4f5051461029a578063b8b06c86146102eb578063c4d10d741461033c578063db0e6a2f146103a5578063ddf80166146103bc578063de63bdb91461040d578063f55210221461045e578063f9b867d8146104c7578063fe19d152146104de575b600080fd5b3480156100ec57600080fd5b506100f56104f5565b005b34801561010357600080fd5b506101466004803603602081101561011a57600080fd5b81019080803573ffffffffffffffffffffffffffffffffffffffff169060200190929190505050610500565b005b34801561015457600080fd5b506101976004803603602081101561016b57600080fd5b81019080803573ffffffffffffffffffffffffffffffffffffffff169060200190929190505050610520565b604051808215151515815260200191505060405180910390f35b3480156101bd57600080fd5b506101c661053d565b005b3480156101d457600080fd5b50610217600480360360208110156101eb57600080fd5b81019080803573ffffffffffffffffffffffffffffffffffffffff169060200190929190505050610548565b604051808215151515815260200191505060405180910390f35b34801561023d57600080fd5b506102806004803603602081101561025457600080fd5b81019080803573ffffffffffffffffffffffffffffffffffffffff169060200190929190505050610565565b604051808215151515815260200191505060405180910390f35b3480156102a657600080fd5b506102e9600480360360208110156102bd57600080fd5b81019080803573ffffffffffffffffffffffffffffffffffffffff169060200190929190505050610582565b005b3480156102f757600080fd5b5061033a6004803603602081101561030e57600080fd5b81019080803573ffffffffffffffffffffffffffffffffffffffff1690602001909291905050506105a2565b005b34801561034857600080fd5b5061038b6004803603602081101561035f57600080fd5b81019080803573ffffffffffffffffffffffffffffffffffffffff1690602001909291905050506105c2565b604051808215151515815260200191505060405180910390f35b3480156103b157600080fd5b506103ba6105df565b005b3480156103c857600080fd5b5061040b600480360360208110156103df57600080fd5b81019080803573ffffffffffffffffffffffffffffffffffffffff1690602001909291905050506105ea565b005b34801561041957600080fd5b5061045c6004803603602081101561043057600080fd5b81019080803573ffffffffffffffffffffffffffffffffffffffff16906020019092919050505061060a565b005b34801561046a57600080fd5b506104ad6004803603602081101561048157600080fd5b81019080803573ffffffffffffffffffffffffffffffffffffffff16906020019092919050505061062a565b604051808215151515815260200191505060405180910390f35b3480156104d357600080fd5b506104dc610647565b005b3480156104ea57600080fd5b506104f3610652565b005b6104fe3361065d565b565b61050933610565565b151561051457600080fd5b61051d816106b7565b50565b600061053682600361071190919063ffffffff16565b9050919050565b610546336107a5565b565b600061055e82600261071190919063ffffffff16565b9050919050565b600061057b82600461071190919063ffffffff16565b9050919050565b61058b33610520565b151561059657600080fd5b61059f816107ff565b50565b6105ab336105c2565b15156105b657600080fd5b6105bf81610859565b50565b60006105d882600061071190919063ffffffff16565b9050919050565b6105e8336108b3565b565b6105f33361062a565b15156105fe57600080fd5b6106078161090d565b50565b61061333610548565b151561061e57600080fd5b61062781610967565b50565b600061064082600161071190919063ffffffff16565b9050919050565b610650336109c1565b565b61065b33610a1b565b565b610671816000610a7590919063ffffffff16565b8073ffffffffffffffffffffffffffffffffffffffff167f686dbfa27271f8cf2fe2e5eaeaf43f15d839d20c7e162ca3aee8362b6c6a861b60405160405180910390a250565b6106cb816004610b2490919063ffffffff16565b8073ffffffffffffffffffffffffffffffffffffffff167f28b26e7a3d20aedbc5f8f2ebf7da671c0491723a2b78f47a097b0e46dee0714260405160405180910390a250565b60008073ffffffffffffffffffffffffffffffffffffffff168273ffffffffffffffffffffffffffffffffffffffff161415151561074e57600080fd5b8260000160008373ffffffffffffffffffffffffffffffffffffffff1673ffffffffffffffffffffffffffffffffffffffff16815260200190815260200160002060009054906101000a900460ff16905092915050565b6107b9816004610a7590919063ffffffff16565b8073ffffffffffffffffffffffffffffffffffffffff167fe3f5ed5f263f1f01764a96edfc7d025f511ec5f7d180e8816908b78bcf74f09860405160405180910390a250565b610813816003610b2490919063ffffffff16565b8073ffffffffffffffffffffffffffffffffffffffff167f71ae26cad02663e3d92efd6ec56031a80d74a20c0ab4183faa8bf262261c9baa60405160405180910390a250565b61086d816000610b2490919063ffffffff16565b8073ffffffffffffffffffffffffffffffffffffffff167f423fd8158a2c5772d65f93f5aa158245f414b4da880b0d6d2a3361a3915ad3ae60405160405180910390a250565b6108c7816003610a7590919063ffffffff16565b8073ffffffffffffffffffffffffffffffffffffffff167fdb7176e79cffef81cb01767dd0447a0b24bb72ca9778d4b245581086b2a7e6db60405160405180910390a250565b610921816001610b2490919063ffffffff16565b8073ffffffffffffffffffffffffffffffffffffffff167f2977383b0207d39ef14220620b6cf3e6c9b6e78592af90baeef6614ed2fcd2c660405160405180910390a250565b61097b816002610b2490919063ffffffff16565b8073ffffffffffffffffffffffffffffffffffffffff167fd8a7ad7929975a375d2b12bf49040286b5b105df0fe351f10df6d85e5b7142f760405160405180910390a250565b6109d5816001610a7590919063ffffffff16565b8073ffffffffffffffffffffffffffffffffffffffff167fb78e9906c5bae930ccf756a5214c9855b1782f0eb30f9566de2384f034af48f360405160405180910390a250565b610a2f816002610a7590919063ffffffff16565b8073ffffffffffffffffffffffffffffffffffffffff167f7f865f710a7604537eb2bc0334f082fa642d210a705398937f53663384485b2860405160405180910390a250565b600073ffffffffffffffffffffffffffffffffffffffff168173ffffffffffffffffffffffffffffffffffffffff1614151515610ab157600080fd5b610abb8282610711565b1515610ac657600080fd5b60008260000160008373ffffffffffffffffffffffffffffffffffffffff1673ffffffffffffffffffffffffffffffffffffffff16815260200190815260200160002060006101000a81548160ff0219169083151502179055505050565b600073ffffffffffffffffffffffffffffffffffffffff168173ffffffffffffffffffffffffffffffffffffffff1614151515610b6057600080fd5b610b6a8282610711565b151515610b7657600080fd5b60018260000160008373ffffffffffffffffffffffffffffffffffffffff1673ffffffffffffffffffffffffffffffffffffffff16815260200190815260200160002060006101000a81548160ff021916908315150217905550505056fea165627a7a7230582092b8a5ae844521a1884e721045a3efcb7e92ebc162a4a1b328a752bdb25ba8690029",
  "source": "pragma solidity = 0.5.0;\nimport \"../wineaccesscontrol/ConsumerRole.sol\";\nimport \"../wineaccesscontrol/GrowerRole.sol\";\nimport \"../wineaccesscontrol/ProducerRole.sol\";\nimport \"../wineaccesscontrol/RetailerRole.sol\";\nimport \"../wineaccesscontrol/WholesalerRole.sol\";\n\n\ncontract SupplyChain is\n    GrowerRole,\n    ProducerRole,\n    WholeSalerRole,\n    RetailerRole,\n    ConsumerRole\n{\n\n    // Define 'owner'\n    address owner;\n\n    // Define a variable called 'upc' for Universal Product Code (UPC)\n    uint  upc;\n\n    // Define a variable called 'sku' for Stock Keeping Unit (SKU)\n    uint  sku;\n\n    // Define a public mapping 'wines' that maps the UPC to a wine.\n    mapping (uint => Wine) wines;\n\n    // Define a public mapping 'itemsHistory' that maps the UPC to an array of TxHash,\n    // that track its journey through the supply chain -- to be sent from DApp.\n    mapping (uint => string[]) winesHistory;\n\n    // Define enum 'GrapeState' with the following values:\n    enum GrapeState\n    {\n        Harvested,  // 0\n        ForSale,    // 1\n        Sold,       // 2\n        Shipped,    // 3\n        Received    // 4\n    }\n\n    // Define enum 'WineState' with the following values:\n    enum WineState\n    {\n        Produced,  // 0\n        Packed,    // 1\n        ForSale,   // 2\n        Sold,      // 3\n        Shipped,   // 4\n        Received,  // 5\n        Purchased   // 6\n    }\n\n    //TODO: set default states for wine and grapes\n\n    // Define a struct 'Item' with the following fields:\n    struct Wine {\n        uint    sku;  // Stock Keeping Unit (SKU)\n        uint    upc; // Universal Product Code (UPC), generated by the Producer, goes on the package, can be verified by the Consumer\n        address ownerID;  // Metamask-Ethereum address of the current owner as the product moves through different stages\n\n        address growerID; // Metamask-Ethereum address of the Grower\n        string  growerName; // Grower Name\n        string  growerInformation;  // Grower Information\n        string  growerLatitude; // Grower plot Latitude\n        string  growerLongitude;  // Grower plot Longitude\n\n        address producerID; // Metamask-Ethereum address of the Producer\n        string  producerName; // Producer Name\n        string  producerInformation;  // Producer Information\n        string  producerLatitude; // Producer Latitude\n        string  producerLongitude;  // Producer Longitude\n\n        uint    productID;  // Product ID potentially a combination of upc + sku\n        string  productNotes; // Product Notes\n        uint    productPrice; // Product Price\n\n        GrapeState   grapeState;  // Grape State as represented in the enum above\n        WineState   wineState;  // Product State as represented in the enum above\n\n        address wholesalerID;  // Metamask-Ethereum address of the Wholesaler\n        address retailerID; // Metamask-Ethereum address of the Retailer\n        address consumerID; // Metamask-Ethereum address of the Consumer\n\n    }\n\n\n    constructor() public {\n\n    }\n\n}\n",
  "sourcePath": "/home/david2099/Documents/nodesall/supplyChainDApp/contracts/winebase/SupplyChain.sol",
  "compiler": {
    "name": "solc",
    "version": "0.5.0+commit.1d4f565a.Emscripten.clang"
  },
  "schemaVersion": "3.0.2",
  "updatedAt": "2019-02-17T16:38:05.831Z",
  "devdoc": {
    "methods": {}
  },
  "userdoc": {
    "methods": {}
  }
}