{
  "contractName": "SupplyChain",
  "abi": [
    {
      "constant": false,
      "inputs": [],
      "name": "renounceGrower",
      "outputs": [],
      "payable": false,
      "stateMutability": "nonpayable",
      "type": "function",
      "signature": "0x0c11596b"
    },
    {
      "constant": false,
      "inputs": [
        {
          "name": "account",
          "type": "address"
        }
      ],
      "name": "addConsumer",
      "outputs": [],
      "payable": false,
      "stateMutability": "nonpayable",
      "type": "function",
      "signature": "0x112940f9"
    },
    {
      "constant": true,
      "inputs": [
        {
          "name": "account",
          "type": "address"
        }
      ],
      "name": "isRetailer",
      "outputs": [
        {
          "name": "",
          "type": "bool"
        }
      ],
      "payable": false,
      "stateMutability": "view",
      "type": "function",
      "signature": "0x5da09b88"
    },
    {
      "constant": false,
      "inputs": [],
      "name": "renounceConsumer",
      "outputs": [],
      "payable": false,
      "stateMutability": "nonpayable",
      "type": "function",
      "signature": "0x61e6982d"
    },
    {
      "constant": true,
      "inputs": [
        {
          "name": "account",
          "type": "address"
        }
      ],
      "name": "isWholesaler",
      "outputs": [
        {
          "name": "",
          "type": "bool"
        }
      ],
      "payable": false,
      "stateMutability": "view",
      "type": "function",
      "signature": "0x64d1ba1f"
    },
    {
      "constant": false,
      "inputs": [],
      "name": "renounceOwnership",
      "outputs": [],
      "payable": false,
      "stateMutability": "nonpayable",
      "type": "function",
      "signature": "0x715018a6"
    },
    {
      "constant": true,
      "inputs": [
        {
          "name": "account",
          "type": "address"
        }
      ],
      "name": "isConsumer",
      "outputs": [
        {
          "name": "",
          "type": "bool"
        }
      ],
      "payable": false,
      "stateMutability": "view",
      "type": "function",
      "signature": "0x834ff739"
    },
    {
      "constant": true,
      "inputs": [],
      "name": "owner",
      "outputs": [
        {
          "name": "",
          "type": "address"
        }
      ],
      "payable": false,
      "stateMutability": "view",
      "type": "function",
      "signature": "0x8da5cb5b"
    },
    {
      "constant": false,
      "inputs": [
        {
          "name": "account",
          "type": "address"
        }
      ],
      "name": "addRetailer",
      "outputs": [],
      "payable": false,
      "stateMutability": "nonpayable",
      "type": "function",
      "signature": "0x8ec4f505"
    },
    {
      "constant": true,
      "inputs": [],
      "name": "isOwner",
      "outputs": [
        {
          "name": "",
          "type": "bool"
        }
      ],
      "payable": false,
      "stateMutability": "view",
      "type": "function",
      "signature": "0x8f32d59b"
    },
    {
      "constant": false,
      "inputs": [
        {
          "name": "account",
          "type": "address"
        }
      ],
      "name": "addGrower",
      "outputs": [],
      "payable": false,
      "stateMutability": "nonpayable",
      "type": "function",
      "signature": "0xb8b06c86"
    },
    {
      "constant": true,
      "inputs": [
        {
          "name": "account",
          "type": "address"
        }
      ],
      "name": "isGrower",
      "outputs": [
        {
          "name": "",
          "type": "bool"
        }
      ],
      "payable": false,
      "stateMutability": "view",
      "type": "function",
      "signature": "0xc4d10d74"
    },
    {
      "constant": false,
      "inputs": [],
      "name": "renounceRetailer",
      "outputs": [],
      "payable": false,
      "stateMutability": "nonpayable",
      "type": "function",
      "signature": "0xdb0e6a2f"
    },
    {
      "constant": false,
      "inputs": [
        {
          "name": "account",
          "type": "address"
        }
      ],
      "name": "addProducer",
      "outputs": [],
      "payable": false,
      "stateMutability": "nonpayable",
      "type": "function",
      "signature": "0xddf80166"
    },
    {
      "constant": false,
      "inputs": [
        {
          "name": "account",
          "type": "address"
        }
      ],
      "name": "addWholesaler",
      "outputs": [],
      "payable": false,
      "stateMutability": "nonpayable",
      "type": "function",
      "signature": "0xde63bdb9"
    },
    {
      "constant": false,
      "inputs": [
        {
          "name": "newOwner",
          "type": "address"
        }
      ],
      "name": "transferOwnership",
      "outputs": [],
      "payable": false,
      "stateMutability": "nonpayable",
      "type": "function",
      "signature": "0xf2fde38b"
    },
    {
      "constant": true,
      "inputs": [
        {
          "name": "account",
          "type": "address"
        }
      ],
      "name": "isProducer",
      "outputs": [
        {
          "name": "",
          "type": "bool"
        }
      ],
      "payable": false,
      "stateMutability": "view",
      "type": "function",
      "signature": "0xf5521022"
    },
    {
      "constant": false,
      "inputs": [],
      "name": "renounceProducer",
      "outputs": [],
      "payable": false,
      "stateMutability": "nonpayable",
      "type": "function",
      "signature": "0xf9b867d8"
    },
    {
      "constant": false,
      "inputs": [],
      "name": "renounceWholesaler",
      "outputs": [],
      "payable": false,
      "stateMutability": "nonpayable",
      "type": "function",
      "signature": "0xfe19d152"
    },
    {
      "inputs": [],
      "payable": true,
      "stateMutability": "payable",
      "type": "constructor",
      "signature": "constructor"
    },
    {
      "anonymous": false,
      "inputs": [
        {
          "indexed": false,
          "name": "grapeId",
          "type": "uint256"
        }
      ],
      "name": "GrapeHarvested",
      "type": "event",
      "signature": "0xe98cb48b7c65f60e2a8d0b20a8dbaac7cc3c2c897044fe92d5f5d3f97382ca75"
    },
    {
      "anonymous": false,
      "inputs": [
        {
          "indexed": false,
          "name": "grapeId",
          "type": "uint256"
        }
      ],
      "name": "GrapeForSale",
      "type": "event",
      "signature": "0x003260cac5be8a3ee788081a5ebb9ddedc21351f222a74d9553c1482bb0c8d34"
    },
    {
      "anonymous": false,
      "inputs": [
        {
          "indexed": false,
          "name": "grapeId",
          "type": "uint256"
        }
      ],
      "name": "GrapeSold",
      "type": "event",
      "signature": "0xdbcd9442ea51662810e0fc9e143a1cee86d83e1010e20963373aa6bf17ba439d"
    },
    {
      "anonymous": false,
      "inputs": [
        {
          "indexed": false,
          "name": "grapeId",
          "type": "uint256"
        }
      ],
      "name": "GrapeShipped",
      "type": "event",
      "signature": "0xb4f140a99563fe049d6206aa111e9592995d91e14529b45430d6c3b0dcf49975"
    },
    {
      "anonymous": false,
      "inputs": [
        {
          "indexed": false,
          "name": "grapeId",
          "type": "uint256"
        }
      ],
      "name": "GrapeReceived",
      "type": "event",
      "signature": "0xa4ebe2faef1a8e12d4ae5cc1d71ce997889854e26a0cbf25aa01f719e95276d1"
    },
    {
      "anonymous": false,
      "inputs": [
        {
          "indexed": false,
          "name": "upc",
          "type": "uint256"
        }
      ],
      "name": "WineProduced",
      "type": "event",
      "signature": "0x83e1ab300d19168d03dcd993384c2d69adc560b1021bb4c18a68bf40cde1f4d7"
    },
    {
      "anonymous": false,
      "inputs": [
        {
          "indexed": false,
          "name": "upc",
          "type": "uint256"
        }
      ],
      "name": "WinePacked",
      "type": "event",
      "signature": "0x0869ab0322800b441c2ace7097217dfee49f6c8129437dd36e5e4146e0e69928"
    },
    {
      "anonymous": false,
      "inputs": [
        {
          "indexed": false,
          "name": "upc",
          "type": "uint256"
        }
      ],
      "name": "WineForSale",
      "type": "event",
      "signature": "0xa97ba00ead9a7c7102566aab6635515af6ade3035fee035f2e91f51daf034236"
    },
    {
      "anonymous": false,
      "inputs": [
        {
          "indexed": false,
          "name": "upc",
          "type": "uint256"
        }
      ],
      "name": "WineSold",
      "type": "event",
      "signature": "0xc4e50a10ecdbba8d26cab330220ec6f89afc954c92251c4e529542119b85c084"
    },
    {
      "anonymous": false,
      "inputs": [
        {
          "indexed": false,
          "name": "upc",
          "type": "uint256"
        }
      ],
      "name": "WineShipped",
      "type": "event",
      "signature": "0xc45d1150d9c75df34f991dd286a910d790ce07ba5af619b7f7d37139c3c2cafc"
    },
    {
      "anonymous": false,
      "inputs": [
        {
          "indexed": false,
          "name": "upc",
          "type": "uint256"
        }
      ],
      "name": "WineReceived",
      "type": "event",
      "signature": "0x14b6cc590b47a9656821bdb6db91b9e1537ca4d36ff65f265a661c8e13bfd098"
    },
    {
      "anonymous": false,
      "inputs": [
        {
          "indexed": false,
          "name": "upc",
          "type": "uint256"
        }
      ],
      "name": "WinePurchased",
      "type": "event",
      "signature": "0x0513f8569d804d90dd149e0e50db1c075f672ccfbb4ccabe023ff332ffa2196c"
    },
    {
      "anonymous": false,
      "inputs": [
        {
          "indexed": true,
          "name": "oldOwner",
          "type": "address"
        },
        {
          "indexed": true,
          "name": "newOwner",
          "type": "address"
        }
      ],
      "name": "TransferOwnership",
      "type": "event",
      "signature": "0x5c486528ec3e3f0ea91181cff8116f02bfa350e03b8b6f12e00765adbb5af85c"
    },
    {
      "anonymous": false,
      "inputs": [
        {
          "indexed": true,
          "name": "account",
          "type": "address"
        }
      ],
      "name": "ConsumerAdded",
      "type": "event",
      "signature": "0x28b26e7a3d20aedbc5f8f2ebf7da671c0491723a2b78f47a097b0e46dee07142"
    },
    {
      "anonymous": false,
      "inputs": [
        {
          "indexed": true,
          "name": "account",
          "type": "address"
        }
      ],
      "name": "ConsumerRemoved",
      "type": "event",
      "signature": "0xe3f5ed5f263f1f01764a96edfc7d025f511ec5f7d180e8816908b78bcf74f098"
    },
    {
      "anonymous": false,
      "inputs": [
        {
          "indexed": true,
          "name": "account",
          "type": "address"
        }
      ],
      "name": "RetailerAdded",
      "type": "event",
      "signature": "0x71ae26cad02663e3d92efd6ec56031a80d74a20c0ab4183faa8bf262261c9baa"
    },
    {
      "anonymous": false,
      "inputs": [
        {
          "indexed": true,
          "name": "account",
          "type": "address"
        }
      ],
      "name": "RetailerRemoved",
      "type": "event",
      "signature": "0xdb7176e79cffef81cb01767dd0447a0b24bb72ca9778d4b245581086b2a7e6db"
    },
    {
      "anonymous": false,
      "inputs": [
        {
          "indexed": true,
          "name": "account",
          "type": "address"
        }
      ],
      "name": "WholesalerAdded",
      "type": "event",
      "signature": "0xd8a7ad7929975a375d2b12bf49040286b5b105df0fe351f10df6d85e5b7142f7"
    },
    {
      "anonymous": false,
      "inputs": [
        {
          "indexed": true,
          "name": "account",
          "type": "address"
        }
      ],
      "name": "WholesalerRemoved",
      "type": "event",
      "signature": "0x7f865f710a7604537eb2bc0334f082fa642d210a705398937f53663384485b28"
    },
    {
      "anonymous": false,
      "inputs": [
        {
          "indexed": true,
          "name": "account",
          "type": "address"
        }
      ],
      "name": "ProducerAdded",
      "type": "event",
      "signature": "0x2977383b0207d39ef14220620b6cf3e6c9b6e78592af90baeef6614ed2fcd2c6"
    },
    {
      "anonymous": false,
      "inputs": [
        {
          "indexed": true,
          "name": "account",
          "type": "address"
        }
      ],
      "name": "ProducerRemoved",
      "type": "event",
      "signature": "0xb78e9906c5bae930ccf756a5214c9855b1782f0eb30f9566de2384f034af48f3"
    },
    {
      "anonymous": false,
      "inputs": [
        {
          "indexed": true,
          "name": "account",
          "type": "address"
        }
      ],
      "name": "GrowerAdded",
      "type": "event",
      "signature": "0x423fd8158a2c5772d65f93f5aa158245f414b4da880b0d6d2a3361a3915ad3ae"
    },
    {
      "anonymous": false,
      "inputs": [
        {
          "indexed": true,
          "name": "account",
          "type": "address"
        }
      ],
      "name": "GrowerRemoved",
      "type": "event",
      "signature": "0x686dbfa27271f8cf2fe2e5eaeaf43f15d839d20c7e162ca3aee8362b6c6a861b"
    },
    {
      "constant": false,
      "inputs": [],
      "name": "kill",
      "outputs": [],
      "payable": false,
      "stateMutability": "nonpayable",
      "type": "function",
      "signature": "0x41c0e1b5"
    },
    {
      "constant": false,
      "inputs": [
        {
          "name": "_growerName",
          "type": "string"
        },
        {
          "name": "_growerInformation",
          "type": "string"
        },
        {
          "name": "_growerLatitude",
          "type": "string"
        },
        {
          "name": "_growerLongitude",
          "type": "string"
        },
        {
          "name": "_grapeVariery",
          "type": "string"
        }
      ],
      "name": "harvestGrapes",
      "outputs": [],
      "payable": false,
      "stateMutability": "nonpayable",
      "type": "function",
      "signature": "0x7a86b5d5"
    },
    {
      "constant": false,
      "inputs": [
        {
          "name": "_grapeID",
          "type": "uint256"
        },
        {
          "name": "_grapePrice",
          "type": "uint256"
        }
      ],
      "name": "addGrapesForSale",
      "outputs": [],
      "payable": false,
      "stateMutability": "nonpayable",
      "type": "function",
      "signature": "0x0ef1b67e"
    },
    {
      "constant": false,
      "inputs": [
        {
          "name": "_grapeID",
          "type": "uint256"
        }
      ],
      "name": "buyGrapes",
      "outputs": [],
      "payable": true,
      "stateMutability": "payable",
      "type": "function",
      "signature": "0x531d5a9a"
    },
    {
      "constant": false,
      "inputs": [
        {
          "name": "_grapeID",
          "type": "uint256"
        }
      ],
      "name": "shipGrapes",
      "outputs": [],
      "payable": false,
      "stateMutability": "nonpayable",
      "type": "function",
      "signature": "0xfd333835"
    },
    {
      "constant": false,
      "inputs": [
        {
          "name": "_grapeID",
          "type": "uint256"
        }
      ],
      "name": "receiveGrapes",
      "outputs": [],
      "payable": false,
      "stateMutability": "nonpayable",
      "type": "function",
      "signature": "0x44a0a968"
    },
    {
      "constant": true,
      "inputs": [
        {
          "name": "_grapeID",
          "type": "uint256"
        }
      ],
      "name": "fetchGrape",
      "outputs": [
        {
          "name": "grapeGrapeID",
          "type": "uint256"
        },
        {
          "name": "ownerID",
          "type": "address"
        },
        {
          "name": "growerID",
          "type": "address"
        },
        {
          "name": "growerName",
          "type": "string"
        },
        {
          "name": "growerInformation",
          "type": "string"
        },
        {
          "name": "growerLatitude",
          "type": "string"
        },
        {
          "name": "growerLongitude",
          "type": "string"
        },
        {
          "name": "grapePrice",
          "type": "uint256"
        },
        {
          "name": "grapeState",
          "type": "uint8"
        },
        {
          "name": "grapeVariety",
          "type": "string"
        }
      ],
      "payable": false,
      "stateMutability": "view",
      "type": "function",
      "signature": "0xe2dde052"
    },
    {
      "constant": false,
      "inputs": [
        {
          "name": "_producerName",
          "type": "string"
        },
        {
          "name": "_producerInformation",
          "type": "string"
        },
        {
          "name": "_producerLatitude",
          "type": "string"
        },
        {
          "name": "_producerLongitude",
          "type": "string"
        },
        {
          "name": "_productNotes",
          "type": "string"
        },
        {
          "name": "_grapesIDs",
          "type": "uint256[]"
        },
        {
          "name": "_wineState",
          "type": "uint8"
        }
      ],
      "name": "produceWine",
      "outputs": [],
      "payable": false,
      "stateMutability": "nonpayable",
      "type": "function",
      "signature": "0x1cd0924e"
    },
    {
      "constant": false,
      "inputs": [
        {
          "name": "_upc",
          "type": "uint256"
        }
      ],
      "name": "packWine",
      "outputs": [],
      "payable": false,
      "stateMutability": "nonpayable",
      "type": "function",
      "signature": "0x7b97bb34"
    },
    {
      "constant": false,
      "inputs": [
        {
          "name": "_upc",
          "type": "uint256"
        },
        {
          "name": "_productPrice",
          "type": "uint256"
        }
      ],
      "name": "addWineForSale",
      "outputs": [],
      "payable": false,
      "stateMutability": "nonpayable",
      "type": "function",
      "signature": "0x61e101fb"
    },
    {
      "constant": false,
      "inputs": [
        {
          "name": "_upc",
          "type": "uint256"
        }
      ],
      "name": "buyWine",
      "outputs": [],
      "payable": true,
      "stateMutability": "payable",
      "type": "function",
      "signature": "0xcbcf2349"
    },
    {
      "constant": false,
      "inputs": [
        {
          "name": "_upc",
          "type": "uint256"
        }
      ],
      "name": "shipWine",
      "outputs": [],
      "payable": false,
      "stateMutability": "nonpayable",
      "type": "function",
      "signature": "0x26820e7e"
    },
    {
      "constant": false,
      "inputs": [
        {
          "name": "_upc",
          "type": "uint256"
        },
        {
          "name": "_productRetailPrice",
          "type": "uint256"
        }
      ],
      "name": "receiveWine",
      "outputs": [],
      "payable": false,
      "stateMutability": "nonpayable",
      "type": "function",
      "signature": "0x3084fc4a"
    },
    {
      "constant": false,
      "inputs": [
        {
          "name": "_upc",
          "type": "uint256"
        }
      ],
      "name": "purchaseWine",
      "outputs": [],
      "payable": true,
      "stateMutability": "payable",
      "type": "function",
      "signature": "0x04fee1eb"
    },
    {
      "constant": true,
      "inputs": [
        {
          "name": "_upc",
          "type": "uint256"
        }
      ],
      "name": "fetchWineOne",
      "outputs": [
        {
          "name": "wineSku",
          "type": "uint256"
        },
        {
          "name": "wineUpc",
          "type": "uint256"
        },
        {
          "name": "ownerID",
          "type": "address"
        },
        {
          "name": "producerID",
          "type": "address"
        },
        {
          "name": "productPrice",
          "type": "uint256"
        },
        {
          "name": "wineState",
          "type": "uint8"
        },
        {
          "name": "wholesalerID",
          "type": "address"
        },
        {
          "name": "retailerID",
          "type": "address"
        },
        {
          "name": "consumerID",
          "type": "address"
        }
      ],
      "payable": false,
      "stateMutability": "view",
      "type": "function",
      "signature": "0x9e083bd3"
    },
    {
      "constant": true,
      "inputs": [
        {
          "name": "_upc",
          "type": "uint256"
        }
      ],
      "name": "fetchWineTwo",
      "outputs": [
        {
          "name": "wineSku",
          "type": "uint256"
        },
        {
          "name": "wineUpc",
          "type": "uint256"
        },
        {
          "name": "producerName",
          "type": "string"
        },
        {
          "name": "producerInformation",
          "type": "string"
        },
        {
          "name": "producerLatitude",
          "type": "string"
        },
        {
          "name": "producerLongitude",
          "type": "string"
        },
        {
          "name": "productID",
          "type": "uint256"
        },
        {
          "name": "productNotes",
          "type": "string"
        },
        {
          "name": "productPrice",
          "type": "uint256"
        }
      ],
      "payable": false,
      "stateMutability": "view",
      "type": "function",
      "signature": "0x5dfb8136"
    },
    {
      "constant": true,
      "inputs": [
        {
          "name": "_upc",
          "type": "uint256"
        }
      ],
      "name": "fetchWineGrapes",
      "outputs": [
        {
          "name": "grapesIDs",
          "type": "uint256[]"
        }
      ],
      "payable": false,
      "stateMutability": "view",
      "type": "function",
      "signature": "0xdfc90b50"
    }
  ],
  "bytecode": "0x60806040526200001833640100000000620000db810204565b6200002c336401000000006200012d810204565b62000040336401000000006200017f810204565b6200005433640100000000620001d1810204565b620000683364010000000062000223810204565b60058054600160a060020a031916331790819055604051600160a060020a0391909116906000907f5c486528ec3e3f0ea91181cff8116f02bfa350e03b8b6f12e00765adbb5af85c908290a360068054600160a060020a0319163317905560016008819055600781905560095562000308565b620000f6600082640100000000620042146200027582021704565b604051600160a060020a038216907f423fd8158a2c5772d65f93f5aa158245f414b4da880b0d6d2a3361a3915ad3ae90600090a250565b62000148600182640100000000620042146200027582021704565b604051600160a060020a038216907f2977383b0207d39ef14220620b6cf3e6c9b6e78592af90baeef6614ed2fcd2c690600090a250565b6200019a600282640100000000620042146200027582021704565b604051600160a060020a038216907fd8a7ad7929975a375d2b12bf49040286b5b105df0fe351f10df6d85e5b7142f790600090a250565b620001ec600382640100000000620042146200027582021704565b604051600160a060020a038216907f71ae26cad02663e3d92efd6ec56031a80d74a20c0ab4183faa8bf262261c9baa90600090a250565b6200023e600482640100000000620042146200027582021704565b604051600160a060020a038216907f28b26e7a3d20aedbc5f8f2ebf7da671c0491723a2b78f47a097b0e46dee0714290600090a250565b600160a060020a03811615156200028b57600080fd5b620002a08282640100000000620002d0810204565b15620002ab57600080fd5b600160a060020a0316600090815260209190915260409020805460ff19166001179055565b6000600160a060020a0382161515620002e857600080fd5b50600160a060020a03166000908152602091909152604090205460ff1690565b61447a80620003186000396000f3fe6080604052600436106101c15763ffffffff7c010000000000000000000000000000000000000000000000000000000060003504166304fee1eb81146101c65780630c11596b146101e55780630ef1b67e146101fa578063112940f91461022a5780631cd0924e1461025d57806326820e7e146105b55780633084fc4a146105df57806341c0e1b51461060f57806344a0a96814610624578063531d5a9a1461064e5780635da09b881461066b5780635dfb8136146106b257806361e101fb1461090857806361e6982d1461093857806364d1ba1f1461094d578063715018a6146109805780637a86b5d5146109955780637b97bb3414610c64578063834ff73914610c8e5780638da5cb5b14610cc15780638ec4f50514610cf25780638f32d59b14610d255780639e083bd314610d3a578063b8b06c8614610df3578063c4d10d7414610e26578063cbcf234914610e59578063db0e6a2f14610e76578063ddf8016614610e8b578063de63bdb914610ebe578063dfc90b5014610ef1578063e2dde05214610f6b578063f2fde38b146111fa578063f55210221461122d578063f9b867d814611260578063fd33383514611275578063fe19d1521461129f575b600080fd5b6101e3600480360360208110156101dc57600080fd5b50356112b4565b005b3480156101f157600080fd5b506101e36114b2565b34801561020657600080fd5b506101e36004803603604081101561021d57600080fd5b50803590602001356114bd565b34801561023657600080fd5b506101e36004803603602081101561024d57600080fd5b5035600160a060020a0316611557565b34801561026957600080fd5b506101e3600480360360e081101561028057600080fd5b81019060208101813564010000000081111561029b57600080fd5b8201836020820111156102ad57600080fd5b803590602001918460018302840111640100000000831117156102cf57600080fd5b91908080601f016020809104026020016040519081016040528093929190818152602001838380828437600092019190915250929594936020810193503591505064010000000081111561032257600080fd5b82018360208201111561033457600080fd5b8035906020019184600183028401116401000000008311171561035657600080fd5b91908080601f01602080910402602001604051908101604052809392919081815260200183838082843760009201919091525092959493602081019350359150506401000000008111156103a957600080fd5b8201836020820111156103bb57600080fd5b803590602001918460018302840111640100000000831117156103dd57600080fd5b91908080601f016020809104026020016040519081016040528093929190818152602001838380828437600092019190915250929594936020810193503591505064010000000081111561043057600080fd5b82018360208201111561044257600080fd5b8035906020019184600183028401116401000000008311171561046457600080fd5b91908080601f01602080910402602001604051908101604052809392919081815260200183838082843760009201919091525092959493602081019350359150506401000000008111156104b757600080fd5b8201836020820111156104c957600080fd5b803590602001918460018302840111640100000000831117156104eb57600080fd5b91908080601f016020809104026020016040519081016040528093929190818152602001838380828437600092019190915250929594936020810193503591505064010000000081111561053e57600080fd5b82018360208201111561055057600080fd5b8035906020019184602083028401116401000000008311171561057257600080fd5b9190808060200260200160405190810160405280939291908181526020018383602002808284376000920191909152509295505050903560ff1691506115779050565b3480156105c157600080fd5b506101e3600480360360208110156105d857600080fd5b5035611e82565b3480156105eb57600080fd5b506101e36004803603604081101561060257600080fd5b5080359060200135611f90565b34801561061b57600080fd5b506101e3612097565b34801561063057600080fd5b506101e36004803603602081101561064757600080fd5b50356120b8565b6101e36004803603602081101561066457600080fd5b50356121c4565b34801561067757600080fd5b5061069e6004803603602081101561068e57600080fd5b5035600160a060020a03166123c0565b604080519115158252519081900360200190f35b3480156106be57600080fd5b506106dc600480360360208110156106d557600080fd5b50356123d9565b604051808a8152602001898152602001806020018060200180602001806020018881526020018060200187815260200186810386528d818151815260200191508051906020019080838360005b83811015610741578181015183820152602001610729565b50505050905090810190601f16801561076e5780820380516001836020036101000a031916815260200191505b5086810385528c5181528c516020918201918e019080838360005b838110156107a1578181015183820152602001610789565b50505050905090810190601f1680156107ce5780820380516001836020036101000a031916815260200191505b5086810384528b5181528b516020918201918d019080838360005b838110156108015781810151838201526020016107e9565b50505050905090810190601f16801561082e5780820380516001836020036101000a031916815260200191505b5086810383528a5181528a516020918201918c019080838360005b83811015610861578181015183820152602001610849565b50505050905090810190601f16801561088e5780820380516001836020036101000a031916815260200191505b5086810382528851815288516020918201918a019080838360005b838110156108c15781810151838201526020016108a9565b50505050905090810190601f1680156108ee5780820380516001836020036101000a031916815260200191505b509e50505050505050505050505050505060405180910390f35b34801561091457600080fd5b506101e36004803603604081101561092b57600080fd5b50803590602001356128ac565b34801561094457600080fd5b506101e36129c7565b34801561095957600080fd5b5061069e6004803603602081101561097057600080fd5b5035600160a060020a03166129d0565b34801561098c57600080fd5b506101e36129e3565b3480156109a157600080fd5b506101e3600480360360a08110156109b857600080fd5b8101906020810181356401000000008111156109d357600080fd5b8201836020820111156109e557600080fd5b80359060200191846001830284011164010000000083111715610a0757600080fd5b91908080601f0160208091040260200160405190810160405280939291908181526020018383808284376000920191909152509295949360208101935035915050640100000000811115610a5a57600080fd5b820183602082011115610a6c57600080fd5b80359060200191846001830284011164010000000083111715610a8e57600080fd5b91908080601f0160208091040260200160405190810160405280939291908181526020018383808284376000920191909152509295949360208101935035915050640100000000811115610ae157600080fd5b820183602082011115610af357600080fd5b80359060200191846001830284011164010000000083111715610b1557600080fd5b91908080601f0160208091040260200160405190810160405280939291908181526020018383808284376000920191909152509295949360208101935035915050640100000000811115610b6857600080fd5b820183602082011115610b7a57600080fd5b80359060200191846001830284011164010000000083111715610b9c57600080fd5b91908080601f0160208091040260200160405190810160405280939291908181526020018383808284376000920191909152509295949360208101935035915050640100000000811115610bef57600080fd5b820183602082011115610c0157600080fd5b80359060200191846001830284011164010000000083111715610c2357600080fd5b91908080601f016020809104026020016040519081016040528093929190818152602001838380828437600092019190915250929550612a40945050505050565b348015610c7057600080fd5b506101e360048036036020811015610c8757600080fd5b5035612fe2565b348015610c9a57600080fd5b5061069e60048036036020811015610cb157600080fd5b5035600160a060020a031661310a565b348015610ccd57600080fd5b50610cd661311d565b60408051600160a060020a039092168252519081900360200190f35b348015610cfe57600080fd5b506101e360048036036020811015610d1557600080fd5b5035600160a060020a031661312d565b348015610d3157600080fd5b5061069e61314a565b348015610d4657600080fd5b50610d6460048036036020811015610d5d57600080fd5b503561315b565b604051808a815260200189815260200188600160a060020a0316600160a060020a0316815260200187600160a060020a0316600160a060020a03168152602001868152602001856006811115610db657fe5b60ff168152600160a060020a0394851660208201529284166040808501919091529190931660608301525190819003608001975095505050505050f35b348015610dff57600080fd5b506101e360048036036020811015610e1657600080fd5b5035600160a060020a031661362f565b348015610e3257600080fd5b5061069e60048036036020811015610e4957600080fd5b5035600160a060020a031661364c565b6101e360048036036020811015610e6f57600080fd5b503561365e565b348015610e8257600080fd5b506101e3613879565b348015610e9757600080fd5b506101e360048036036020811015610eae57600080fd5b5035600160a060020a0316613882565b348015610eca57600080fd5b506101e360048036036020811015610ee157600080fd5b5035600160a060020a031661389f565b348015610efd57600080fd5b50610f1b60048036036020811015610f1457600080fd5b50356138bc565b60408051602080825283518183015283519192839290830191858101910280838360005b83811015610f57578181015183820152602001610f3f565b505050509050019250505060405180910390f35b348015610f7757600080fd5b50610f9560048036036020811015610f8e57600080fd5b5035613921565b604051808b81526020018a600160a060020a0316600160a060020a0316815260200189600160a060020a0316600160a060020a0316815260200180602001806020018060200180602001888152602001876004811115610ff157fe5b60ff1681526020018060200186810386528d818151815260200191508051906020019080838360005b8381101561103257818101518382015260200161101a565b50505050905090810190601f16801561105f5780820380516001836020036101000a031916815260200191505b5086810385528c5181528c516020918201918e019080838360005b8381101561109257818101518382015260200161107a565b50505050905090810190601f1680156110bf5780820380516001836020036101000a031916815260200191505b5086810384528b5181528b516020918201918d019080838360005b838110156110f25781810151838201526020016110da565b50505050905090810190601f16801561111f5780820380516001836020036101000a031916815260200191505b5086810383528a5181528a516020918201918c019080838360005b8381101561115257818101518382015260200161113a565b50505050905090810190601f16801561117f5780820380516001836020036101000a031916815260200191505b50868103825287518152875160209182019189019080838360005b838110156111b257818101518382015260200161119a565b50505050905090810190601f1680156111df5780820380516001836020036101000a031916815260200191505b509f5050505050505050505050505050505060405180910390f35b34801561120657600080fd5b506101e36004803603602081101561121d57600080fd5b5035600160a060020a0316613d03565b34801561123957600080fd5b5061069e6004803603602081101561125057600080fd5b5035600160a060020a0316613d1f565b34801561126c57600080fd5b506101e3613d32565b34801561128157600080fd5b506101e36004803603602081101561129857600080fd5b5035613d3b565b3480156112ab57600080fd5b506101e3613e47565b6112bd3361310a565b15156112c857600080fd5b8060056000828152600c60208190526040909120015460ff1660068111156112ec57fe5b14611341576040805160e560020a62461bcd02815260206004820152601460248201527f57696e65206973206e6f74207265636569766564000000000000000000000000604482015290519081900360640190fd5b6000828152600c60205260409020600a0154348111156113ab576040805160e560020a62461bcd02815260206004820152601160248201527f556e73756666696369656e742066756e64000000000000000000000000000000604482015290519081900360640190fd5b6000838152600c60208190526040808320918201805460ff19166006179055600282018054600a84015433600160a060020a031983161790925591518794600160a060020a039093169283916108fc84150291849190818181858888f1935050505015801561141e573d6000803e3d6000fd5b506040805188815290517f0513f8569d804d90dd149e0e50db1c075f672ccfbb4ccabe023ff332ffa2196c9181900360200190a15050506000818152600c6020526040808220600a810154600290910154915190923484900392600160a060020a03169183156108fc0291849190818181858888f193505050501580156114a9573d6000803e3d6000fd5b50505050505050565b6114bb33613e50565b565b6114c63361364c565b15156114d157600080fd5b6000828152600a6020526040902060010154600160a060020a03163381146114f857600080fd5b6000838152600a602090815260409182902060088101805460ff19166001179055600781018590558251868152925190927e3260cac5be8a3ee788081a5ebb9ddedc21351f222a74d9553c1482bb0c8d3492908290030190a150505050565b6115603361310a565b151561156b57600080fd5b61157481613e98565b50565b61158033613d1f565b151561158b57600080fd5b8160005b815181101561171a57600082828151811015156115a857fe5b60209081029091018101516000818152600a909252604090912060010154909150600160a060020a0316331461164e576040805160e560020a62461bcd02815260206004820152603560248201527f50726f647563657220646f6573206e6f74206f776e207468652067726170657360448201527f20666f72206d616b696e6720746869732077696e650000000000000000000000606482015290519081900360840190fd5b60046000828152600a602052604090206008015460ff16600481111561167057fe5b14611711576040805160e560020a62461bcd02815260206004820152604260248201527f50726f647563657220646964206e6f742079657420726563656976656420616c60448201527f6c2074686520677261706573206e656564656420666f7220746869732077696e60648201527f652e000000000000000000000000000000000000000000000000000000000000608482015290519081900360a40190fd5b5060010161158f565b50600754611726614262565b6000828152600c60209081526040918290208251610220810184528154815260018083015482850152600280840154600160a060020a0390811684880152600385015416606084015260048401805487516101009482161594909402600019011691909104601f8101869004860283018601909652858252919492936080860193919291908301828280156117fc5780601f106117d1576101008083540402835291602001916117fc565b820191906000526020600020905b8154815290600101906020018083116117df57829003601f168201915b505050918352505060058201805460408051602060026001851615610100026000190190941693909304601f81018490048402820184019092528181529382019392918301828280156118905780601f1061186557610100808354040283529160200191611890565b820191906000526020600020905b81548152906001019060200180831161187357829003601f168201915b505050918352505060068201805460408051602060026001851615610100026000190190941693909304601f81018490048402820184019092528181529382019392918301828280156119245780601f106118f957610100808354040283529160200191611924565b820191906000526020600020905b81548152906001019060200180831161190757829003601f168201915b505050918352505060078201805460408051602060026001851615610100026000190190941693909304601f81018490048402820184019092528181529382019392918301828280156119b85780601f1061198d576101008083540402835291602001916119b8565b820191906000526020600020905b81548152906001019060200180831161199b57829003601f168201915b5050509183525050600882015460208083019190915260098301805460408051601f60026000196101006001871615020190941693909304928301859004850281018501825282815294019392830182828015611a565780601f10611a2b57610100808354040283529160200191611a56565b820191906000526020600020905b815481529060010190602001808311611a3957829003601f168201915b50505050508152602001600a8201548152602001600b8201805480602002602001604051908101604052809291908181526020018280548015611ab857602002820191906000526020600020905b815481526020019060010190808311611aa4575b5050509183525050600c82015460209091019060ff166006811115611ad957fe5b6006811115611ae457fe5b8152600c8201546101009004600160a060020a039081166020830152600d83015481166040830152600e9092015491821660608201527401000000000000000000000000000000000000000090910460ff16151560809091015261020081015190915015611b9c576040805160e560020a62461bcd02815260206004820152601860248201527f57696e652075706320616c7265616479206578697374732e0000000000000000604482015290519081900360640190fd5b600060075460085401905060006007549050610220604051908101604052806008548152602001600754815260200133600160a060020a0316815260200133600160a060020a031681526020018d81526020018c81526020018b81526020018a815260200183815260200189815260200160008152602001888152602001876006811115611c2657fe5b8152600060208083018290526040808401839052606080850184905260016080958601819052878552600c84529382902086518155868401519481019490945590850151600284018054600160a060020a0319908116600160a060020a03938416179091559186015160038501805490931691161790559183015180519192611cb792600485019290910190614304565b5060a08201518051611cd3916005840191602090910190614304565b5060c08201518051611cef916006840191602090910190614304565b5060e08201518051611d0b916007840191602090910190614304565b5061010082015160088201556101208201518051611d33916009840191602090910190614304565b50610140820151600a8201556101608201518051611d5b91600b840191602090910190614382565b50610180820151600c8201805460ff19166001836006811115611d7a57fe5b02179055506101a0820151600c82018054600160a060020a039283166101000274ffffffffffffffffffffffffffffffffffffffff00199091161790556101c0830151600d83018054918316600160a060020a03199283161790556101e0840151600e9093018054610200909501511515740100000000000000000000000000000000000000000274ff000000000000000000000000000000000000000019949093169490911693909317919091161790556007805460019081019091556008805490910190556040805182815290517f83e1ab300d19168d03dcd993384c2d69adc560b1021bb4c18a68bf40cde1f4d79181900360200190a1505050505050505050505050565b611e8b33613d1f565b1515611e9657600080fd5b8060036000828152600c60208190526040909120015460ff166006811115611eba57fe5b14611f0f576040805160e560020a62461bcd02815260206004820152601060248201527f57696e65206973206e6f7420736f6c6400000000000000000000000000000000604482015290519081900360640190fd5b6000828152600c6020526040902060030154600160a060020a0316338114611f3657600080fd5b6000838152600c6020818152604092839020918201805460ff191660041790558251868152925191927fc45d1150d9c75df34f991dd286a910d790ce07ba5af619b7f7d37139c3c2cafc929081900390910190a150505050565b611f99336123c0565b1515611fa457600080fd5b8160046000828152600c60208190526040909120015460ff166006811115611fc857fe5b1461201d576040805160e560020a62461bcd02815260206004820152601360248201527f57696e65206973206e6f74207368697070656400000000000000000000000000604482015290519081900360640190fd5b6000838152600c6020819052604090912090810180546005919060ff19166001830217905550600281018054600160a060020a03191633179055600a81018390556040805185815290517f14b6cc590b47a9656821bdb6db91b9e1537ca4d36ff65f265a661c8e13bfd0989181900360200190a150505050565b61209f61314a565b15156120aa57600080fd5b600654600160a060020a0316ff5b6120c133613d1f565b15156120cc57600080fd5b8060036000828152600a602052604090206008015460ff1660048111156120ef57fe5b14612144576040805160e560020a62461bcd02815260206004820152601460248201527f4772617065206973206e6f742073686970706564000000000000000000000000604482015290519081900360640190fd5b6000828152600a6020526040902060010154600160a060020a031633811461216b57600080fd5b6000838152600a602090815260409182902060088101805460ff191660041790558251868152925190927fa4ebe2faef1a8e12d4ae5cc1d71ce997889854e26a0cbf25aa01f719e95276d192908290030190a150505050565b6121cd33613d1f565b15156121d857600080fd5b8060016000828152600a602052604090206008015460ff1660048111156121fb57fe5b14612250576040805160e560020a62461bcd02815260206004820152601560248201527f4772617065206973206e6f7420666f722073616c650000000000000000000000604482015290519081900360640190fd5b6000828152600a6020526040902060070154348111156122ba576040805160e560020a62461bcd02815260206004820152601160248201527f556e73756666696369656e742066756e64000000000000000000000000000000604482015290519081900360640190fd5b6000838152600a6020526040902060088101805485929160029160ff191660018302179055506007810154600182018054600160a060020a031916331790556002820154604051600160a060020a03919091169082156108fc029083906000818181858888f19350505050158015612336573d6000803e3d6000fd5b506040805187815290517fdbcd9442ea51662810e0fc9e143a1cee86d83e1010e20963373aa6bf17ba439d9181900360200190a150506000818152600a60205260408082206007810154600190910154915190923484900392600160a060020a03169183156108fc0291849190818181858888f193505050501580156114a9573d6000803e3d6000fd5b60006123d360038363ffffffff613ee016565b92915050565b6000806060806060806000606060006123f0614262565b60008b8152600c60209081526040918290208251610220810184528154815260018083015482850152600280840154600160a060020a0390811684880152600385015416606084015260048401805487516101009482161594909402600019011691909104601f8101869004860283018601909652858252919492936080860193919291908301828280156124c65780601f1061249b576101008083540402835291602001916124c6565b820191906000526020600020905b8154815290600101906020018083116124a957829003601f168201915b505050918352505060058201805460408051602060026001851615610100026000190190941693909304601f810184900484028201840190925281815293820193929183018282801561255a5780601f1061252f5761010080835404028352916020019161255a565b820191906000526020600020905b81548152906001019060200180831161253d57829003601f168201915b505050918352505060068201805460408051602060026001851615610100026000190190941693909304601f81018490048402820184019092528181529382019392918301828280156125ee5780601f106125c3576101008083540402835291602001916125ee565b820191906000526020600020905b8154815290600101906020018083116125d157829003601f168201915b505050918352505060078201805460408051602060026001851615610100026000190190941693909304601f81018490048402820184019092528181529382019392918301828280156126825780601f1061265757610100808354040283529160200191612682565b820191906000526020600020905b81548152906001019060200180831161266557829003601f168201915b5050509183525050600882015460208083019190915260098301805460408051601f600260001961010060018716150201909416939093049283018590048502810185018252828152940193928301828280156127205780601f106126f557610100808354040283529160200191612720565b820191906000526020600020905b81548152906001019060200180831161270357829003601f168201915b50505050508152602001600a8201548152602001600b820180548060200260200160405190810160405280929190818152602001828054801561278257602002820191906000526020600020905b81548152602001906001019080831161276e575b5050509183525050600c82015460209091019060ff1660068111156127a357fe5b60068111156127ae57fe5b8152602001600c820160019054906101000a9004600160a060020a0316600160a060020a0316600160a060020a03168152602001600d820160009054906101000a9004600160a060020a0316600160a060020a0316600160a060020a03168152602001600e820160009054906101000a9004600160a060020a0316600160a060020a0316600160a060020a03168152602001600e820160149054906101000a900460ff16151515158152505090508060000151995080602001519850806080015197508060a0015196508060c0015195508060e001519450806101000151935080610120015192508061014001519150509193959799909294969850565b6128b533613d1f565b15156128c057600080fd5b8160016000828152600c60208190526040909120015460ff1660068111156128e457fe5b14612939576040805160e560020a62461bcd02815260206004820152601660248201527f57696e65206973206e6f7420796574207061636b656400000000000000000000604482015290519081900360640190fd5b6000838152600c6020526040902060020154600160a060020a031633811461296057600080fd5b6000848152600c6020818152604092839020918201805460ff19166002179055600a820186905560018201548351908152925191927fa97ba00ead9a7c7102566aab6635515af6ade3035fee035f2e91f51daf034236929081900390910190a15050505050565b6114bb33613f17565b60006123d360028363ffffffff613ee016565b6129eb61314a565b15156129f657600080fd5b600554604051600091600160a060020a0316907f5c486528ec3e3f0ea91181cff8116f02bfa350e03b8b6f12e00765adbb5af85c908390a360058054600160a060020a0319169055565b612a493361364c565b1515612a5457600080fd5b600954612a5f6143bc565b6000828152600a602090815260409182902082516101608101845281548152600180830154600160a060020a03908116838601526002808501549091168387015260038401805487516101009482161594909402600019011691909104601f810186900486028301860190965285825291949293606086019391929190830182828015612b2d5780601f10612b0257610100808354040283529160200191612b2d565b820191906000526020600020905b815481529060010190602001808311612b1057829003601f168201915b505050918352505060048201805460408051602060026001851615610100026000190190941693909304601f8101849004840282018401909252818152938201939291830182828015612bc15780601f10612b9657610100808354040283529160200191612bc1565b820191906000526020600020905b815481529060010190602001808311612ba457829003601f168201915b505050918352505060058201805460408051602060026001851615610100026000190190941693909304601f8101849004840282018401909252818152938201939291830182828015612c555780601f10612c2a57610100808354040283529160200191612c55565b820191906000526020600020905b815481529060010190602001808311612c3857829003601f168201915b505050918352505060068201805460408051602060026001851615610100026000190190941693909304601f8101849004840282018401909252818152938201939291830182828015612ce95780601f10612cbe57610100808354040283529160200191612ce9565b820191906000526020600020905b815481529060010190602001808311612ccc57829003601f168201915b505050918352505060078201546020820152600882015460409091019060ff166004811115612d1457fe5b6004811115612d1f57fe5b815260098201805460408051602060026001851615610100026000190190941693909304601f8101849004840282018401909252818152938201939291830182828015612dad5780601f10612d8257610100808354040283529160200191612dad565b820191906000526020600020905b815481529060010190602001808311612d9057829003601f168201915b5050509183525050600a919091015460ff16151560209091015261014081015190915015612e25576040805160e560020a62461bcd02815260206004820152601860248201527f477261706520494420616c7265616479206578697374732e0000000000000000604482015290519081900360640190fd5b6009546040805161016081018252828152336020808301828152838501928352606084018d8152608085018d905260a085018c905260c085018b9052600060e08601819052610100860181905261012086018b905260016101408701819052888252600a85529690208551815591519582018054600160a060020a0319908116600160a060020a039889161790915593516002830180549095169616959095179092559251805192939192612ee09260038501920190614304565b5060808201518051612efc916004840191602090910190614304565b5060a08201518051612f18916005840191602090910190614304565b5060c08201518051612f34916006840191602090910190614304565b5060e0820151600782015561010082015160088201805460ff19166001836004811115612f5d57fe5b02179055506101208201518051612f7e916009840191602090910190614304565b506101409190910151600a909101805460ff19169115159190911790556009805460010190556040805182815290517fe98cb48b7c65f60e2a8d0b20a8dbaac7cc3c2c897044fe92d5f5d3f97382ca75916020908290030190a15050505050505050565b612feb33613d1f565b1515612ff657600080fd5b80600080828152600c60208190526040909120015460ff16600681111561301957fe5b1461306e576040805160e560020a62461bcd02815260206004820152601860248201527f57696e65206973206e6f74207965742070726f64756365640000000000000000604482015290519081900360640190fd5b6000828152600c6020526040902060020154600160a060020a031633811461309557600080fd5b6000838152600c602052604090206003810154600160a060020a031633146130bc57600080fd5b600c8101805460ff1916600190811790915581015460408051918252517f0869ab0322800b441c2ace7097217dfee49f6c8129437dd36e5e4146e0e69928916020908290030190a150505050565b60006123d360048363ffffffff613ee016565b600554600160a060020a03165b90565b613136336123c0565b151561314157600080fd5b61157481613f5f565b600554600160a060020a0316331490565b6000806000806000806000806000613171614262565b60008b8152600c60209081526040918290208251610220810184528154815260018083015482850152600280840154600160a060020a0390811684880152600385015416606084015260048401805487516101009482161594909402600019011691909104601f8101869004860283018601909652858252919492936080860193919291908301828280156132475780601f1061321c57610100808354040283529160200191613247565b820191906000526020600020905b81548152906001019060200180831161322a57829003601f168201915b505050918352505060058201805460408051602060026001851615610100026000190190941693909304601f81018490048402820184019092528181529382019392918301828280156132db5780601f106132b0576101008083540402835291602001916132db565b820191906000526020600020905b8154815290600101906020018083116132be57829003601f168201915b505050918352505060068201805460408051602060026001851615610100026000190190941693909304601f810184900484028201840190925281815293820193929183018282801561336f5780601f106133445761010080835404028352916020019161336f565b820191906000526020600020905b81548152906001019060200180831161335257829003601f168201915b505050918352505060078201805460408051602060026001851615610100026000190190941693909304601f81018490048402820184019092528181529382019392918301828280156134035780601f106133d857610100808354040283529160200191613403565b820191906000526020600020905b8154815290600101906020018083116133e657829003601f168201915b5050509183525050600882015460208083019190915260098301805460408051601f600260001961010060018716150201909416939093049283018590048502810185018252828152940193928301828280156134a15780601f10613476576101008083540402835291602001916134a1565b820191906000526020600020905b81548152906001019060200180831161348457829003601f168201915b50505050508152602001600a8201548152602001600b820180548060200260200160405190810160405280929190818152602001828054801561350357602002820191906000526020600020905b8154815260200190600101908083116134ef575b5050509183525050600c82015460209091019060ff16600681111561352457fe5b600681111561352f57fe5b8152602001600c820160019054906101000a9004600160a060020a0316600160a060020a0316600160a060020a03168152602001600d820160009054906101000a9004600160a060020a0316600160a060020a0316600160a060020a03168152602001600e820160009054906101000a9004600160a060020a0316600160a060020a0316600160a060020a03168152602001600e820160149054906101000a900460ff16151515158152505090508060000151995080602001519850806040015197508060600151965080610140015195508061018001519450806101a001519350806101c001519250806101e001519150509193959799909294969850565b6136383361364c565b151561364357600080fd5b61157481613fa7565b60006123d3818363ffffffff613ee016565b613667336129d0565b151561367257600080fd5b8060026000828152600c60208190526040909120015460ff16600681111561369657fe5b146136eb576040805160e560020a62461bcd02815260206004820152601460248201527f57696e65206973206e6f7420666f722073616c65000000000000000000000000604482015290519081900360640190fd5b6000828152600c60205260409020600a015434811115613755576040805160e560020a62461bcd02815260206004820152601160248201527f556e73756666696369656e742066756e64000000000000000000000000000000604482015290519081900360640190fd5b6000838152600c602081905260408083209182018054600a84015460ff196101003390810274ffffffffffffffffffffffffffffffffffffffff00199094169390931716600317909255600284018054600160a060020a031981169092179055915187949192600160a060020a03169182916108fc85150291859190818181858888f193505050501580156137ee573d6000803e3d6000fd5b506040805188815290517fc4e50a10ecdbba8d26cab330220ec6f89afc954c92251c4e529542119b85c0849181900360200190a15050506000818152600c6020526040808220600a810154600290910154915190923484900392600160a060020a03169183156108fc0291849190818181858888f193505050501580156114a9573d6000803e3d6000fd5b6114bb33613fef565b61388b33613d1f565b151561389657600080fd5b61157481614037565b6138a8336129d0565b15156138b357600080fd5b6115748161407f565b6000818152600c6020908152604091829020600b0180548351818402810184019094528084526060939283018282801561391557602002820191906000526020600020905b815481526020019060010190808311613901575b50505050509050919050565b600080600060608060608060008060606139396143bc565b60008c8152600a602090815260409182902082516101608101845281548152600180830154600160a060020a03908116838601526002808501549091168387015260038401805487516101009482161594909402600019011691909104601f810186900486028301860190965285825291949293606086019391929190830182828015613a075780601f106139dc57610100808354040283529160200191613a07565b820191906000526020600020905b8154815290600101906020018083116139ea57829003601f168201915b505050918352505060048201805460408051602060026001851615610100026000190190941693909304601f8101849004840282018401909252818152938201939291830182828015613a9b5780601f10613a7057610100808354040283529160200191613a9b565b820191906000526020600020905b815481529060010190602001808311613a7e57829003601f168201915b505050918352505060058201805460408051602060026001851615610100026000190190941693909304601f8101849004840282018401909252818152938201939291830182828015613b2f5780601f10613b0457610100808354040283529160200191613b2f565b820191906000526020600020905b815481529060010190602001808311613b1257829003601f168201915b505050918352505060068201805460408051602060026001851615610100026000190190941693909304601f8101849004840282018401909252818152938201939291830182828015613bc35780601f10613b9857610100808354040283529160200191613bc3565b820191906000526020600020905b815481529060010190602001808311613ba657829003601f168201915b505050918352505060078201546020820152600882015460409091019060ff166004811115613bee57fe5b6004811115613bf957fe5b815260098201805460408051602060026001851615610100026000190190941693909304601f8101849004840282018401909252818152938201939291830182828015613c875780601f10613c5c57610100808354040283529160200191613c87565b820191906000526020600020905b815481529060010190602001808311613c6a57829003601f168201915b50505050508152602001600a820160009054906101000a900460ff161515151581525050905080600001519a50806020015199508060400151985080606001519750806080015196508060a0015195508060c0015194508060e00151935080610100015192508061012001519150509193959799509193959799565b613d0b61314a565b1515613d1657600080fd5b611574816140c7565b60006123d360018363ffffffff613ee016565b6114bb33614138565b613d443361364c565b1515613d4f57600080fd5b8060026000828152600a602052604090206008015460ff166004811115613d7257fe5b14613dc7576040805160e560020a62461bcd02815260206004820152601160248201527f4772617065206973206e6f7420736f6c64000000000000000000000000000000604482015290519081900360640190fd5b6000828152600a6020526040902060020154600160a060020a0316338114613dee57600080fd5b6000838152600a602090815260409182902060088101805460ff191660031790558251868152925190927fb4f140a99563fe049d6206aa111e9592995d91e14529b45430d6c3b0dcf4997592908290030190a150505050565b6114bb33614180565b613e6160008263ffffffff6141c816565b604051600160a060020a038216907f686dbfa27271f8cf2fe2e5eaeaf43f15d839d20c7e162ca3aee8362b6c6a861b90600090a250565b613ea960048263ffffffff61421416565b604051600160a060020a038216907f28b26e7a3d20aedbc5f8f2ebf7da671c0491723a2b78f47a097b0e46dee0714290600090a250565b6000600160a060020a0382161515613ef757600080fd5b50600160a060020a03166000908152602091909152604090205460ff1690565b613f2860048263ffffffff6141c816565b604051600160a060020a038216907fe3f5ed5f263f1f01764a96edfc7d025f511ec5f7d180e8816908b78bcf74f09890600090a250565b613f7060038263ffffffff61421416565b604051600160a060020a038216907f71ae26cad02663e3d92efd6ec56031a80d74a20c0ab4183faa8bf262261c9baa90600090a250565b613fb860008263ffffffff61421416565b604051600160a060020a038216907f423fd8158a2c5772d65f93f5aa158245f414b4da880b0d6d2a3361a3915ad3ae90600090a250565b61400060038263ffffffff6141c816565b604051600160a060020a038216907fdb7176e79cffef81cb01767dd0447a0b24bb72ca9778d4b245581086b2a7e6db90600090a250565b61404860018263ffffffff61421416565b604051600160a060020a038216907f2977383b0207d39ef14220620b6cf3e6c9b6e78592af90baeef6614ed2fcd2c690600090a250565b61409060028263ffffffff61421416565b604051600160a060020a038216907fd8a7ad7929975a375d2b12bf49040286b5b105df0fe351f10df6d85e5b7142f790600090a250565b600160a060020a03811615156140dc57600080fd5b600554604051600160a060020a038084169216907f5c486528ec3e3f0ea91181cff8116f02bfa350e03b8b6f12e00765adbb5af85c90600090a360058054600160a060020a031916600160a060020a0392909216919091179055565b61414960018263ffffffff6141c816565b604051600160a060020a038216907fb78e9906c5bae930ccf756a5214c9855b1782f0eb30f9566de2384f034af48f390600090a250565b61419160028263ffffffff6141c816565b604051600160a060020a038216907f7f865f710a7604537eb2bc0334f082fa642d210a705398937f53663384485b2890600090a250565b600160a060020a03811615156141dd57600080fd5b6141e78282613ee0565b15156141f257600080fd5b600160a060020a0316600090815260209190915260409020805460ff19169055565b600160a060020a038116151561422957600080fd5b6142338282613ee0565b1561423d57600080fd5b600160a060020a0316600090815260209190915260409020805460ff19166001179055565b6102206040519081016040528060008152602001600081526020016000600160a060020a031681526020016000600160a060020a031681526020016060815260200160608152602001606081526020016060815260200160008152602001606081526020016000815260200160608152602001600060068111156142e257fe5b8152600060208201819052604082018190526060820181905260809091015290565b828054600181600116156101000203166002900490600052602060002090601f016020900481019282601f1061434557805160ff1916838001178555614372565b82800160010185558215614372579182015b82811115614372578251825591602001919060010190614357565b5061437e929150614434565b5090565b8280548282559060005260206000209081019282156143725791602002820182811115614372578251825591602001919060010190614357565b61016060405190810160405280600081526020016000600160a060020a031681526020016000600160a060020a0316815260200160608152602001606081526020016060815260200160608152602001600081526020016000600481111561442057fe5b815260606020820152600060409091015290565b61312a91905b8082111561437e576000815560010161443a56fea165627a7a7230582046cf6b309df4f1eb783f6b77dc438ebee34884c0f79f47dedbebcb511d7f95d20029",
  "source": "pragma solidity = 0.5.0;\nimport \"../wineaccesscontrol/GrowerRole.sol\";\nimport \"../wineaccesscontrol/ProducerRole.sol\";\nimport \"../wineaccesscontrol/WholesalerRole.sol\";\nimport \"../wineaccesscontrol/RetailerRole.sol\";\nimport \"../wineaccesscontrol/ConsumerRole.sol\";\nimport \"../winecore/Ownable.sol\";\n\ncontract SupplyChain is\n    GrowerRole,\n    ProducerRole,\n    WholeSalerRole,\n    RetailerRole,\n    ConsumerRole,\n    Ownable\n{\n\n    // Define 'owner'\n    address payable payableOwner;\n\n    // Define a variable called 'upc' for Universal Product Code (UPC)\n    uint  upc;\n\n    // Define a variable called 'sku' for Stock Keeping Unit (SKU)\n    uint  sku;\n\n    // Define a variable called 'grapeID' for indentifying grapes.\n    // The Wine Supply Chain Traceability GS1 Application Guideline\n    // does not recommend the use of GTIN (Global Trade Item Number)\n    // for the grapes as it is not yet a branded product\n    // but we still need a way to uniquely identify the grapes.\n    uint  grapeID;\n\n    // Define a public mapping 'grapes' that maps the grapeID to a wine.\n    mapping (uint => Grape) grapes;\n\n    // Define a public mapping 'itemsHistory' that maps the grapeID to an array of TxHash,\n    // that track its journey through the supply chain -- to be sent from DApp.\n    mapping (uint => string[]) grapesHistory;\n\n    // Define a public mapping 'items' that maps the UPC to a wine.\n    mapping (uint => Wine) items;\n\n    // Define a public mapping 'itemsHistory' that maps the UPC to an array of TxHash,\n    // that track its journey through the supply chain -- to be sent from DApp.\n    mapping (uint => string[]) itemsHistory;\n\n    // Define enum 'GrapeState' with the following values:\n    enum GrapeState\n    {\n        Harvested,  // 0\n        ForSale,    // 1\n        Sold,       // 2\n        Shipped,    // 3\n        Received    // 4\n    }\n\n    // Define enum 'WineState' with the following values:\n    enum WineState\n    {\n        Produced,  // 0\n        Packed,    // 1\n        ForSale,   // 2\n        Sold,      // 3\n        Shipped,   // 4\n        Received,  // 5\n        Purchased   // 6\n    }\n\n    //TODO: set default states for grapes and items\n\n    // Define a struct for grapes\n    struct Grape {\n        uint grapeId; // unique ID of grapes\n        address payable ownerID;  // Metamask-Ethereum address of the current owner as the product moves through different stages\n        address payable growerID; // Metamask-Ethereum address of the Grower\n        string  growerName; // Grower Name\n        string  growerInformation;  // Grower Information\n        string  growerLatitude; // Grower plot Latitude\n        string  growerLongitude;  // Grower plot Longitude\n        uint    grapePrice; // Product Price\n        GrapeState   grapeState;  // Grape State as represented in the enum above\n        string  grapeVariety; // grape variety\n        bool exist;\n    }\n\n    // Define a struct 'Item' with the following fields:\n    struct Wine {\n        uint    sku;  // Stock Keeping Unit (SKU)\n        uint    upc; // Universal Product Code (UPC), generated by the Producer, goes on the package, can be verified by the Consumer\n        address payable ownerID;  // Metamask-Ethereum address of the current owner as the product moves through different stages\n        address payable producerID; // Metamask-Ethereum address of the Producer\n        string  producerName; // Producer Name\n        string  producerInformation;  // Producer Information\n        string  producerLatitude; // Producer Latitude\n        string  producerLongitude;  // Producer Longitude\n        uint    productID;  // Product ID potentially a combination of upc + sku\n        string  productNotes; // Product Notes\n        uint    productPrice; // Product Price\n        uint[] grapesIDs; // Array of grapes IDs\n        WineState   wineState;  // Product State as represented in the enum above\n        address payable wholesalerID;  // Metamask-Ethereum address of the Wholesaler\n        address payable retailerID; // Metamask-Ethereum address of the Retailer\n        address payable consumerID; // Metamask-Ethereum address of the Consumer\n        bool exist; // use to see entry already exists in mapping\n    }\n\n    // Define events for grapes\n    event GrapeHarvested(uint grapeId);\n    event GrapeForSale(uint grapeId);\n    event GrapeSold(uint grapeId);\n    event GrapeShipped(uint grapeId);\n    event GrapeReceived(uint grapeId);\n    // Define events for wine\n    event WineProduced(uint upc);\n    event WinePacked(uint upc);\n    event WineForSale(uint upc);\n    event WineSold(uint upc);\n    event WineShipped(uint upc);\n    event WineReceived(uint upc);\n    event WinePurchased(uint upc);\n\n    // Define a modifer that verifies the Caller\n    modifier verifyCaller (address _address) {\n        require(msg.sender == _address);\n        _;\n    }\n\n    // Define a modifier that checks if the paid amount is sufficient to cover the price\n    modifier paidEnough(uint _price) {\n        require(msg.value >= _price,\n            \"Unsufficient fund\");\n        _;\n    }\n\n    modifier checkGrapeValue(uint _grapeID) {\n        _;\n        uint _price = grapes[_grapeID].grapePrice;\n        uint amountToReturn = msg.value - _price;\n        grapes[_grapeID].ownerID.transfer(amountToReturn);\n    }\n\n    // Define a modifier that checks the price and refunds the remaining balance\n    modifier checkValue(uint _upc) {\n        _;\n        uint _price = items[_upc].productPrice;\n        uint amountToReturn = msg.value - _price;\n        items[_upc].ownerID.transfer(amountToReturn);\n    }\n\n\n    // Define a modifier that check if grape already exists.\n    modifier grapeAlreadyExists(uint _grapeID) {\n        Grape memory _grape = grapes[_grapeID];\n        require(!_grape.exist, \"Grape ID already exists.\");\n        _;\n    }\n\n    // Define a modifier that checks if an grapes.grapeState of a grapeID is Harvested\n    modifier grapeHarvested(uint _grapeId) {\n        require(grapes[_grapeId].grapeState == GrapeState.Harvested,\n            \"Grape is not yet harvested\");\n        _;\n    }\n\n    // Define a modifier that checks if an item.grapeState of a upc is ForSale\n    modifier grapeForSale(uint _grapeId) {\n        require(grapes[_grapeId].grapeState == GrapeState.ForSale,\n            \"Grape is not for sale\");\n        _;\n    }\n\n    // Define a modifier that checks if an item.grapeState of a upc is Sold\n    modifier grapeSold(uint _grapeId) {\n        require(grapes[_grapeId].grapeState == GrapeState.Sold,\n            \"Grape is not sold\");\n        _;\n    }\n\n    // Define a modifier that checks if an item.grapeState of a upc is Shipped\n    modifier grapeShipped(uint _grapeId) {\n        require(grapes[_grapeId].grapeState == GrapeState.Shipped,\n            \"Grape is not shipped\");\n        _;\n    }\n\n    // Define a modifier that checks if an grape.grapeState of a grapeID is Received\n    modifier grapeReceived(uint _grapeId) {\n        require(grapes[_grapeId].grapeState == GrapeState.Received,\n        \"The grapes have not been received yet\");\n        _;\n    }\n\n    // Define a modifier that check if grape already exists in items.\n    modifier wineAlreadyExists(uint _upc) {\n        Wine memory _wine = items[_upc];\n        require(!_wine.exist, \"Wine upc already exists.\");\n        _;\n    }\n\n    // Define a modifier that check if the producer owns the grapes used for making wine\n    modifier wineProducerHasAndOwnsGrapes(uint[] memory _grapesID) {\n        for (uint i=0; i<_grapesID.length; i++) {\n            uint _grapeID = _grapesID[i];\n            require(grapes[_grapeID].ownerID == msg.sender,\n                \"Producer does not own the grapes for making this wine\");\n            require(grapes[_grapeID].grapeState == GrapeState.Received,\n                \"Producer did not yet received all the grapes needed for this wine.\");\n        }\n        _;\n    }\n\n    // Define a modifier that checks if an item.wineState of a upc is Produced\n    modifier wineProduced(uint _upc) {\n        require(items[_upc].wineState == WineState.Produced,\n            \"Wine is not yet produced\");\n        _;\n    }\n\n    // Define a modifier that checks if an item.wineState of a upc is Packed\n    modifier winePacked(uint _upc) {\n        require(items[_upc].wineState == WineState.Packed,\n            \"Wine is not yet packed\");\n        _;\n    }\n\n    // Define a modifier that checks if an item.wineState of a upc is ForSale\n    modifier wineForSale(uint _upc) {\n        require(items[_upc].wineState == WineState.ForSale,\n            \"Wine is not for sale\");\n        _;\n    }\n\n    // Define a modifier that checks if an item.wineState of a upc is Sold\n    modifier wineSold(uint _upc) {\n        require(items[_upc].wineState == WineState.Sold,\n            \"Wine is not sold\");\n        _;\n    }\n\n    // Define a modifier that checks if an item.wineState of a upc is Shipped\n    modifier wineShipped(uint _upc) {\n        require(items[_upc].wineState == WineState.Shipped,\n            \"Wine is not shipped\");\n        _;\n    }\n\n    // Define a modifier that checks if an item.wineState of a upc is Shipped\n    modifier wineReceived(uint _upc) {\n        require(items[_upc].wineState == WineState.Received,\n            \"Wine is not received\");\n        _;\n    }\n\n    // Define a modifier that checks if an item.wineState of a upc is Purchased\n    modifier winePurchased(uint _upc) {\n        require(items[_upc].wineState == WineState.Purchased,\n            \"Wine is not purchased\");\n        _;\n    }\n\n    // In the constructor set 'owner' to the address that instantiated the contract\n    // and set 'sku' to 1\n    // and set 'upc' to 1\n    // grapeID to 1\n    // the identifier are simplified here\n    // as we should also use the client company prefix for generating UPC\n    constructor() public payable {\n        payableOwner = msg.sender;\n        sku = 1;\n        upc = 1; // for simpicity we'll use this\n        // GS1 guidelines said that UPC\n        // applies to branded products only\n        // so we use a simple ID\n        grapeID = 1;\n    }\n\n    // Define a function 'kill' if required\n    // Either set a new address payable in constructor\n    // or cast to payable address the owner()\n    function kill() public onlyOwner {\n        //address payable owng = address(uint160(owner()));\n        selfdestruct(payableOwner);\n        /*if (msg.sender == owner()) {\n            selfdestruct(payableOwner);\n        }*/\n    }\n\n    /////////////////////////\n    /// GRAPES OPERATIONS ///\n    /////////////////////////\n\n    // Define a function 'harvestGrape' that allows a grower to mark grapes 'Harvested'\n    function harvestGrapes(\n        string memory _growerName,\n        string memory _growerInformation,\n        string memory _growerLatitude,\n        string memory _growerLongitude,\n        string memory _grapeVariery)\n    public\n    onlyGrower\n    grapeAlreadyExists(grapeID)\n    {\n        // Add the new grapes\n        uint _grapeID = grapeID;\n        grapes[_grapeID] = Grape(\n            grapeID,\n            msg.sender,\n            msg.sender,\n            _growerName,\n            _growerInformation,\n            _growerLatitude,\n            _growerLongitude,\n            0,\n            GrapeState.Harvested,\n            _grapeVariery,\n            true\n        );\n        // Increment grapeID\n        grapeID = grapeID + 1;\n        // Emit the appropriate event\n        emit GrapeHarvested(_grapeID);\n    }\n\n    // Let a grower that owns havested grapes to put them for sale\n    function addGrapesForSale(uint _grapeID, uint _grapePrice)\n    public\n    onlyGrower\n    verifyCaller(grapes[_grapeID].ownerID)\n    {\n        Grape storage grape = grapes[_grapeID];\n        grape.grapeState = GrapeState.ForSale;\n        grape.grapePrice = _grapePrice;\n        emit GrapeForSale(_grapeID);\n    }\n\n    function buyGrapes(uint _grapeID)\n    public\n    payable\n    onlyProducer\n    grapeForSale(_grapeID)\n    paidEnough(grapes[_grapeID].grapePrice)\n    checkGrapeValue(_grapeID)\n    {\n        Grape storage grape = grapes[_grapeID];\n        grape.grapeState = GrapeState.Sold;\n        uint _grapePrice = grape.grapePrice;\n        grape.ownerID = msg.sender;\n        grape.growerID.transfer(_grapePrice);\n        emit GrapeSold(_grapeID);\n    }\n\n    function shipGrapes(uint _grapeID)\n    public\n    onlyGrower\n    grapeSold(_grapeID)\n    verifyCaller(grapes[_grapeID].growerID)\n    {\n        Grape storage grape = grapes[_grapeID];\n        grape.grapeState = GrapeState.Shipped;\n        emit GrapeShipped(_grapeID);\n    }\n\n    function receiveGrapes(uint _grapeID)\n    public\n    onlyProducer\n    grapeShipped(_grapeID)\n    verifyCaller(grapes[_grapeID].ownerID)\n    {\n        Grape storage grape = grapes[_grapeID];\n        grape.grapeState = GrapeState.Received;\n        emit GrapeReceived(_grapeID);\n    }\n\n    function fetchGrape(uint _grapeID) public view returns (\n        uint grapeGrapeID,\n        address payable ownerID,\n        address payable growerID,\n        string memory growerName,\n        string memory growerInformation,\n        string memory growerLatitude,\n        string memory growerLongitude,\n        uint grapePrice,\n        GrapeState grapeState,\n        string memory grapeVariety\n    ) {\n        Grape memory grape = grapes[_grapeID];\n        grapeGrapeID = grape.grapeId;\n        ownerID = grape.ownerID;\n        growerID = grape.growerID;\n        growerName = grape.growerName;\n        growerInformation = grape.growerInformation;\n        growerLatitude = grape.growerLatitude;\n        growerLongitude = grape.growerLongitude;\n        grapePrice = grape.grapePrice;\n        grapeState = grape.grapeState;\n        grapeVariety = grape.grapeVariety;\n    }\n\n    ///////////////////////\n    /// WINE OPERATIONS ///\n    //////////////////////\n    function produceWine(\n        string memory _producerName,\n        string memory _producerInformation,\n        string memory _producerLatitude,\n        string memory _producerLongitude,\n        string memory _productNotes,\n        uint[] memory _grapesIDs,\n        WineState _wineState\n    )\n    public\n    onlyProducer\n    wineProducerHasAndOwnsGrapes(_grapesIDs)\n    wineAlreadyExists(upc)\n    {\n        uint _productID = sku + upc;\n        uint _upc = upc;\n        items[_upc] = Wine(\n            sku,\n            upc,\n            msg.sender,\n            msg.sender,\n            _producerName,\n            _producerInformation,\n            _producerLatitude,\n            _producerLongitude,\n            _productID,\n            _productNotes,\n            0,\n            _grapesIDs,\n            _wineState,\n            address(0),\n            address(0),\n            address(0),\n            true\n        );\n        upc = upc + 1;\n        sku = sku + 1;\n        emit WineProduced(_upc);\n    }\n\n    function packWine(uint _upc)\n    public\n    onlyProducer\n    wineProduced(_upc)\n    verifyCaller(items[_upc].ownerID)\n    {\n        Wine storage wine = items[_upc];\n        require(msg.sender == wine.producerID);\n        wine.wineState = WineState.Packed;\n        emit WinePacked(wine.upc);\n    }\n\n    function addWineForSale(uint _upc, uint _productPrice)\n    public\n    onlyProducer\n    winePacked(_upc)\n    verifyCaller(items[_upc].ownerID)\n    {\n        Wine storage wine = items[_upc];\n        wine.wineState = WineState.ForSale;\n        // Set the price of the wine for retailer\n        wine.productPrice = _productPrice;\n        emit WineForSale(wine.upc);\n    }\n\n    function buyWine(uint _upc)\n    public\n    payable\n    onlyWholesaler\n    wineForSale(_upc)\n    paidEnough(items[_upc].productPrice)\n    checkValue(_upc)\n    {\n        Wine storage wine = items[_upc];\n        wine.wholesalerID = msg.sender; // Update to wholesaler\n        uint _productPrice = wine.productPrice;\n        wine.wineState = WineState.Sold;\n        address payable recipient = wine.ownerID;\n        wine.ownerID = msg.sender;\n        recipient.transfer(_productPrice);\n        emit WineSold(_upc);\n    }\n\n    function shipWine(uint _upc)\n    public\n    onlyProducer\n    wineSold(_upc)\n    verifyCaller(items[_upc].producerID)\n    {\n        Wine storage wine = items[_upc];\n        wine.wineState = WineState.Shipped;\n        emit WineShipped(_upc);\n    }\n\n    function receiveWine(uint _upc, uint _productRetailPrice)\n    public\n    onlyRetailer\n    wineShipped(_upc)\n    {\n        Wine storage wine = items[_upc];\n        wine.wineState = WineState.Received;\n        // set price for retail\n        wine.ownerID = msg.sender;\n        wine.productPrice = _productRetailPrice;\n        emit WineReceived(_upc);\n    }\n\n    function purchaseWine(uint _upc)\n    public\n    payable\n    onlyConsumer\n    wineReceived(_upc)\n    paidEnough(items[_upc].productPrice)\n    checkValue(_upc)\n    {\n        Wine storage wine = items[_upc];\n        wine.wineState = WineState.Purchased;\n        address payable recipient = wine.ownerID;\n        uint _price = wine.productPrice;\n        wine.ownerID = msg.sender;\n        recipient.transfer(_price);\n        emit WinePurchased(_upc);\n    }\n\n    // fetchWine - 3 functions - stack too deep compilation error\n    function fetchWineOne(uint _upc) public view returns (\n        uint wineSku,\n        uint wineUpc,\n        address payable ownerID,\n        address payable producerID,\n        uint productPrice,\n        WineState wineState,\n        address wholesalerID,\n        address retailerID,\n        address consumerID\n    ) {\n        Wine memory wine = items[_upc];\n        wineSku = wine.sku;\n        wineUpc = wine.upc;\n        ownerID = wine.ownerID;\n        producerID = wine.producerID;\n        productPrice = wine.productPrice;\n        wineState = wine.wineState;\n        wholesalerID = wine.wholesalerID;\n        retailerID = wine.retailerID;\n        consumerID = wine.consumerID;\n    }\n\n    // fetchWineTwo\n    function fetchWineTwo(uint _upc) public view returns (\n        uint wineSku,\n        uint wineUpc,\n        string memory producerName,\n        string memory producerInformation,\n        string memory producerLatitude,\n        string memory producerLongitude,\n        uint productID,\n        string memory productNotes,\n        uint productPrice\n    ) {\n        Wine memory wine = items[_upc];\n        wineSku = wine.sku;\n        wineUpc = wine.upc;\n        producerName = wine.producerName;\n        producerInformation = wine.producerInformation;\n        producerLatitude = wine.producerLatitude;\n        producerLongitude = wine.producerLongitude;\n        productID = wine.productID;\n        productNotes = wine.productNotes;\n        productPrice = wine.productPrice;\n    }\n\n    function fetchWineGrapes(uint _upc) public view returns (uint[] memory grapesIDs) {\n        grapesIDs = items[_upc].grapesIDs;\n    }\n}\n",
  "sourcePath": "/home/david2099/Documents/nodesall/supplyChainDApp/contracts/winebase/SupplyChain.sol",
  "compiler": {
    "name": "solc",
    "version": "0.5.0+commit.1d4f565a.Emscripten.clang"
  },
  "schemaVersion": "3.0.2",
  "updatedAt": "2019-02-26T10:54:37.866Z",
  "devdoc": {
    "methods": {}
  },
  "userdoc": {
    "methods": {
      "harvestGrapes(string,string,string,string,string)": {
        "notice": "////////////////////// GRAPES OPERATIONS /// //////////////////////"
      },
      "isOwner()": {
        "notice": "Check if the calling address is the owner of the contract"
      },
      "owner()": {
        "notice": "Look up the address of the owner"
      },
      "produceWine(string,string,string,string,string,uint256[],uint8)": {
        "notice": "//////////////////// WINE OPERATIONS /// ///////////////////"
      },
      "renounceOwnership()": {
        "notice": "Define a function to renounce ownerhip"
      },
      "transferOwnership(address)": {
        "notice": "Define a public function to transfer ownership"
      }
    }
  }
}