{
  "contractName": "SupplyChain",
  "abi": [
    {
      "constant": false,
      "inputs": [],
      "name": "renounceGrower",
      "outputs": [],
      "payable": false,
      "stateMutability": "nonpayable",
      "type": "function"
    },
    {
      "constant": false,
      "inputs": [
        {
          "name": "account",
          "type": "address"
        }
      ],
      "name": "addConsumer",
      "outputs": [],
      "payable": false,
      "stateMutability": "nonpayable",
      "type": "function"
    },
    {
      "constant": true,
      "inputs": [
        {
          "name": "account",
          "type": "address"
        }
      ],
      "name": "isRetailer",
      "outputs": [
        {
          "name": "",
          "type": "bool"
        }
      ],
      "payable": false,
      "stateMutability": "view",
      "type": "function"
    },
    {
      "constant": false,
      "inputs": [],
      "name": "renounceConsumer",
      "outputs": [],
      "payable": false,
      "stateMutability": "nonpayable",
      "type": "function"
    },
    {
      "constant": true,
      "inputs": [
        {
          "name": "account",
          "type": "address"
        }
      ],
      "name": "isWholesaler",
      "outputs": [
        {
          "name": "",
          "type": "bool"
        }
      ],
      "payable": false,
      "stateMutability": "view",
      "type": "function"
    },
    {
      "constant": true,
      "inputs": [
        {
          "name": "account",
          "type": "address"
        }
      ],
      "name": "isConsumer",
      "outputs": [
        {
          "name": "",
          "type": "bool"
        }
      ],
      "payable": false,
      "stateMutability": "view",
      "type": "function"
    },
    {
      "constant": false,
      "inputs": [
        {
          "name": "account",
          "type": "address"
        }
      ],
      "name": "addRetailer",
      "outputs": [],
      "payable": false,
      "stateMutability": "nonpayable",
      "type": "function"
    },
    {
      "constant": false,
      "inputs": [
        {
          "name": "account",
          "type": "address"
        }
      ],
      "name": "addGrower",
      "outputs": [],
      "payable": false,
      "stateMutability": "nonpayable",
      "type": "function"
    },
    {
      "constant": true,
      "inputs": [
        {
          "name": "account",
          "type": "address"
        }
      ],
      "name": "isGrower",
      "outputs": [
        {
          "name": "",
          "type": "bool"
        }
      ],
      "payable": false,
      "stateMutability": "view",
      "type": "function"
    },
    {
      "constant": false,
      "inputs": [],
      "name": "renounceRetailer",
      "outputs": [],
      "payable": false,
      "stateMutability": "nonpayable",
      "type": "function"
    },
    {
      "constant": false,
      "inputs": [
        {
          "name": "account",
          "type": "address"
        }
      ],
      "name": "addProducer",
      "outputs": [],
      "payable": false,
      "stateMutability": "nonpayable",
      "type": "function"
    },
    {
      "constant": false,
      "inputs": [
        {
          "name": "account",
          "type": "address"
        }
      ],
      "name": "addWholesaler",
      "outputs": [],
      "payable": false,
      "stateMutability": "nonpayable",
      "type": "function"
    },
    {
      "constant": true,
      "inputs": [
        {
          "name": "account",
          "type": "address"
        }
      ],
      "name": "isProducer",
      "outputs": [
        {
          "name": "",
          "type": "bool"
        }
      ],
      "payable": false,
      "stateMutability": "view",
      "type": "function"
    },
    {
      "constant": false,
      "inputs": [],
      "name": "renounceProducer",
      "outputs": [],
      "payable": false,
      "stateMutability": "nonpayable",
      "type": "function"
    },
    {
      "constant": false,
      "inputs": [],
      "name": "renounceWholesaler",
      "outputs": [],
      "payable": false,
      "stateMutability": "nonpayable",
      "type": "function"
    },
    {
      "inputs": [],
      "payable": true,
      "stateMutability": "payable",
      "type": "constructor"
    },
    {
      "anonymous": false,
      "inputs": [
        {
          "indexed": false,
          "name": "grapeId",
          "type": "uint256"
        }
      ],
      "name": "GrapeHarvested",
      "type": "event"
    },
    {
      "anonymous": false,
      "inputs": [
        {
          "indexed": false,
          "name": "grapeId",
          "type": "uint256"
        }
      ],
      "name": "GrapeForSale",
      "type": "event"
    },
    {
      "anonymous": false,
      "inputs": [
        {
          "indexed": false,
          "name": "grapeId",
          "type": "uint256"
        }
      ],
      "name": "GrapeSold",
      "type": "event"
    },
    {
      "anonymous": false,
      "inputs": [
        {
          "indexed": false,
          "name": "grapeId",
          "type": "uint256"
        }
      ],
      "name": "GrapeShipped",
      "type": "event"
    },
    {
      "anonymous": false,
      "inputs": [
        {
          "indexed": false,
          "name": "grapeId",
          "type": "uint256"
        }
      ],
      "name": "GrapeReceived",
      "type": "event"
    },
    {
      "anonymous": false,
      "inputs": [
        {
          "indexed": false,
          "name": "upc",
          "type": "uint256"
        }
      ],
      "name": "WineProduced",
      "type": "event"
    },
    {
      "anonymous": false,
      "inputs": [
        {
          "indexed": false,
          "name": "upc",
          "type": "uint256"
        }
      ],
      "name": "WinePacked",
      "type": "event"
    },
    {
      "anonymous": false,
      "inputs": [
        {
          "indexed": false,
          "name": "upc",
          "type": "uint256"
        }
      ],
      "name": "WineForSale",
      "type": "event"
    },
    {
      "anonymous": false,
      "inputs": [
        {
          "indexed": false,
          "name": "upc",
          "type": "uint256"
        }
      ],
      "name": "WineSold",
      "type": "event"
    },
    {
      "anonymous": false,
      "inputs": [
        {
          "indexed": false,
          "name": "upc",
          "type": "uint256"
        }
      ],
      "name": "WineShipped",
      "type": "event"
    },
    {
      "anonymous": false,
      "inputs": [
        {
          "indexed": false,
          "name": "upc",
          "type": "uint256"
        }
      ],
      "name": "WineReceived",
      "type": "event"
    },
    {
      "anonymous": false,
      "inputs": [
        {
          "indexed": false,
          "name": "upc",
          "type": "uint256"
        }
      ],
      "name": "WinePurchased",
      "type": "event"
    },
    {
      "anonymous": false,
      "inputs": [
        {
          "indexed": true,
          "name": "account",
          "type": "address"
        }
      ],
      "name": "ConsumerAdded",
      "type": "event"
    },
    {
      "anonymous": false,
      "inputs": [
        {
          "indexed": true,
          "name": "account",
          "type": "address"
        }
      ],
      "name": "ConsumerRemoved",
      "type": "event"
    },
    {
      "anonymous": false,
      "inputs": [
        {
          "indexed": true,
          "name": "account",
          "type": "address"
        }
      ],
      "name": "RetailerAdded",
      "type": "event"
    },
    {
      "anonymous": false,
      "inputs": [
        {
          "indexed": true,
          "name": "account",
          "type": "address"
        }
      ],
      "name": "RetailerRemoved",
      "type": "event"
    },
    {
      "anonymous": false,
      "inputs": [
        {
          "indexed": true,
          "name": "account",
          "type": "address"
        }
      ],
      "name": "WholesalerAdded",
      "type": "event"
    },
    {
      "anonymous": false,
      "inputs": [
        {
          "indexed": true,
          "name": "account",
          "type": "address"
        }
      ],
      "name": "WholesalerRemoved",
      "type": "event"
    },
    {
      "anonymous": false,
      "inputs": [
        {
          "indexed": true,
          "name": "account",
          "type": "address"
        }
      ],
      "name": "ProducerAdded",
      "type": "event"
    },
    {
      "anonymous": false,
      "inputs": [
        {
          "indexed": true,
          "name": "account",
          "type": "address"
        }
      ],
      "name": "ProducerRemoved",
      "type": "event"
    },
    {
      "anonymous": false,
      "inputs": [
        {
          "indexed": true,
          "name": "account",
          "type": "address"
        }
      ],
      "name": "GrowerAdded",
      "type": "event"
    },
    {
      "anonymous": false,
      "inputs": [
        {
          "indexed": true,
          "name": "account",
          "type": "address"
        }
      ],
      "name": "GrowerRemoved",
      "type": "event"
    },
    {
      "constant": false,
      "inputs": [],
      "name": "kill",
      "outputs": [],
      "payable": false,
      "stateMutability": "nonpayable",
      "type": "function"
    },
    {
      "constant": false,
      "inputs": [
        {
          "name": "_grapeID",
          "type": "uint256"
        },
        {
          "name": "_growerName",
          "type": "string"
        },
        {
          "name": "_growerInformation",
          "type": "string"
        },
        {
          "name": "_growerLatitude",
          "type": "string"
        },
        {
          "name": "_growerLongitude",
          "type": "string"
        },
        {
          "name": "_grapePrice",
          "type": "uint256"
        }
      ],
      "name": "harvestGrapes",
      "outputs": [],
      "payable": false,
      "stateMutability": "nonpayable",
      "type": "function"
    },
    {
      "constant": false,
      "inputs": [
        {
          "name": "_grapeID",
          "type": "uint256"
        }
      ],
      "name": "addGrapesForSale",
      "outputs": [],
      "payable": false,
      "stateMutability": "nonpayable",
      "type": "function"
    },
    {
      "constant": false,
      "inputs": [
        {
          "name": "_grapeID",
          "type": "uint256"
        },
        {
          "name": "_grapePrice",
          "type": "uint256"
        }
      ],
      "name": "buyGrapes",
      "outputs": [],
      "payable": true,
      "stateMutability": "payable",
      "type": "function"
    },
    {
      "constant": false,
      "inputs": [
        {
          "name": "_grapeID",
          "type": "uint256"
        }
      ],
      "name": "shipGrapes",
      "outputs": [],
      "payable": false,
      "stateMutability": "nonpayable",
      "type": "function"
    },
    {
      "constant": false,
      "inputs": [
        {
          "name": "_grapeID",
          "type": "uint256"
        }
      ],
      "name": "receiveGrapes",
      "outputs": [],
      "payable": false,
      "stateMutability": "nonpayable",
      "type": "function"
    },
    {
      "constant": true,
      "inputs": [
        {
          "name": "_grapeID",
          "type": "uint256"
        }
      ],
      "name": "fetchGrape",
      "outputs": [
        {
          "name": "grapeGrapeID",
          "type": "uint256"
        },
        {
          "name": "ownerID",
          "type": "address"
        },
        {
          "name": "growerID",
          "type": "address"
        },
        {
          "name": "growerName",
          "type": "string"
        },
        {
          "name": "growerInformation",
          "type": "string"
        },
        {
          "name": "growerLatitude",
          "type": "string"
        },
        {
          "name": "growerLongitude",
          "type": "string"
        },
        {
          "name": "grapePrice",
          "type": "uint256"
        },
        {
          "name": "grapeState",
          "type": "uint8"
        }
      ],
      "payable": false,
      "stateMutability": "view",
      "type": "function"
    },
    {
      "constant": false,
      "inputs": [
        {
          "name": "_producerName",
          "type": "string"
        },
        {
          "name": "_producerInformation",
          "type": "string"
        },
        {
          "name": "_producerLatitude",
          "type": "string"
        },
        {
          "name": "_producerLongitude",
          "type": "string"
        },
        {
          "name": "_productNotes",
          "type": "string"
        },
        {
          "name": "_grapesIDs",
          "type": "uint256[]"
        },
        {
          "name": "_wineState",
          "type": "uint8"
        }
      ],
      "name": "produceWine",
      "outputs": [
        {
          "name": "_upc",
          "type": "uint256"
        }
      ],
      "payable": false,
      "stateMutability": "nonpayable",
      "type": "function"
    },
    {
      "constant": false,
      "inputs": [
        {
          "name": "_upc",
          "type": "uint256"
        }
      ],
      "name": "packWine",
      "outputs": [],
      "payable": false,
      "stateMutability": "nonpayable",
      "type": "function"
    },
    {
      "constant": false,
      "inputs": [
        {
          "name": "_upc",
          "type": "uint256"
        }
      ],
      "name": "addWineForSale",
      "outputs": [],
      "payable": false,
      "stateMutability": "nonpayable",
      "type": "function"
    },
    {
      "constant": false,
      "inputs": [
        {
          "name": "_upc",
          "type": "uint256"
        }
      ],
      "name": "buyWine",
      "outputs": [],
      "payable": false,
      "stateMutability": "nonpayable",
      "type": "function"
    },
    {
      "constant": false,
      "inputs": [
        {
          "name": "_upc",
          "type": "uint256"
        }
      ],
      "name": "shipWine",
      "outputs": [],
      "payable": false,
      "stateMutability": "nonpayable",
      "type": "function"
    },
    {
      "constant": false,
      "inputs": [
        {
          "name": "_upc",
          "type": "uint256"
        }
      ],
      "name": "receiveWine",
      "outputs": [],
      "payable": false,
      "stateMutability": "nonpayable",
      "type": "function"
    },
    {
      "constant": false,
      "inputs": [
        {
          "name": "_upc",
          "type": "uint256"
        }
      ],
      "name": "purchaseWine",
      "outputs": [],
      "payable": false,
      "stateMutability": "nonpayable",
      "type": "function"
    },
    {
      "constant": true,
      "inputs": [
        {
          "name": "_upc",
          "type": "uint256"
        }
      ],
      "name": "fetchWineOne",
      "outputs": [
        {
          "name": "wineSku",
          "type": "uint256"
        },
        {
          "name": "wineUpc",
          "type": "uint256"
        },
        {
          "name": "ownerID",
          "type": "address"
        },
        {
          "name": "producerID",
          "type": "address"
        },
        {
          "name": "productPrice",
          "type": "uint256"
        },
        {
          "name": "wineState",
          "type": "uint8"
        },
        {
          "name": "wholesalerID",
          "type": "address"
        },
        {
          "name": "retailerID",
          "type": "address"
        },
        {
          "name": "consumerID",
          "type": "address"
        }
      ],
      "payable": false,
      "stateMutability": "view",
      "type": "function"
    },
    {
      "constant": true,
      "inputs": [
        {
          "name": "_upc",
          "type": "uint256"
        }
      ],
      "name": "fetchWineTwo",
      "outputs": [
        {
          "name": "wineSku",
          "type": "uint256"
        },
        {
          "name": "wineUpc",
          "type": "uint256"
        },
        {
          "name": "producerName",
          "type": "string"
        },
        {
          "name": "producerInformation",
          "type": "string"
        },
        {
          "name": "producerLatitude",
          "type": "string"
        },
        {
          "name": "producerLongitude",
          "type": "string"
        },
        {
          "name": "productID",
          "type": "uint256"
        },
        {
          "name": "productNotes",
          "type": "string"
        },
        {
          "name": "productPrice",
          "type": "uint256"
        }
      ],
      "payable": false,
      "stateMutability": "view",
      "type": "function"
    },
    {
      "constant": true,
      "inputs": [
        {
          "name": "_upc",
          "type": "uint256"
        }
      ],
      "name": "fetchWineGrapes",
      "outputs": [
        {
          "name": "wineGrapesIDs",
          "type": "uint256[]"
        }
      ],
      "payable": false,
      "stateMutability": "view",
      "type": "function"
    }
  ],
  "bytecode": "0x60806040526200001e33620000e5640100000000026401000000009004565b62000038336200014f640100000000026401000000009004565b6200005233620001b9640100000000026401000000009004565b6200006c3362000223640100000000026401000000009004565b62000086336200028d640100000000026401000000009004565b33600560006101000a81548173ffffffffffffffffffffffffffffffffffffffff021916908373ffffffffffffffffffffffffffffffffffffffff1602179055506001600781905550600160068190555060016008819055506200044f565b62000109816000620002f7640100000000026200463d179091906401000000009004565b8073ffffffffffffffffffffffffffffffffffffffff167f423fd8158a2c5772d65f93f5aa158245f414b4da880b0d6d2a3361a3915ad3ae60405160405180910390a250565b62000173816001620002f7640100000000026200463d179091906401000000009004565b8073ffffffffffffffffffffffffffffffffffffffff167f2977383b0207d39ef14220620b6cf3e6c9b6e78592af90baeef6614ed2fcd2c660405160405180910390a250565b620001dd816002620002f7640100000000026200463d179091906401000000009004565b8073ffffffffffffffffffffffffffffffffffffffff167fd8a7ad7929975a375d2b12bf49040286b5b105df0fe351f10df6d85e5b7142f760405160405180910390a250565b62000247816003620002f7640100000000026200463d179091906401000000009004565b8073ffffffffffffffffffffffffffffffffffffffff167f71ae26cad02663e3d92efd6ec56031a80d74a20c0ab4183faa8bf262261c9baa60405160405180910390a250565b620002b1816004620002f7640100000000026200463d179091906401000000009004565b8073ffffffffffffffffffffffffffffffffffffffff167f28b26e7a3d20aedbc5f8f2ebf7da671c0491723a2b78f47a097b0e46dee0714260405160405180910390a250565b600073ffffffffffffffffffffffffffffffffffffffff168173ffffffffffffffffffffffffffffffffffffffff16141515156200033457600080fd5b6200034f8282620003ba640100000000026401000000009004565b1515156200035c57600080fd5b60018260000160008373ffffffffffffffffffffffffffffffffffffffff1673ffffffffffffffffffffffffffffffffffffffff16815260200190815260200160002060006101000a81548160ff0219169083151502179055505050565b60008073ffffffffffffffffffffffffffffffffffffffff168273ffffffffffffffffffffffffffffffffffffffff1614151515620003f857600080fd5b8260000160008373ffffffffffffffffffffffffffffffffffffffff1673ffffffffffffffffffffffffffffffffffffffff16815260200190815260200160002060009054906101000a900460ff16905092915050565b614986806200045f6000396000f3fe608060405260043610610196576000357c0100000000000000000000000000000000000000000000000000000000900463ffffffff16806304fee1eb1461019b5780630c11596b146101d6578063112940f9146101ed5780631cd0924e1461023e57806326820e7e146106175780632c2dbba11461065257806341c0e1b51461068d57806344a0a968146106a457806353f80c0f146106df5780635da09b88146107175780635dfb81361461078057806361e6982d14610a0057806364d1ba1f14610a175780637b97bb3414610a80578063834ff73914610abb57806384f66ba714610b245780638ec4f50514610dc55780639e083bd314610e16578063b8b06c8614610f87578063c4d10d7414610fd8578063c64b7e8d14611041578063cbcf23491461107c578063d1e74044146110b7578063db0e6a2f146110f2578063ddf8016614611109578063de63bdb91461115a578063dfc90b50146111ab578063e2dde0521461123b578063f5521022146114bc578063f9b867d814611525578063fd3338351461153c578063fe19d15214611577575b600080fd5b3480156101a757600080fd5b506101d4600480360360208110156101be57600080fd5b810190808035906020019092919050505061158e565b005b3480156101e257600080fd5b506101eb6116a7565b005b3480156101f957600080fd5b5061023c6004803603602081101561021057600080fd5b81019080803573ffffffffffffffffffffffffffffffffffffffff1690602001909291905050506116b2565b005b34801561024a57600080fd5b50610601600480360360e081101561026157600080fd5b810190808035906020019064010000000081111561027e57600080fd5b82018360208201111561029057600080fd5b803590602001918460018302840111640100000000831117156102b257600080fd5b91908080601f016020809104026020016040519081016040528093929190818152602001838380828437600081840152601f19601f8201169050808301925050505050505091929192908035906020019064010000000081111561031557600080fd5b82018360208201111561032757600080fd5b8035906020019184600183028401116401000000008311171561034957600080fd5b91908080601f016020809104026020016040519081016040528093929190818152602001838380828437600081840152601f19601f820116905080830192505050505050509192919290803590602001906401000000008111156103ac57600080fd5b8201836020820111156103be57600080fd5b803590602001918460018302840111640100000000831117156103e057600080fd5b91908080601f016020809104026020016040519081016040528093929190818152602001838380828437600081840152601f19601f8201169050808301925050505050505091929192908035906020019064010000000081111561044357600080fd5b82018360208201111561045557600080fd5b8035906020019184600183028401116401000000008311171561047757600080fd5b91908080601f016020809104026020016040519081016040528093929190818152602001838380828437600081840152601f19601f820116905080830192505050505050509192919290803590602001906401000000008111156104da57600080fd5b8201836020820111156104ec57600080fd5b8035906020019184600183028401116401000000008311171561050e57600080fd5b91908080601f016020809104026020016040519081016040528093929190818152602001838380828437600081840152601f19601f8201169050808301925050505050505091929192908035906020019064010000000081111561057157600080fd5b82018360208201111561058357600080fd5b803590602001918460208302840111640100000000831117156105a557600080fd5b919080806020026020016040519081016040528093929190818152602001838360200280828437600081840152601f19601f820116905080830192505050505050509192919290803560ff1690602001909291905050506116d2565b6040518082815260200191505060405180910390f35b34801561062357600080fd5b506106506004803603602081101561063a57600080fd5b8101908080359060200190929190505050611abf565b005b34801561065e57600080fd5b5061068b6004803603602081101561067557600080fd5b8101908080359060200190929190505050611c07565b005b34801561069957600080fd5b506106a2611db1565b005b3480156106b057600080fd5b506106dd600480360360208110156106c757600080fd5b8101908080359060200190929190505050611e44565b005b610715600480360360408110156106f557600080fd5b810190808035906020019092919080359060200190929190505050611f8c565b005b34801561072357600080fd5b506107666004803603602081101561073a57600080fd5b81019080803573ffffffffffffffffffffffffffffffffffffffff1690602001909291905050506121a1565b604051808215151515815260200191505060405180910390f35b34801561078c57600080fd5b506107b9600480360360208110156107a357600080fd5b81019080803590602001909291905050506121be565b604051808a8152602001898152602001806020018060200180602001806020018881526020018060200187815260200186810386528d818151815260200191508051906020019080838360005b83811015610821578082015181840152602081019050610806565b50505050905090810190601f16801561084e5780820380516001836020036101000a031916815260200191505b5086810385528c818151815260200191508051906020019080838360005b8381101561088757808201518184015260208101905061086c565b50505050905090810190601f1680156108b45780820380516001836020036101000a031916815260200191505b5086810384528b818151815260200191508051906020019080838360005b838110156108ed5780820151818401526020810190506108d2565b50505050905090810190601f16801561091a5780820380516001836020036101000a031916815260200191505b5086810383528a818151815260200191508051906020019080838360005b83811015610953578082015181840152602081019050610938565b50505050905090810190601f1680156109805780820380516001836020036101000a031916815260200191505b50868103825288818151815260200191508051906020019080838360005b838110156109b957808201518184015260208101905061099e565b50505050905090810190601f1680156109e65780820380516001836020036101000a031916815260200191505b509e50505050505050505050505050505060405180910390f35b348015610a0c57600080fd5b50610a156127cc565b005b348015610a2357600080fd5b50610a6660048036036020811015610a3a57600080fd5b81019080803573ffffffffffffffffffffffffffffffffffffffff1690602001909291905050506127d7565b604051808215151515815260200191505060405180910390f35b348015610a8c57600080fd5b50610ab960048036036020811015610aa357600080fd5b81019080803590602001909291905050506127f4565b005b348015610ac757600080fd5b50610b0a60048036036020811015610ade57600080fd5b81019080803573ffffffffffffffffffffffffffffffffffffffff16906020019092919050505061299e565b604051808215151515815260200191505060405180910390f35b348015610b3057600080fd5b50610dc3600480360360c0811015610b4757600080fd5b810190808035906020019092919080359060200190640100000000811115610b6e57600080fd5b820183602082011115610b8057600080fd5b80359060200191846001830284011164010000000083111715610ba257600080fd5b91908080601f016020809104026020016040519081016040528093929190818152602001838380828437600081840152601f19601f82011690508083019250505050505050919291929080359060200190640100000000811115610c0557600080fd5b820183602082011115610c1757600080fd5b80359060200191846001830284011164010000000083111715610c3957600080fd5b91908080601f016020809104026020016040519081016040528093929190818152602001838380828437600081840152601f19601f82011690508083019250505050505050919291929080359060200190640100000000811115610c9c57600080fd5b820183602082011115610cae57600080fd5b80359060200191846001830284011164010000000083111715610cd057600080fd5b91908080601f016020809104026020016040519081016040528093929190818152602001838380828437600081840152601f19601f82011690508083019250505050505050919291929080359060200190640100000000811115610d3357600080fd5b820183602082011115610d4557600080fd5b80359060200191846001830284011164010000000083111715610d6757600080fd5b91908080601f016020809104026020016040519081016040528093929190818152602001838380828437600081840152601f19601f820116905080830192505050505050509192919290803590602001909291905050506129bb565b005b348015610dd157600080fd5b50610e1460048036036020811015610de857600080fd5b81019080803573ffffffffffffffffffffffffffffffffffffffff169060200190929190505050612be9565b005b348015610e2257600080fd5b50610e4f60048036036020811015610e3957600080fd5b8101908080359060200190929190505050612c09565b604051808a81526020018981526020018873ffffffffffffffffffffffffffffffffffffffff1673ffffffffffffffffffffffffffffffffffffffff1681526020018773ffffffffffffffffffffffffffffffffffffffff1673ffffffffffffffffffffffffffffffffffffffff168152602001868152602001856006811115610ed557fe5b60ff1681526020018473ffffffffffffffffffffffffffffffffffffffff1673ffffffffffffffffffffffffffffffffffffffff1681526020018373ffffffffffffffffffffffffffffffffffffffff1673ffffffffffffffffffffffffffffffffffffffff1681526020018273ffffffffffffffffffffffffffffffffffffffff1673ffffffffffffffffffffffffffffffffffffffff168152602001995050505050505050505060405180910390f35b348015610f9357600080fd5b50610fd660048036036020811015610faa57600080fd5b81019080803573ffffffffffffffffffffffffffffffffffffffff169060200190929190505050613218565b005b348015610fe457600080fd5b5061102760048036036020811015610ffb57600080fd5b81019080803573ffffffffffffffffffffffffffffffffffffffff169060200190929190505050613238565b604051808215151515815260200191505060405180910390f35b34801561104d57600080fd5b5061107a6004803603602081101561106457600080fd5b8101908080359060200190929190505050613255565b005b34801561108857600080fd5b506110b56004803603602081101561109f57600080fd5b8101908080359060200190929190505050613352565b005b3480156110c357600080fd5b506110f0600480360360208110156110da57600080fd5b81019080803590602001909291905050506134ae565b005b3480156110fe57600080fd5b506111076135f6565b005b34801561111557600080fd5b506111586004803603602081101561112c57600080fd5b81019080803573ffffffffffffffffffffffffffffffffffffffff169060200190929190505050613601565b005b34801561116657600080fd5b506111a96004803603602081101561117d57600080fd5b81019080803573ffffffffffffffffffffffffffffffffffffffff169060200190929190505050613621565b005b3480156111b757600080fd5b506111e4600480360360208110156111ce57600080fd5b8101908080359060200190929190505050613641565b6040518080602001828103825283818151815260200191508051906020019060200280838360005b8381101561122757808201518184015260208101905061120c565b505050509050019250505060405180910390f35b34801561124757600080fd5b506112746004803603602081101561125e57600080fd5b8101908080359060200190929190505050613c00565b604051808a81526020018973ffffffffffffffffffffffffffffffffffffffff1673ffffffffffffffffffffffffffffffffffffffff1681526020018873ffffffffffffffffffffffffffffffffffffffff1673ffffffffffffffffffffffffffffffffffffffff1681526020018060200180602001806020018060200187815260200186600481111561130457fe5b60ff16815260200185810385528b818151815260200191508051906020019080838360005b83811015611344578082015181840152602081019050611329565b50505050905090810190601f1680156113715780820380516001836020036101000a031916815260200191505b5085810384528a818151815260200191508051906020019080838360005b838110156113aa57808201518184015260208101905061138f565b50505050905090810190601f1680156113d75780820380516001836020036101000a031916815260200191505b50858103835289818151815260200191508051906020019080838360005b838110156114105780820151818401526020810190506113f5565b50505050905090810190601f16801561143d5780820380516001836020036101000a031916815260200191505b50858103825288818151815260200191508051906020019080838360005b8381101561147657808201518184015260208101905061145b565b50505050905090810190601f1680156114a35780820380516001836020036101000a031916815260200191505b509d505050505050505050505050505060405180910390f35b3480156114c857600080fd5b5061150b600480360360208110156114df57600080fd5b81019080803573ffffffffffffffffffffffffffffffffffffffff169060200190929190505050613ffb565b604051808215151515815260200191505060405180910390f35b34801561153157600080fd5b5061153a614018565b005b34801561154857600080fd5b506115756004803603602081101561155f57600080fd5b8101908080359060200190929190505050614023565b005b34801561158357600080fd5b5061158c61416b565b005b6115973361299e565b15156115a257600080fd5b80600560068111156115b057fe5b600a6000838152602001908152602001600020600c0160009054906101000a900460ff1660068111156115df57fe5b1415156115eb57600080fd5b6000600a60008481526020019081526020016000209050600681600c0160006101000a81548160ff0219169083600681111561162357fe5b0217905550338160020160006101000a81548173ffffffffffffffffffffffffffffffffffffffff021916908373ffffffffffffffffffffffffffffffffffffffff1602179055507f0513f8569d804d90dd149e0e50db1c075f672ccfbb4ccabe023ff332ffa2196c836040518082815260200191505060405180910390a1505050565b6116b033614176565b565b6116bb3361299e565b15156116c657600080fd5b6116cf816141d0565b50565b60006116dd33613ffb565b15156116e857600080fd5b6000600654600754019050600654915061020060405190810160405280600754815260200160065481526020013373ffffffffffffffffffffffffffffffffffffffff1681526020013373ffffffffffffffffffffffffffffffffffffffff1681526020018a81526020018981526020018881526020018781526020018281526020018681526020016000815260200185815260200184600681111561178a57fe5b8152602001600073ffffffffffffffffffffffffffffffffffffffff168152602001600073ffffffffffffffffffffffffffffffffffffffff168152602001600073ffffffffffffffffffffffffffffffffffffffff16815250600a6000848152602001908152602001600020600082015181600001556020820151816001015560408201518160020160006101000a81548173ffffffffffffffffffffffffffffffffffffffff021916908373ffffffffffffffffffffffffffffffffffffffff16021790555060608201518160030160006101000a81548173ffffffffffffffffffffffffffffffffffffffff021916908373ffffffffffffffffffffffffffffffffffffffff16021790555060808201518160040190805190602001906118b59291906146ed565b5060a08201518160050190805190602001906118d29291906146ed565b5060c08201518160060190805190602001906118ef9291906146ed565b5060e082015181600701908051906020019061190c9291906146ed565b5061010082015181600801556101208201518160090190805190602001906119359291906146ed565b5061014082015181600a015561016082015181600b01908051906020019061195e92919061476d565b5061018082015181600c0160006101000a81548160ff0219169083600681111561198457fe5b02179055506101a082015181600c0160016101000a81548173ffffffffffffffffffffffffffffffffffffffff021916908373ffffffffffffffffffffffffffffffffffffffff1602179055506101c082015181600d0160006101000a81548173ffffffffffffffffffffffffffffffffffffffff021916908373ffffffffffffffffffffffffffffffffffffffff1602179055506101e082015181600e0160006101000a81548173ffffffffffffffffffffffffffffffffffffffff021916908373ffffffffffffffffffffffffffffffffffffffff1602179055509050506001600654016006819055506001600754016007819055507f83e1ab300d19168d03dcd993384c2d69adc560b1021bb4c18a68bf40cde1f4d7826040518082815260200191505060405180910390a150979650505050505050565b611ac833613ffb565b1515611ad357600080fd5b8060036006811115611ae157fe5b600a6000838152602001908152602001600020600c0160009054906101000a900460ff166006811115611b1057fe5b141515611b1c57600080fd5b600a600083815260200190815260200160002060030160009054906101000a900473ffffffffffffffffffffffffffffffffffffffff168073ffffffffffffffffffffffffffffffffffffffff163373ffffffffffffffffffffffffffffffffffffffff16141515611b8d57600080fd5b6000600a60008581526020019081526020016000209050600481600c0160006101000a81548160ff02191690836006811115611bc557fe5b02179055507fc45d1150d9c75df34f991dd286a910d790ce07ba5af619b7f7d37139c3c2cafc846040518082815260200191505060405180910390a150505050565b611c1033613ffb565b1515611c1b57600080fd5b8060016006811115611c2957fe5b600a6000838152602001908152602001600020600c0160009054906101000a900460ff166006811115611c5857fe5b141515611c6457600080fd5b600a600083815260200190815260200160002060020160009054906101000a900473ffffffffffffffffffffffffffffffffffffffff168073ffffffffffffffffffffffffffffffffffffffff163373ffffffffffffffffffffffffffffffffffffffff16141515611cd557600080fd5b6000600a600085815260200190815260200160002090508060030160009054906101000a900473ffffffffffffffffffffffffffffffffffffffff1673ffffffffffffffffffffffffffffffffffffffff163373ffffffffffffffffffffffffffffffffffffffff16141515611d4a57600080fd5b600281600c0160006101000a81548160ff02191690836006811115611d6b57fe5b02179055507fa97ba00ead9a7c7102566aab6635515af6ade3035fee035f2e91f51daf03423681600101546040518082815260200191505060405180910390a150505050565b600560009054906101000a900473ffffffffffffffffffffffffffffffffffffffff1673ffffffffffffffffffffffffffffffffffffffff163373ffffffffffffffffffffffffffffffffffffffff161415611e4257600560009054906101000a900473ffffffffffffffffffffffffffffffffffffffff1673ffffffffffffffffffffffffffffffffffffffff16ff5b565b611e4d33613ffb565b1515611e5857600080fd5b8060036004811115611e6657fe5b6009600083815260200190815260200160002060080160009054906101000a900460ff166004811115611e9557fe5b141515611ea157600080fd5b6009600083815260200190815260200160002060010160009054906101000a900473ffffffffffffffffffffffffffffffffffffffff168073ffffffffffffffffffffffffffffffffffffffff163373ffffffffffffffffffffffffffffffffffffffff16141515611f1257600080fd5b600060096000858152602001908152602001600020905060048160080160006101000a81548160ff02191690836004811115611f4a57fe5b02179055507fa4ebe2faef1a8e12d4ae5cc1d71ce997889854e26a0cbf25aa01f719e95276d1846040518082815260200191505060405180910390a150505050565b611f9533613ffb565b1515611fa057600080fd5b8160016004811115611fae57fe5b6009600083815260200190815260200160002060080160009054906101000a900460ff166004811115611fdd57fe5b141515611fe957600080fd5b81803410151515611ff957600080fd5b83600060096000878152602001908152602001600020905080600701548514151561202357600080fd5b60028160080160006101000a81548160ff0219169083600481111561204457fe5b0217905550338160010160006101000a81548173ffffffffffffffffffffffffffffffffffffffff021916908373ffffffffffffffffffffffffffffffffffffffff1602179055508060020160009054906101000a900473ffffffffffffffffffffffffffffffffffffffff1673ffffffffffffffffffffffffffffffffffffffff166108fc869081150290604051600060405180830381858888f193505050501580156120f6573d6000803e3d6000fd5b507fdbcd9442ea51662810e0fc9e143a1cee86d83e1010e20963373aa6bf17ba439d866040518082815260200191505060405180910390a150600060096000838152602001908152602001600020600701549050600081340390503373ffffffffffffffffffffffffffffffffffffffff166108fc829081150290604051600060405180830381858888f19350505050158015612197573d6000803e3d6000fd5b5050505050505050565b60006121b782600361422a90919063ffffffff16565b9050919050565b6000806060806060806000606060006121d56147ba565b600a60008c8152602001908152602001600020610200604051908101604052908160008201548152602001600182015481526020016002820160009054906101000a900473ffffffffffffffffffffffffffffffffffffffff1673ffffffffffffffffffffffffffffffffffffffff1673ffffffffffffffffffffffffffffffffffffffff1681526020016003820160009054906101000a900473ffffffffffffffffffffffffffffffffffffffff1673ffffffffffffffffffffffffffffffffffffffff1673ffffffffffffffffffffffffffffffffffffffff168152602001600482018054600181600116156101000203166002900480601f01602080910402602001604051908101604052809291908181526020018280546001816001161561010002031660029004801561234e5780601f106123235761010080835404028352916020019161234e565b820191906000526020600020905b81548152906001019060200180831161233157829003601f168201915b50505050508152602001600582018054600181600116156101000203166002900480601f0160208091040260200160405190810160405280929190818152602001828054600181600116156101000203166002900480156123f05780601f106123c5576101008083540402835291602001916123f0565b820191906000526020600020905b8154815290600101906020018083116123d357829003601f168201915b50505050508152602001600682018054600181600116156101000203166002900480601f0160208091040260200160405190810160405280929190818152602001828054600181600116156101000203166002900480156124925780601f1061246757610100808354040283529160200191612492565b820191906000526020600020905b81548152906001019060200180831161247557829003601f168201915b50505050508152602001600782018054600181600116156101000203166002900480601f0160208091040260200160405190810160405280929190818152602001828054600181600116156101000203166002900480156125345780601f1061250957610100808354040283529160200191612534565b820191906000526020600020905b81548152906001019060200180831161251757829003601f168201915b5050505050815260200160088201548152602001600982018054600181600116156101000203166002900480601f0160208091040260200160405190810160405280929190818152602001828054600181600116156101000203166002900480156125e05780601f106125b5576101008083540402835291602001916125e0565b820191906000526020600020905b8154815290600101906020018083116125c357829003601f168201915b50505050508152602001600a8201548152602001600b820180548060200260200160405190810160405280929190818152602001828054801561264257602002820191906000526020600020905b81548152602001906001019080831161262e575b50505050508152602001600c820160009054906101000a900460ff16600681111561266957fe5b600681111561267457fe5b8152602001600c820160019054906101000a900473ffffffffffffffffffffffffffffffffffffffff1673ffffffffffffffffffffffffffffffffffffffff1673ffffffffffffffffffffffffffffffffffffffff168152602001600d820160009054906101000a900473ffffffffffffffffffffffffffffffffffffffff1673ffffffffffffffffffffffffffffffffffffffff1673ffffffffffffffffffffffffffffffffffffffff168152602001600e820160009054906101000a900473ffffffffffffffffffffffffffffffffffffffff1673ffffffffffffffffffffffffffffffffffffffff1673ffffffffffffffffffffffffffffffffffffffff168152505090508060000151995080602001519850806080015197508060a0015196508060c0015195508060e001519450806101000151935080610120015192508061014001519150509193959799909294969850565b6127d5336142be565b565b60006127ed82600261422a90919063ffffffff16565b9050919050565b6127fd33613ffb565b151561280857600080fd5b806000600681111561281657fe5b600a6000838152602001908152602001600020600c0160009054906101000a900460ff16600681111561284557fe5b14151561285157600080fd5b600a600083815260200190815260200160002060020160009054906101000a900473ffffffffffffffffffffffffffffffffffffffff168073ffffffffffffffffffffffffffffffffffffffff163373ffffffffffffffffffffffffffffffffffffffff161415156128c257600080fd5b6000600a600085815260200190815260200160002090508060030160009054906101000a900473ffffffffffffffffffffffffffffffffffffffff1673ffffffffffffffffffffffffffffffffffffffff163373ffffffffffffffffffffffffffffffffffffffff1614151561293757600080fd5b600181600c0160006101000a81548160ff0219169083600681111561295857fe5b02179055507f0869ab0322800b441c2ace7097217dfee49f6c8129437dd36e5e4146e0e6992881600101546040518082815260200191505060405180910390a150505050565b60006129b482600461422a90919063ffffffff16565b9050919050565b6129c433613238565b15156129cf57600080fd5b610120604051908101604052808781526020013373ffffffffffffffffffffffffffffffffffffffff1681526020013373ffffffffffffffffffffffffffffffffffffffff16815260200186815260200185815260200184815260200183815260200182815260200160006004811115612a4557fe5b815250600960008881526020019081526020016000206000820151816000015560208201518160010160006101000a81548173ffffffffffffffffffffffffffffffffffffffff021916908373ffffffffffffffffffffffffffffffffffffffff16021790555060408201518160020160006101000a81548173ffffffffffffffffffffffffffffffffffffffff021916908373ffffffffffffffffffffffffffffffffffffffff1602179055506060820151816003019080519060200190612b0f9291906146ed565b506080820151816004019080519060200190612b2c9291906146ed565b5060a0820151816005019080519060200190612b499291906146ed565b5060c0820151816006019080519060200190612b669291906146ed565b5060e082015181600701556101008201518160080160006101000a81548160ff02191690836004811115612b9657fe5b02179055509050506001600854016008819055507fe98cb48b7c65f60e2a8d0b20a8dbaac7cc3c2c897044fe92d5f5d3f97382ca75866040518082815260200191505060405180910390a1505050505050565b612bf2336121a1565b1515612bfd57600080fd5b612c0681614318565b50565b6000806000806000806000806000612c1f6147ba565b600a60008c8152602001908152602001600020610200604051908101604052908160008201548152602001600182015481526020016002820160009054906101000a900473ffffffffffffffffffffffffffffffffffffffff1673ffffffffffffffffffffffffffffffffffffffff1673ffffffffffffffffffffffffffffffffffffffff1681526020016003820160009054906101000a900473ffffffffffffffffffffffffffffffffffffffff1673ffffffffffffffffffffffffffffffffffffffff1673ffffffffffffffffffffffffffffffffffffffff168152602001600482018054600181600116156101000203166002900480601f016020809104026020016040519081016040528092919081815260200182805460018160011615610100020316600290048015612d985780601f10612d6d57610100808354040283529160200191612d98565b820191906000526020600020905b815481529060010190602001808311612d7b57829003601f168201915b50505050508152602001600582018054600181600116156101000203166002900480601f016020809104026020016040519081016040528092919081815260200182805460018160011615610100020316600290048015612e3a5780601f10612e0f57610100808354040283529160200191612e3a565b820191906000526020600020905b815481529060010190602001808311612e1d57829003601f168201915b50505050508152602001600682018054600181600116156101000203166002900480601f016020809104026020016040519081016040528092919081815260200182805460018160011615610100020316600290048015612edc5780601f10612eb157610100808354040283529160200191612edc565b820191906000526020600020905b815481529060010190602001808311612ebf57829003601f168201915b50505050508152602001600782018054600181600116156101000203166002900480601f016020809104026020016040519081016040528092919081815260200182805460018160011615610100020316600290048015612f7e5780601f10612f5357610100808354040283529160200191612f7e565b820191906000526020600020905b815481529060010190602001808311612f6157829003601f168201915b5050505050815260200160088201548152602001600982018054600181600116156101000203166002900480601f01602080910402602001604051908101604052809291908181526020018280546001816001161561010002031660029004801561302a5780601f10612fff5761010080835404028352916020019161302a565b820191906000526020600020905b81548152906001019060200180831161300d57829003601f168201915b50505050508152602001600a8201548152602001600b820180548060200260200160405190810160405280929190818152602001828054801561308c57602002820191906000526020600020905b815481526020019060010190808311613078575b50505050508152602001600c820160009054906101000a900460ff1660068111156130b357fe5b60068111156130be57fe5b8152602001600c820160019054906101000a900473ffffffffffffffffffffffffffffffffffffffff1673ffffffffffffffffffffffffffffffffffffffff1673ffffffffffffffffffffffffffffffffffffffff168152602001600d820160009054906101000a900473ffffffffffffffffffffffffffffffffffffffff1673ffffffffffffffffffffffffffffffffffffffff1673ffffffffffffffffffffffffffffffffffffffff168152602001600e820160009054906101000a900473ffffffffffffffffffffffffffffffffffffffff1673ffffffffffffffffffffffffffffffffffffffff1673ffffffffffffffffffffffffffffffffffffffff168152505090508060000151995080602001519850806040015197508060600151965080610140015195508061018001519450806101a001519350806101c001519250806101e001519150509193959799909294969850565b61322133613238565b151561322c57600080fd5b61323581614372565b50565b600061324e82600061422a90919063ffffffff16565b9050919050565b61325e33613238565b151561326957600080fd5b6009600082815260200190815260200160002060010160009054906101000a900473ffffffffffffffffffffffffffffffffffffffff168073ffffffffffffffffffffffffffffffffffffffff163373ffffffffffffffffffffffffffffffffffffffff161415156132da57600080fd5b600060096000848152602001908152602001600020905060018160080160006101000a81548160ff0219169083600481111561331257fe5b02179055507e3260cac5be8a3ee788081a5ebb9ddedc21351f222a74d9553c1482bb0c8d34836040518082815260200191505060405180910390a1505050565b61335b336121a1565b151561336657600080fd5b806002600681111561337457fe5b600a6000838152602001908152602001600020600c0160009054906101000a900460ff1660068111156133a357fe5b1415156133af57600080fd5b6000600a600084815260200190815260200160002090503381600d0160006101000a81548173ffffffffffffffffffffffffffffffffffffffff021916908373ffffffffffffffffffffffffffffffffffffffff160217905550600381600c0160006101000a81548160ff0219169083600681111561342a57fe5b0217905550338160020160006101000a81548173ffffffffffffffffffffffffffffffffffffffff021916908373ffffffffffffffffffffffffffffffffffffffff1602179055507fc4e50a10ecdbba8d26cab330220ec6f89afc954c92251c4e529542119b85c084836040518082815260200191505060405180910390a1505050565b6134b7336121a1565b15156134c257600080fd5b80600460068111156134d057fe5b600a6000838152602001908152602001600020600c0160009054906101000a900460ff1660068111156134ff57fe5b14151561350b57600080fd5b600a600083815260200190815260200160002060020160009054906101000a900473ffffffffffffffffffffffffffffffffffffffff168073ffffffffffffffffffffffffffffffffffffffff163373ffffffffffffffffffffffffffffffffffffffff1614151561357c57600080fd5b6000600a60008581526020019081526020016000209050600581600c0160006101000a81548160ff021916908360068111156135b457fe5b02179055507f14b6cc590b47a9656821bdb6db91b9e1537ca4d36ff65f265a661c8e13bfd098846040518082815260200191505060405180910390a150505050565b6135ff336143cc565b565b61360a33613ffb565b151561361557600080fd5b61361e81614426565b50565b61362a336127d7565b151561363557600080fd5b61363e81614480565b50565b606061364b6147ba565b600a6000848152602001908152602001600020610200604051908101604052908160008201548152602001600182015481526020016002820160009054906101000a900473ffffffffffffffffffffffffffffffffffffffff1673ffffffffffffffffffffffffffffffffffffffff1673ffffffffffffffffffffffffffffffffffffffff1681526020016003820160009054906101000a900473ffffffffffffffffffffffffffffffffffffffff1673ffffffffffffffffffffffffffffffffffffffff1673ffffffffffffffffffffffffffffffffffffffff168152602001600482018054600181600116156101000203166002900480601f0160208091040260200160405190810160405280929190818152602001828054600181600116156101000203166002900480156137c45780601f10613799576101008083540402835291602001916137c4565b820191906000526020600020905b8154815290600101906020018083116137a757829003601f168201915b50505050508152602001600582018054600181600116156101000203166002900480601f0160208091040260200160405190810160405280929190818152602001828054600181600116156101000203166002900480156138665780601f1061383b57610100808354040283529160200191613866565b820191906000526020600020905b81548152906001019060200180831161384957829003601f168201915b50505050508152602001600682018054600181600116156101000203166002900480601f0160208091040260200160405190810160405280929190818152602001828054600181600116156101000203166002900480156139085780601f106138dd57610100808354040283529160200191613908565b820191906000526020600020905b8154815290600101906020018083116138eb57829003601f168201915b50505050508152602001600782018054600181600116156101000203166002900480601f0160208091040260200160405190810160405280929190818152602001828054600181600116156101000203166002900480156139aa5780601f1061397f576101008083540402835291602001916139aa565b820191906000526020600020905b81548152906001019060200180831161398d57829003601f168201915b5050505050815260200160088201548152602001600982018054600181600116156101000203166002900480601f016020809104026020016040519081016040528092919081815260200182805460018160011615610100020316600290048015613a565780601f10613a2b57610100808354040283529160200191613a56565b820191906000526020600020905b815481529060010190602001808311613a3957829003601f168201915b50505050508152602001600a8201548152602001600b8201805480602002602001604051908101604052809291908181526020018280548015613ab857602002820191906000526020600020905b815481526020019060010190808311613aa4575b50505050508152602001600c820160009054906101000a900460ff166006811115613adf57fe5b6006811115613aea57fe5b8152602001600c820160019054906101000a900473ffffffffffffffffffffffffffffffffffffffff1673ffffffffffffffffffffffffffffffffffffffff1673ffffffffffffffffffffffffffffffffffffffff168152602001600d820160009054906101000a900473ffffffffffffffffffffffffffffffffffffffff1673ffffffffffffffffffffffffffffffffffffffff1673ffffffffffffffffffffffffffffffffffffffff168152602001600e820160009054906101000a900473ffffffffffffffffffffffffffffffffffffffff1673ffffffffffffffffffffffffffffffffffffffff1673ffffffffffffffffffffffffffffffffffffffff16815250509050806101600151915050919050565b6000806000606080606080600080613c166148b1565b600960008c81526020019081526020016000206101206040519081016040529081600082015481526020016001820160009054906101000a900473ffffffffffffffffffffffffffffffffffffffff1673ffffffffffffffffffffffffffffffffffffffff1673ffffffffffffffffffffffffffffffffffffffff1681526020016002820160009054906101000a900473ffffffffffffffffffffffffffffffffffffffff1673ffffffffffffffffffffffffffffffffffffffff1673ffffffffffffffffffffffffffffffffffffffff168152602001600382018054600181600116156101000203166002900480601f016020809104026020016040519081016040528092919081815260200182805460018160011615610100020316600290048015613d855780601f10613d5a57610100808354040283529160200191613d85565b820191906000526020600020905b815481529060010190602001808311613d6857829003601f168201915b50505050508152602001600482018054600181600116156101000203166002900480601f016020809104026020016040519081016040528092919081815260200182805460018160011615610100020316600290048015613e275780601f10613dfc57610100808354040283529160200191613e27565b820191906000526020600020905b815481529060010190602001808311613e0a57829003601f168201915b50505050508152602001600582018054600181600116156101000203166002900480601f016020809104026020016040519081016040528092919081815260200182805460018160011615610100020316600290048015613ec95780601f10613e9e57610100808354040283529160200191613ec9565b820191906000526020600020905b815481529060010190602001808311613eac57829003601f168201915b50505050508152602001600682018054600181600116156101000203166002900480601f016020809104026020016040519081016040528092919081815260200182805460018160011615610100020316600290048015613f6b5780601f10613f4057610100808354040283529160200191613f6b565b820191906000526020600020905b815481529060010190602001808311613f4e57829003601f168201915b50505050508152602001600782015481526020016008820160009054906101000a900460ff166004811115613f9c57fe5b6004811115613fa757fe5b81525050905080600001519950806020015198508060400151975080606001519650806080015195508060a0015194508060c0015193508060e0015192508061010001519150509193959799909294969850565b600061401182600161422a90919063ffffffff16565b9050919050565b614021336144da565b565b61402c33613238565b151561403757600080fd5b806002600481111561404557fe5b6009600083815260200190815260200160002060080160009054906101000a900460ff16600481111561407457fe5b14151561408057600080fd5b6009600083815260200190815260200160002060020160009054906101000a900473ffffffffffffffffffffffffffffffffffffffff168073ffffffffffffffffffffffffffffffffffffffff163373ffffffffffffffffffffffffffffffffffffffff161415156140f157600080fd5b600060096000858152602001908152602001600020905060038160080160006101000a81548160ff0219169083600481111561412957fe5b02179055507fb4f140a99563fe049d6206aa111e9592995d91e14529b45430d6c3b0dcf49975846040518082815260200191505060405180910390a150505050565b61417433614534565b565b61418a81600061458e90919063ffffffff16565b8073ffffffffffffffffffffffffffffffffffffffff167f686dbfa27271f8cf2fe2e5eaeaf43f15d839d20c7e162ca3aee8362b6c6a861b60405160405180910390a250565b6141e481600461463d90919063ffffffff16565b8073ffffffffffffffffffffffffffffffffffffffff167f28b26e7a3d20aedbc5f8f2ebf7da671c0491723a2b78f47a097b0e46dee0714260405160405180910390a250565b60008073ffffffffffffffffffffffffffffffffffffffff168273ffffffffffffffffffffffffffffffffffffffff161415151561426757600080fd5b8260000160008373ffffffffffffffffffffffffffffffffffffffff1673ffffffffffffffffffffffffffffffffffffffff16815260200190815260200160002060009054906101000a900460ff16905092915050565b6142d281600461458e90919063ffffffff16565b8073ffffffffffffffffffffffffffffffffffffffff167fe3f5ed5f263f1f01764a96edfc7d025f511ec5f7d180e8816908b78bcf74f09860405160405180910390a250565b61432c81600361463d90919063ffffffff16565b8073ffffffffffffffffffffffffffffffffffffffff167f71ae26cad02663e3d92efd6ec56031a80d74a20c0ab4183faa8bf262261c9baa60405160405180910390a250565b61438681600061463d90919063ffffffff16565b8073ffffffffffffffffffffffffffffffffffffffff167f423fd8158a2c5772d65f93f5aa158245f414b4da880b0d6d2a3361a3915ad3ae60405160405180910390a250565b6143e081600361458e90919063ffffffff16565b8073ffffffffffffffffffffffffffffffffffffffff167fdb7176e79cffef81cb01767dd0447a0b24bb72ca9778d4b245581086b2a7e6db60405160405180910390a250565b61443a81600161463d90919063ffffffff16565b8073ffffffffffffffffffffffffffffffffffffffff167f2977383b0207d39ef14220620b6cf3e6c9b6e78592af90baeef6614ed2fcd2c660405160405180910390a250565b61449481600261463d90919063ffffffff16565b8073ffffffffffffffffffffffffffffffffffffffff167fd8a7ad7929975a375d2b12bf49040286b5b105df0fe351f10df6d85e5b7142f760405160405180910390a250565b6144ee81600161458e90919063ffffffff16565b8073ffffffffffffffffffffffffffffffffffffffff167fb78e9906c5bae930ccf756a5214c9855b1782f0eb30f9566de2384f034af48f360405160405180910390a250565b61454881600261458e90919063ffffffff16565b8073ffffffffffffffffffffffffffffffffffffffff167f7f865f710a7604537eb2bc0334f082fa642d210a705398937f53663384485b2860405160405180910390a250565b600073ffffffffffffffffffffffffffffffffffffffff168173ffffffffffffffffffffffffffffffffffffffff16141515156145ca57600080fd5b6145d4828261422a565b15156145df57600080fd5b60008260000160008373ffffffffffffffffffffffffffffffffffffffff1673ffffffffffffffffffffffffffffffffffffffff16815260200190815260200160002060006101000a81548160ff0219169083151502179055505050565b600073ffffffffffffffffffffffffffffffffffffffff168173ffffffffffffffffffffffffffffffffffffffff161415151561467957600080fd5b614683828261422a565b15151561468f57600080fd5b60018260000160008373ffffffffffffffffffffffffffffffffffffffff1673ffffffffffffffffffffffffffffffffffffffff16815260200190815260200160002060006101000a81548160ff0219169083151502179055505050565b828054600181600116156101000203166002900490600052602060002090601f016020900481019282601f1061472e57805160ff191683800117855561475c565b8280016001018555821561475c579182015b8281111561475b578251825591602001919060010190614740565b5b5090506147699190614935565b5090565b8280548282559060005260206000209081019282156147a9579160200282015b828111156147a857825182559160200191906001019061478d565b5b5090506147b69190614935565b5090565b610200604051908101604052806000815260200160008152602001600073ffffffffffffffffffffffffffffffffffffffff168152602001600073ffffffffffffffffffffffffffffffffffffffff16815260200160608152602001606081526020016060815260200160608152602001600081526020016060815260200160008152602001606081526020016000600681111561485457fe5b8152602001600073ffffffffffffffffffffffffffffffffffffffff168152602001600073ffffffffffffffffffffffffffffffffffffffff168152602001600073ffffffffffffffffffffffffffffffffffffffff1681525090565b6101206040519081016040528060008152602001600073ffffffffffffffffffffffffffffffffffffffff168152602001600073ffffffffffffffffffffffffffffffffffffffff16815260200160608152602001606081526020016060815260200160608152602001600081526020016000600481111561492f57fe5b81525090565b61495791905b8082111561495357600081600090555060010161493b565b5090565b9056fea165627a7a723058206c68894364f1e3d4f93be11037035b4fe407e78e8ab22f4e53e78a77fc5504e70029",
  "source": "pragma solidity = 0.5.0;\nimport \"../wineaccesscontrol/ConsumerRole.sol\";\nimport \"../wineaccesscontrol/GrowerRole.sol\";\nimport \"../wineaccesscontrol/ProducerRole.sol\";\nimport \"../wineaccesscontrol/RetailerRole.sol\";\nimport \"../wineaccesscontrol/WholesalerRole.sol\";\nimport \"../winecore/Ownable.sol\";\n\n\ncontract SupplyChain is\n    GrowerRole,\n    ProducerRole,\n    WholeSalerRole,\n    RetailerRole,\n    ConsumerRole\n{\n\n    // Define 'owner'\n    address payable owner;\n\n    // Define a variable called 'upc' for Universal Product Code (UPC)\n    uint  upc;\n\n    // Define a variable called 'sku' for Stock Keeping Unit (SKU)\n    uint  sku;\n\n    // Define a variable called 'grapeID' for indentifying grapes.\n    // The Wine Supply Chain Traceability GS1 Application Guideline\n    // does not recommend the use of GTIN (Global Trade Item Number)\n    // for the grapes as it is not yet a branded product\n    // but we still need a way to uniquely identify the grapes.\n    uint  grapeID;\n\n    // Define a public mapping 'grapes' that maps the grapeID to a wine.\n    mapping (uint => Grape) grapes;\n\n    // Define a public mapping 'items' that maps the UPC to a wine.\n    mapping (uint => Wine) items;\n\n    // Define a public mapping 'itemsHistory' that maps the UPC to an array of TxHash,\n    // that track its journey through the supply chain -- to be sent from DApp.\n    mapping (uint => string[]) itemsHistory;\n\n    // Define enum 'GrapeState' with the following values:\n    enum GrapeState\n    {\n        Harvested,  // 0\n        ForSale,    // 1\n        Sold,       // 2\n        Shipped,    // 3\n        Received    // 4\n    }\n\n    // Define enum 'WineState' with the following values:\n    enum WineState\n    {\n        Produced,  // 0\n        Packed,    // 1\n        ForSale,   // 2\n        Sold,      // 3\n        Shipped,   // 4\n        Received,  // 5\n        Purchased   // 6\n    }\n\n    //TODO: set default states for grapes and items\n\n    // Define a struct for grapes\n    struct Grape {\n        uint grapeId; // unique ID of grapes\n        address payable ownerID;  // Metamask-Ethereum address of the current owner as the product moves through different stages\n        address payable growerID; // Metamask-Ethereum address of the Grower\n        string  growerName; // Grower Name\n        string  growerInformation;  // Grower Information\n        string  growerLatitude; // Grower plot Latitude\n        string  growerLongitude;  // Grower plot Longitude\n        uint    grapePrice; // Product Price\n        GrapeState   grapeState;  // Grape State as represented in the enum above\n    }\n\n    // Define a struct 'Item' with the following fields:\n    struct Wine {\n        uint    sku;  // Stock Keeping Unit (SKU)\n        uint    upc; // Universal Product Code (UPC), generated by the Producer, goes on the package, can be verified by the Consumer\n        address payable ownerID;  // Metamask-Ethereum address of the current owner as the product moves through different stages\n        address payable producerID; // Metamask-Ethereum address of the Producer\n        string  producerName; // Producer Name\n        string  producerInformation;  // Producer Information\n        string  producerLatitude; // Producer Latitude\n        string  producerLongitude;  // Producer Longitude\n        uint    productID;  // Product ID potentially a combination of upc + sku\n        string  productNotes; // Product Notes\n        uint    productPrice; // Product Price\n        uint[] grapesIDs; // Array of grapes IDs\n        WineState   wineState;  // Product State as represented in the enum above\n        address payable wholesalerID;  // Metamask-Ethereum address of the Wholesaler\n        address payable retailerID; // Metamask-Ethereum address of the Retailer\n        address payable consumerID; // Metamask-Ethereum address of the Consumer\n    }\n\n    // Define events for grapes\n    event GrapeHarvested(uint grapeId);\n    event GrapeForSale(uint grapeId);\n    event GrapeSold(uint grapeId);\n    event GrapeShipped(uint grapeId);\n    event GrapeReceived(uint grapeId);\n    // Define events for wine\n    event WineProduced(uint upc);\n    event WinePacked(uint upc);\n    event WineForSale(uint upc);\n    event WineSold(uint upc);\n    event WineShipped(uint upc);\n    event WineReceived(uint upc);\n    event WinePurchased(uint upc);\n\n    // Define a modifer that verifies the Caller\n    modifier verifyCaller (address _address) {\n        require(msg.sender == _address);\n        _;\n    }\n\n    // Define a modifier that checks if the paid amount is sufficient to cover the price\n    modifier paidEnough(uint _price) {\n        require(msg.value >= _price);\n        _;\n    }\n\n    modifier checkGrapeValue(uint _grapeID) {\n        _;\n        uint _price = grapes[_grapeID].grapePrice;\n        uint amountToReturn = msg.value - _price;\n        msg.sender.transfer(amountToReturn);\n    }\n\n    // Define a modifier that checks the price and refunds the remaining balance\n    modifier checkValue(uint _upc) {\n        _;\n        uint _price = items[_upc].productPrice;\n        uint amountToReturn = msg.value - _price;\n        items[_upc].ownerID.transfer(amountToReturn); // TODO: check this value\n    }\n\n    // Define a modifier that checks if an grapes.grapeState of a grapeID is Harvested\n    modifier grapeHarvested(uint _grapeId) {\n        require(grapes[_grapeId].grapeState == GrapeState.Harvested);\n        _;\n    }\n\n    // Define a modifier that checks if an item.grapeState of a upc is ForSale\n    modifier grapeForSale(uint _grapeId) {\n        require(grapes[_grapeId].grapeState == GrapeState.ForSale);\n        _;\n    }\n\n    // Define a modifier that checks if an item.grapeState of a upc is Sold\n    modifier grapeSold(uint _grapeId) {\n        require(grapes[_grapeId].grapeState == GrapeState.Sold);\n        _;\n    }\n\n    // Define a modifier that checks if an item.grapeState of a upc is Shipped\n    modifier grapeShipped(uint _grapeId) {\n        require(grapes[_grapeId].grapeState == GrapeState.Shipped);\n        _;\n    }\n\n    // Define a modifier that checks if an item.grapeState of a upc is Received\n    modifier grapeReceived(uint _grapeId) {\n        require(grapes[_grapeId].grapeState == GrapeState.Received);\n        _;\n    }\n\n    // Define a modifier that checks if an item.wineState of a upc is Produced\n    modifier wineProduced(uint _upc) {\n        require(items[_upc].wineState == WineState.Produced);\n        _;\n    }\n\n    // Define a modifier that checks if an item.wineState of a upc is Packed\n    modifier winePacked(uint _upc) {\n        require(items[_upc].wineState == WineState.Packed);\n        _;\n    }\n\n    // Define a modifier that checks if an item.wineState of a upc is ForSale\n    modifier wineForSale(uint _upc) {\n        require(items[_upc].wineState == WineState.ForSale);\n        _;\n    }\n\n    // Define a modifier that checks if an item.wineState of a upc is Sold\n    modifier wineSold(uint _upc) {\n        require(items[_upc].wineState == WineState.Sold);\n        _;\n    }\n\n    // Define a modifier that checks if an item.wineState of a upc is Shipped\n    modifier wineShipped(uint _upc) {\n        require(items[_upc].wineState == WineState.Shipped);\n        _;\n    }\n\n    // Define a modifier that checks if an item.wineState of a upc is Shipped\n    modifier wineReceived(uint _upc) {\n        require(items[_upc].wineState == WineState.Received);\n        _;\n    }\n\n    // Define a modifier that checks if an item.wineState of a upc is Purchased\n    modifier winePurchased(uint _upc) {\n        require(items[_upc].wineState == WineState.Purchased);\n        _;\n    }\n\n    // In the constructor set 'owner' to the address that instantiated the contract\n    // and set 'sku' to 1\n    // and set 'upc' to 1\n    constructor() public payable {\n        owner = msg.sender;\n        sku = 1;\n        upc = 1;\n        grapeID = 1;\n    }\n\n    // Define a function 'kill' if required\n    function kill() public {\n        if (msg.sender == owner) {\n            selfdestruct(owner);\n        }\n    }\n\n    /////////////////////////\n    /// GRAPES OPERATIONS ///\n    /////////////////////////\n\n    // Define a function 'harvestGrape' that allows a grower to mark grapes 'Harvested'\n    function harvestGrapes(\n        uint _grapeID,\n        string memory _growerName,\n        string memory _growerInformation,\n        string memory _growerLatitude,\n        string memory _growerLongitude,\n        uint  _grapePrice)\n    public\n    onlyGrower\n    {\n        // Add the new grapes\n        grapes[_grapeID] = Grape(\n            _grapeID,\n            msg.sender,\n            msg.sender,\n            _growerName,\n            _growerInformation,\n            _growerLatitude,\n            _growerLongitude,\n            _grapePrice,\n            GrapeState.Harvested\n        );\n        // Increment grapeID\n        grapeID = grapeID + 1;\n        // Emit the appropriate event\n        emit GrapeHarvested(_grapeID);\n    }\n\n    // Let a grower that owns havested grapes to put them for sale\n    function addGrapesForSale(uint _grapeID)\n    public\n    onlyGrower\n    verifyCaller(grapes[_grapeID].ownerID)\n    {\n        Grape storage grape = grapes[_grapeID];\n        grape.grapeState = GrapeState.ForSale;\n        emit GrapeForSale(_grapeID);\n    }\n\n    function buyGrapes(uint _grapeID, uint _grapePrice)\n    public\n    payable\n    onlyProducer\n    grapeForSale(_grapeID)\n    paidEnough(_grapePrice)\n    checkGrapeValue(_grapeID)\n    {\n        Grape storage grape = grapes[_grapeID];\n        require(_grapePrice == grape.grapePrice);\n        grape.grapeState = GrapeState.Sold;\n        grape.ownerID = msg.sender;\n        grape.growerID.transfer(_grapePrice);\n        emit GrapeSold(_grapeID);\n    }\n\n    function shipGrapes(uint _grapeID)\n    public\n    onlyGrower\n    grapeSold(_grapeID)\n    verifyCaller(grapes[_grapeID].growerID)\n    {\n        Grape storage grape = grapes[_grapeID];\n        grape.grapeState = GrapeState.Shipped;\n        emit GrapeShipped(_grapeID);\n    }\n\n    function receiveGrapes(uint _grapeID)\n    public\n    onlyProducer\n    grapeShipped(_grapeID)\n    verifyCaller(grapes[_grapeID].ownerID)\n    {\n        Grape storage grape = grapes[_grapeID];\n        grape.grapeState = GrapeState.Received;\n        emit GrapeReceived(_grapeID);\n    }\n\n    function fetchGrape(uint _grapeID) public view returns (\n        uint grapeGrapeID,\n        address payable ownerID,\n        address payable growerID,\n        string memory growerName,\n        string memory growerInformation,\n        string memory growerLatitude,\n        string memory growerLongitude,\n        uint grapePrice,\n        GrapeState grapeState\n    ) {\n        Grape memory grape = grapes[_grapeID];\n        grapeGrapeID = grape.grapeId;\n        ownerID = grape.ownerID;\n        growerID = grape.growerID;\n        growerName = grape.growerName;\n        growerInformation = grape.growerInformation;\n        growerLatitude = grape.growerLatitude;\n        growerLongitude = grape.growerLongitude;\n        grapePrice = grape.grapePrice;\n        grapeState = grape.grapeState;\n    }\n\n\n    ///////////////////////\n    /// WINE OPERATIONS ///\n    //////////////////////\n\n    function produceWine(\n        string memory _producerName,\n        string memory _producerInformation,\n        string memory _producerLatitude,\n        string memory _producerLongitude,\n        string memory _productNotes,\n        uint[] memory _grapesIDs,\n        WineState _wineState\n    )\n    public\n    onlyProducer\n    returns (uint _upc)\n    {\n        uint _productID = sku + upc; // TODO: rework this part.\n        _upc = upc;\n        items[_upc] = Wine(\n            sku,\n            upc,\n            msg.sender,\n            msg.sender,\n            _producerName,\n            _producerInformation,\n            _producerLatitude,\n            _producerLongitude,\n            _productID,\n            _productNotes,\n            0,\n            _grapesIDs,\n            _wineState,\n            address(0),\n            address(0),\n            address(0)\n        );\n        upc = upc + 1;\n        sku = sku + 1;\n        emit WineProduced(_upc);\n    }\n\n    function packWine(uint _upc)\n    public\n    onlyProducer\n    wineProduced(_upc)\n    verifyCaller(items[_upc].ownerID)\n    {\n        Wine storage wine = items[_upc];\n        require(msg.sender == wine.producerID);\n        wine.wineState = WineState.Packed;\n        emit WinePacked(wine.upc);\n    }\n\n\n    function addWineForSale(uint _upc)\n    public\n    onlyProducer\n    winePacked(_upc)\n    verifyCaller(items[_upc].ownerID)\n    {\n        Wine storage wine = items[_upc];\n        require(msg.sender == wine.producerID);\n        wine.wineState = WineState.ForSale;\n        emit WineForSale(wine.upc);\n    }\n\n    function buyWine(uint _upc)\n    public\n    onlyRetailer\n    wineForSale(_upc)\n    {\n        Wine storage wine = items[_upc];\n        wine.retailerID = msg.sender;\n        wine.wineState = WineState.Sold;\n        wine.ownerID = msg.sender;\n        emit WineSold(_upc);\n    }\n\n    function shipWine(uint _upc)\n    public\n    onlyProducer\n    wineSold(_upc)\n    verifyCaller(items[_upc].producerID)\n    {\n        Wine storage wine = items[_upc];\n        wine.wineState = WineState.Shipped;\n        emit WineShipped(_upc);\n    }\n\n    function receiveWine(uint _upc)\n    public\n    onlyRetailer\n    wineShipped(_upc)\n    verifyCaller(items[_upc].ownerID)\n    {\n        Wine storage wine = items[_upc];\n        wine.wineState = WineState.Received;\n        emit WineReceived(_upc);\n    }\n\n    function purchaseWine(uint _upc)\n    public\n    onlyConsumer\n    wineReceived(_upc)\n    {\n        Wine storage wine = items[_upc];\n        wine.wineState = WineState.Purchased;\n        wine.ownerID = msg.sender;\n        emit WinePurchased(_upc);\n    }\n\n    // fetchWine - 3 functions - stack too deep compilation error\n    function fetchWineOne(uint _upc) public view returns (\n        uint wineSku,\n        uint wineUpc,\n        address payable ownerID,\n        address payable producerID,\n        uint productPrice,\n        WineState wineState,\n        address wholesalerID,\n        address retailerID,\n        address consumerID\n    ) {\n        Wine memory wine = items[_upc];\n        wineSku = wine.sku;\n        wineUpc = wine.upc;\n        ownerID = wine.ownerID;\n        producerID = wine.producerID;\n        productPrice = wine.productPrice;\n        wineState = wine.wineState;\n        wholesalerID = wine.wholesalerID;\n        retailerID = wine.retailerID;\n        consumerID = wine.consumerID;\n    }\n\n    // fetchWineTwo\n    function fetchWineTwo(uint _upc) public view returns (\n        uint wineSku,\n        uint wineUpc,\n        string memory producerName,\n        string memory producerInformation,\n        string memory producerLatitude,\n        string memory producerLongitude,\n        uint productID,\n        string memory productNotes,\n        uint productPrice\n    ) {\n        Wine memory wine = items[_upc];\n        wineSku = wine.sku;\n        wineUpc = wine.upc;\n        producerName = wine.producerName;\n        producerInformation = wine.producerInformation;\n        producerLatitude = wine.producerLatitude;\n        producerLongitude = wine.producerLongitude;\n        productID = wine.productID;\n        productNotes = wine.productNotes;\n        productPrice = wine.productPrice;\n    }\n\n    function fetchWineGrapes(uint _upc) public view returns (uint[] memory wineGrapesIDs) {\n        Wine memory wine = items[_upc];\n        wineGrapesIDs = wine.grapesIDs;\n    }\n}\n",
  "sourcePath": "/home/david2099/Documents/nodesall/supplyChainDApp/contracts/winebase/SupplyChain.sol",
  "compiler": {
    "name": "solc",
    "version": "0.5.0+commit.1d4f565a.Emscripten.clang"
  },
  "schemaVersion": "3.0.2",
  "updatedAt": "2019-02-22T21:08:22.836Z",
  "devdoc": {
    "methods": {}
  },
  "userdoc": {
    "methods": {
      "harvestGrapes(uint256,string,string,string,string,uint256)": {
        "notice": "////////////////////// GRAPES OPERATIONS /// //////////////////////"
      },
      "produceWine(string,string,string,string,string,uint256[],uint8)": {
        "notice": "//////////////////// WINE OPERATIONS /// ///////////////////"
      }
    }
  }
}