{
  "contractName": "SupplyChain",
  "abi": [
    {
      "constant": false,
      "inputs": [],
      "name": "renounceGrower",
      "outputs": [],
      "payable": false,
      "stateMutability": "nonpayable",
      "type": "function"
    },
    {
      "constant": false,
      "inputs": [
        {
          "name": "account",
          "type": "address"
        }
      ],
      "name": "addConsumer",
      "outputs": [],
      "payable": false,
      "stateMutability": "nonpayable",
      "type": "function"
    },
    {
      "constant": true,
      "inputs": [
        {
          "name": "account",
          "type": "address"
        }
      ],
      "name": "isRetailer",
      "outputs": [
        {
          "name": "",
          "type": "bool"
        }
      ],
      "payable": false,
      "stateMutability": "view",
      "type": "function"
    },
    {
      "constant": false,
      "inputs": [],
      "name": "renounceConsumer",
      "outputs": [],
      "payable": false,
      "stateMutability": "nonpayable",
      "type": "function"
    },
    {
      "constant": true,
      "inputs": [
        {
          "name": "account",
          "type": "address"
        }
      ],
      "name": "isWholesaler",
      "outputs": [
        {
          "name": "",
          "type": "bool"
        }
      ],
      "payable": false,
      "stateMutability": "view",
      "type": "function"
    },
    {
      "constant": true,
      "inputs": [
        {
          "name": "account",
          "type": "address"
        }
      ],
      "name": "isConsumer",
      "outputs": [
        {
          "name": "",
          "type": "bool"
        }
      ],
      "payable": false,
      "stateMutability": "view",
      "type": "function"
    },
    {
      "constant": false,
      "inputs": [
        {
          "name": "account",
          "type": "address"
        }
      ],
      "name": "addRetailer",
      "outputs": [],
      "payable": false,
      "stateMutability": "nonpayable",
      "type": "function"
    },
    {
      "constant": false,
      "inputs": [
        {
          "name": "account",
          "type": "address"
        }
      ],
      "name": "addGrower",
      "outputs": [],
      "payable": false,
      "stateMutability": "nonpayable",
      "type": "function"
    },
    {
      "constant": true,
      "inputs": [
        {
          "name": "account",
          "type": "address"
        }
      ],
      "name": "isGrower",
      "outputs": [
        {
          "name": "",
          "type": "bool"
        }
      ],
      "payable": false,
      "stateMutability": "view",
      "type": "function"
    },
    {
      "constant": false,
      "inputs": [],
      "name": "renounceRetailer",
      "outputs": [],
      "payable": false,
      "stateMutability": "nonpayable",
      "type": "function"
    },
    {
      "constant": false,
      "inputs": [
        {
          "name": "account",
          "type": "address"
        }
      ],
      "name": "addProducer",
      "outputs": [],
      "payable": false,
      "stateMutability": "nonpayable",
      "type": "function"
    },
    {
      "constant": false,
      "inputs": [
        {
          "name": "account",
          "type": "address"
        }
      ],
      "name": "addWholesaler",
      "outputs": [],
      "payable": false,
      "stateMutability": "nonpayable",
      "type": "function"
    },
    {
      "constant": true,
      "inputs": [
        {
          "name": "account",
          "type": "address"
        }
      ],
      "name": "isProducer",
      "outputs": [
        {
          "name": "",
          "type": "bool"
        }
      ],
      "payable": false,
      "stateMutability": "view",
      "type": "function"
    },
    {
      "constant": false,
      "inputs": [],
      "name": "renounceProducer",
      "outputs": [],
      "payable": false,
      "stateMutability": "nonpayable",
      "type": "function"
    },
    {
      "constant": false,
      "inputs": [],
      "name": "renounceWholesaler",
      "outputs": [],
      "payable": false,
      "stateMutability": "nonpayable",
      "type": "function"
    },
    {
      "inputs": [],
      "payable": true,
      "stateMutability": "payable",
      "type": "constructor"
    },
    {
      "anonymous": false,
      "inputs": [
        {
          "indexed": false,
          "name": "grapeId",
          "type": "uint256"
        }
      ],
      "name": "GrapeHarvested",
      "type": "event"
    },
    {
      "anonymous": false,
      "inputs": [
        {
          "indexed": false,
          "name": "grapeId",
          "type": "uint256"
        }
      ],
      "name": "GrapeForSale",
      "type": "event"
    },
    {
      "anonymous": false,
      "inputs": [
        {
          "indexed": false,
          "name": "grapeId",
          "type": "uint256"
        }
      ],
      "name": "GrapeSold",
      "type": "event"
    },
    {
      "anonymous": false,
      "inputs": [
        {
          "indexed": false,
          "name": "grapeId",
          "type": "uint256"
        }
      ],
      "name": "GrapeShipped",
      "type": "event"
    },
    {
      "anonymous": false,
      "inputs": [
        {
          "indexed": false,
          "name": "grapeId",
          "type": "uint256"
        }
      ],
      "name": "GrapeReceived",
      "type": "event"
    },
    {
      "anonymous": false,
      "inputs": [
        {
          "indexed": false,
          "name": "upc",
          "type": "uint256"
        }
      ],
      "name": "WineProduced",
      "type": "event"
    },
    {
      "anonymous": false,
      "inputs": [
        {
          "indexed": false,
          "name": "upc",
          "type": "uint256"
        }
      ],
      "name": "WinePacked",
      "type": "event"
    },
    {
      "anonymous": false,
      "inputs": [
        {
          "indexed": false,
          "name": "upc",
          "type": "uint256"
        }
      ],
      "name": "WineForSale",
      "type": "event"
    },
    {
      "anonymous": false,
      "inputs": [
        {
          "indexed": false,
          "name": "upc",
          "type": "uint256"
        }
      ],
      "name": "WineForSold",
      "type": "event"
    },
    {
      "anonymous": false,
      "inputs": [
        {
          "indexed": false,
          "name": "upc",
          "type": "uint256"
        }
      ],
      "name": "WineForShipped",
      "type": "event"
    },
    {
      "anonymous": false,
      "inputs": [
        {
          "indexed": false,
          "name": "upc",
          "type": "uint256"
        }
      ],
      "name": "WineReceived",
      "type": "event"
    },
    {
      "anonymous": false,
      "inputs": [
        {
          "indexed": false,
          "name": "upc",
          "type": "uint256"
        }
      ],
      "name": "WinePurchased",
      "type": "event"
    },
    {
      "anonymous": false,
      "inputs": [
        {
          "indexed": true,
          "name": "account",
          "type": "address"
        }
      ],
      "name": "ConsumerAdded",
      "type": "event"
    },
    {
      "anonymous": false,
      "inputs": [
        {
          "indexed": true,
          "name": "account",
          "type": "address"
        }
      ],
      "name": "ConsumerRemoved",
      "type": "event"
    },
    {
      "anonymous": false,
      "inputs": [
        {
          "indexed": true,
          "name": "account",
          "type": "address"
        }
      ],
      "name": "RetailerAdded",
      "type": "event"
    },
    {
      "anonymous": false,
      "inputs": [
        {
          "indexed": true,
          "name": "account",
          "type": "address"
        }
      ],
      "name": "RetailerRemoved",
      "type": "event"
    },
    {
      "anonymous": false,
      "inputs": [
        {
          "indexed": true,
          "name": "account",
          "type": "address"
        }
      ],
      "name": "WholesalerAdded",
      "type": "event"
    },
    {
      "anonymous": false,
      "inputs": [
        {
          "indexed": true,
          "name": "account",
          "type": "address"
        }
      ],
      "name": "WholesalerRemoved",
      "type": "event"
    },
    {
      "anonymous": false,
      "inputs": [
        {
          "indexed": true,
          "name": "account",
          "type": "address"
        }
      ],
      "name": "ProducerAdded",
      "type": "event"
    },
    {
      "anonymous": false,
      "inputs": [
        {
          "indexed": true,
          "name": "account",
          "type": "address"
        }
      ],
      "name": "ProducerRemoved",
      "type": "event"
    },
    {
      "anonymous": false,
      "inputs": [
        {
          "indexed": true,
          "name": "account",
          "type": "address"
        }
      ],
      "name": "GrowerAdded",
      "type": "event"
    },
    {
      "anonymous": false,
      "inputs": [
        {
          "indexed": true,
          "name": "account",
          "type": "address"
        }
      ],
      "name": "GrowerRemoved",
      "type": "event"
    },
    {
      "constant": false,
      "inputs": [],
      "name": "kill",
      "outputs": [],
      "payable": false,
      "stateMutability": "nonpayable",
      "type": "function"
    },
    {
      "constant": false,
      "inputs": [
        {
          "name": "_grapeID",
          "type": "uint256"
        },
        {
          "name": "_growerName",
          "type": "string"
        },
        {
          "name": "_growerInformation",
          "type": "string"
        },
        {
          "name": "_growerLatitude",
          "type": "string"
        },
        {
          "name": "_growerLongitude",
          "type": "string"
        },
        {
          "name": "_grapePrice",
          "type": "uint256"
        }
      ],
      "name": "harvestGrapes",
      "outputs": [],
      "payable": false,
      "stateMutability": "nonpayable",
      "type": "function"
    },
    {
      "constant": false,
      "inputs": [
        {
          "name": "_grapeID",
          "type": "uint256"
        }
      ],
      "name": "addGrapesForSale",
      "outputs": [],
      "payable": false,
      "stateMutability": "nonpayable",
      "type": "function"
    },
    {
      "constant": true,
      "inputs": [
        {
          "name": "_grapeID",
          "type": "uint256"
        }
      ],
      "name": "fetchGrape",
      "outputs": [
        {
          "name": "grapeGrapeID",
          "type": "uint256"
        },
        {
          "name": "ownerID",
          "type": "address"
        },
        {
          "name": "growerID",
          "type": "address"
        },
        {
          "name": "growerName",
          "type": "string"
        },
        {
          "name": "growerInformation",
          "type": "string"
        },
        {
          "name": "growerLatitude",
          "type": "string"
        },
        {
          "name": "growerLongitude",
          "type": "string"
        },
        {
          "name": "grapePrice",
          "type": "uint256"
        },
        {
          "name": "grapeState",
          "type": "uint8"
        }
      ],
      "payable": false,
      "stateMutability": "view",
      "type": "function"
    },
    {
      "constant": false,
      "inputs": [
        {
          "name": "_grapeID",
          "type": "uint256"
        },
        {
          "name": "_grapePrice",
          "type": "uint256"
        }
      ],
      "name": "buyGrapes",
      "outputs": [],
      "payable": true,
      "stateMutability": "payable",
      "type": "function"
    }
  ],
  "bytecode": "0x60806040526200001e33620000e5640100000000026401000000009004565b62000038336200014f640100000000026401000000009004565b6200005233620001b9640100000000026401000000009004565b6200006c3362000223640100000000026401000000009004565b62000086336200028d640100000000026401000000009004565b33600560006101000a81548173ffffffffffffffffffffffffffffffffffffffff021916908373ffffffffffffffffffffffffffffffffffffffff1602179055506001600781905550600160068190555060016008819055506200044f565b62000109816000620002f76401000000000262001a42179091906401000000009004565b8073ffffffffffffffffffffffffffffffffffffffff167f423fd8158a2c5772d65f93f5aa158245f414b4da880b0d6d2a3361a3915ad3ae60405160405180910390a250565b62000173816001620002f76401000000000262001a42179091906401000000009004565b8073ffffffffffffffffffffffffffffffffffffffff167f2977383b0207d39ef14220620b6cf3e6c9b6e78592af90baeef6614ed2fcd2c660405160405180910390a250565b620001dd816002620002f76401000000000262001a42179091906401000000009004565b8073ffffffffffffffffffffffffffffffffffffffff167fd8a7ad7929975a375d2b12bf49040286b5b105df0fe351f10df6d85e5b7142f760405160405180910390a250565b62000247816003620002f76401000000000262001a42179091906401000000009004565b8073ffffffffffffffffffffffffffffffffffffffff167f71ae26cad02663e3d92efd6ec56031a80d74a20c0ab4183faa8bf262261c9baa60405160405180910390a250565b620002b1816004620002f76401000000000262001a42179091906401000000009004565b8073ffffffffffffffffffffffffffffffffffffffff167f28b26e7a3d20aedbc5f8f2ebf7da671c0491723a2b78f47a097b0e46dee0714260405160405180910390a250565b600073ffffffffffffffffffffffffffffffffffffffff168173ffffffffffffffffffffffffffffffffffffffff16141515156200033457600080fd5b6200034f8282620003ba640100000000026401000000009004565b1515156200035c57600080fd5b60018260000160008373ffffffffffffffffffffffffffffffffffffffff1673ffffffffffffffffffffffffffffffffffffffff16815260200190815260200160002060006101000a81548160ff0219169083151502179055505050565b60008073ffffffffffffffffffffffffffffffffffffffff168273ffffffffffffffffffffffffffffffffffffffff1614151515620003f857600080fd5b8260000160008373ffffffffffffffffffffffffffffffffffffffff1673ffffffffffffffffffffffffffffffffffffffff16815260200190815260200160002060009054906101000a900460ff16905092915050565b611c47806200045f6000396000f3fe608060405260043610610112576000357c0100000000000000000000000000000000000000000000000000000000900463ffffffff1680630c11596b14610117578063112940f91461012e57806341c0e1b51461017f57806353f80c0f146101965780635da09b88146101ce57806361e6982d1461023757806364d1ba1f1461024e578063834ff739146102b757806384f66ba7146103205780638ec4f505146105c1578063b8b06c8614610612578063c4d10d7414610663578063c64b7e8d146106cc578063db0e6a2f14610707578063ddf801661461071e578063de63bdb91461076f578063e2dde052146107c0578063f552102214610a41578063f9b867d814610aaa578063fe19d15214610ac1575b600080fd5b34801561012357600080fd5b5061012c610ad8565b005b34801561013a57600080fd5b5061017d6004803603602081101561015157600080fd5b81019080803573ffffffffffffffffffffffffffffffffffffffff169060200190929190505050610ae3565b005b34801561018b57600080fd5b50610194610b03565b005b6101cc600480360360408110156101ac57600080fd5b810190808035906020019092919080359060200190929190505050610b96565b005b3480156101da57600080fd5b5061021d600480360360208110156101f157600080fd5b81019080803573ffffffffffffffffffffffffffffffffffffffff169060200190929190505050610d2c565b604051808215151515815260200191505060405180910390f35b34801561024357600080fd5b5061024c610d49565b005b34801561025a57600080fd5b5061029d6004803603602081101561027157600080fd5b81019080803573ffffffffffffffffffffffffffffffffffffffff169060200190929190505050610d54565b604051808215151515815260200191505060405180910390f35b3480156102c357600080fd5b50610306600480360360208110156102da57600080fd5b81019080803573ffffffffffffffffffffffffffffffffffffffff169060200190929190505050610d71565b604051808215151515815260200191505060405180910390f35b34801561032c57600080fd5b506105bf600480360360c081101561034357600080fd5b81019080803590602001909291908035906020019064010000000081111561036a57600080fd5b82018360208201111561037c57600080fd5b8035906020019184600183028401116401000000008311171561039e57600080fd5b91908080601f016020809104026020016040519081016040528093929190818152602001838380828437600081840152601f19601f8201169050808301925050505050505091929192908035906020019064010000000081111561040157600080fd5b82018360208201111561041357600080fd5b8035906020019184600183028401116401000000008311171561043557600080fd5b91908080601f016020809104026020016040519081016040528093929190818152602001838380828437600081840152601f19601f8201169050808301925050505050505091929192908035906020019064010000000081111561049857600080fd5b8201836020820111156104aa57600080fd5b803590602001918460018302840111640100000000831117156104cc57600080fd5b91908080601f016020809104026020016040519081016040528093929190818152602001838380828437600081840152601f19601f8201169050808301925050505050505091929192908035906020019064010000000081111561052f57600080fd5b82018360208201111561054157600080fd5b8035906020019184600183028401116401000000008311171561056357600080fd5b91908080601f016020809104026020016040519081016040528093929190818152602001838380828437600081840152601f19601f82011690508083019250505050505050919291929080359060200190929190505050610d8e565b005b3480156105cd57600080fd5b50610610600480360360208110156105e457600080fd5b81019080803573ffffffffffffffffffffffffffffffffffffffff169060200190929190505050610fbc565b005b34801561061e57600080fd5b506106616004803603602081101561063557600080fd5b81019080803573ffffffffffffffffffffffffffffffffffffffff169060200190929190505050610fdc565b005b34801561066f57600080fd5b506106b26004803603602081101561068657600080fd5b81019080803573ffffffffffffffffffffffffffffffffffffffff169060200190929190505050610ffc565b604051808215151515815260200191505060405180910390f35b3480156106d857600080fd5b50610705600480360360208110156106ef57600080fd5b8101908080359060200190929190505050611019565b005b34801561071357600080fd5b5061071c611102565b005b34801561072a57600080fd5b5061076d6004803603602081101561074157600080fd5b81019080803573ffffffffffffffffffffffffffffffffffffffff16906020019092919050505061110d565b005b34801561077b57600080fd5b506107be6004803603602081101561079257600080fd5b81019080803573ffffffffffffffffffffffffffffffffffffffff16906020019092919050505061112d565b005b3480156107cc57600080fd5b506107f9600480360360208110156107e357600080fd5b810190808035906020019092919050505061114d565b604051808a81526020018973ffffffffffffffffffffffffffffffffffffffff1673ffffffffffffffffffffffffffffffffffffffff1681526020018873ffffffffffffffffffffffffffffffffffffffff1673ffffffffffffffffffffffffffffffffffffffff1681526020018060200180602001806020018060200187815260200186600481111561088957fe5b60ff16815260200185810385528b818151815260200191508051906020019080838360005b838110156108c95780820151818401526020810190506108ae565b50505050905090810190601f1680156108f65780820380516001836020036101000a031916815260200191505b5085810384528a818151815260200191508051906020019080838360005b8381101561092f578082015181840152602081019050610914565b50505050905090810190601f16801561095c5780820380516001836020036101000a031916815260200191505b50858103835289818151815260200191508051906020019080838360005b8381101561099557808201518184015260208101905061097a565b50505050905090810190601f1680156109c25780820380516001836020036101000a031916815260200191505b50858103825288818151815260200191508051906020019080838360005b838110156109fb5780820151818401526020810190506109e0565b50505050905090810190601f168015610a285780820380516001836020036101000a031916815260200191505b509d505050505050505050505050505060405180910390f35b348015610a4d57600080fd5b50610a9060048036036020811015610a6457600080fd5b81019080803573ffffffffffffffffffffffffffffffffffffffff169060200190929190505050611548565b604051808215151515815260200191505060405180910390f35b348015610ab657600080fd5b50610abf611565565b005b348015610acd57600080fd5b50610ad6611570565b005b610ae13361157b565b565b610aec33610d71565b1515610af757600080fd5b610b00816115d5565b50565b600560009054906101000a900473ffffffffffffffffffffffffffffffffffffffff1673ffffffffffffffffffffffffffffffffffffffff163373ffffffffffffffffffffffffffffffffffffffff161415610b9457600560009054906101000a900473ffffffffffffffffffffffffffffffffffffffff1673ffffffffffffffffffffffffffffffffffffffff16ff5b565b610b9f33611548565b1515610baa57600080fd5b8160016004811115610bb857fe5b6009600083815260200190815260200160002060080160009054906101000a900460ff166004811115610be757fe5b141515610bf357600080fd5b81803410151515610c0357600080fd5b600060096000868152602001908152602001600020905060028160080160006101000a81548160ff02191690836004811115610c3b57fe5b0217905550338160010160006101000a81548173ffffffffffffffffffffffffffffffffffffffff021916908373ffffffffffffffffffffffffffffffffffffffff1602179055508060020160009054906101000a900473ffffffffffffffffffffffffffffffffffffffff1673ffffffffffffffffffffffffffffffffffffffff166108fc349081150290604051600060405180830381858888f19350505050158015610ced573d6000803e3d6000fd5b507fdbcd9442ea51662810e0fc9e143a1cee86d83e1010e20963373aa6bf17ba439d856040518082815260200191505060405180910390a15050505050565b6000610d4282600361162f90919063ffffffff16565b9050919050565b610d52336116c3565b565b6000610d6a82600261162f90919063ffffffff16565b9050919050565b6000610d8782600461162f90919063ffffffff16565b9050919050565b610d9733610ffc565b1515610da257600080fd5b610120604051908101604052808781526020013373ffffffffffffffffffffffffffffffffffffffff1681526020013373ffffffffffffffffffffffffffffffffffffffff16815260200186815260200185815260200184815260200183815260200182815260200160006004811115610e1857fe5b815250600960008881526020019081526020016000206000820151816000015560208201518160010160006101000a81548173ffffffffffffffffffffffffffffffffffffffff021916908373ffffffffffffffffffffffffffffffffffffffff16021790555060408201518160020160006101000a81548173ffffffffffffffffffffffffffffffffffffffff021916908373ffffffffffffffffffffffffffffffffffffffff1602179055506060820151816003019080519060200190610ee2929190611af2565b506080820151816004019080519060200190610eff929190611af2565b5060a0820151816005019080519060200190610f1c929190611af2565b5060c0820151816006019080519060200190610f39929190611af2565b5060e082015181600701556101008201518160080160006101000a81548160ff02191690836004811115610f6957fe5b02179055509050506001600854016008819055507fe98cb48b7c65f60e2a8d0b20a8dbaac7cc3c2c897044fe92d5f5d3f97382ca75866040518082815260200191505060405180910390a1505050505050565b610fc533610d2c565b1515610fd057600080fd5b610fd98161171d565b50565b610fe533610ffc565b1515610ff057600080fd5b610ff981611777565b50565b600061101282600061162f90919063ffffffff16565b9050919050565b61102233610ffc565b151561102d57600080fd5b60006009600083815260200190815260200160002090508060010160009054906101000a900473ffffffffffffffffffffffffffffffffffffffff1673ffffffffffffffffffffffffffffffffffffffff163373ffffffffffffffffffffffffffffffffffffffff161415156110a257600080fd5b60018160080160006101000a81548160ff021916908360048111156110c357fe5b02179055507e3260cac5be8a3ee788081a5ebb9ddedc21351f222a74d9553c1482bb0c8d34826040518082815260200191505060405180910390a15050565b61110b336117d1565b565b61111633611548565b151561112157600080fd5b61112a8161182b565b50565b61113633610d54565b151561114157600080fd5b61114a81611885565b50565b6000806000606080606080600080611163611b72565b600960008c81526020019081526020016000206101206040519081016040529081600082015481526020016001820160009054906101000a900473ffffffffffffffffffffffffffffffffffffffff1673ffffffffffffffffffffffffffffffffffffffff1673ffffffffffffffffffffffffffffffffffffffff1681526020016002820160009054906101000a900473ffffffffffffffffffffffffffffffffffffffff1673ffffffffffffffffffffffffffffffffffffffff1673ffffffffffffffffffffffffffffffffffffffff168152602001600382018054600181600116156101000203166002900480601f0160208091040260200160405190810160405280929190818152602001828054600181600116156101000203166002900480156112d25780601f106112a7576101008083540402835291602001916112d2565b820191906000526020600020905b8154815290600101906020018083116112b557829003601f168201915b50505050508152602001600482018054600181600116156101000203166002900480601f0160208091040260200160405190810160405280929190818152602001828054600181600116156101000203166002900480156113745780601f1061134957610100808354040283529160200191611374565b820191906000526020600020905b81548152906001019060200180831161135757829003601f168201915b50505050508152602001600582018054600181600116156101000203166002900480601f0160208091040260200160405190810160405280929190818152602001828054600181600116156101000203166002900480156114165780601f106113eb57610100808354040283529160200191611416565b820191906000526020600020905b8154815290600101906020018083116113f957829003601f168201915b50505050508152602001600682018054600181600116156101000203166002900480601f0160208091040260200160405190810160405280929190818152602001828054600181600116156101000203166002900480156114b85780601f1061148d576101008083540402835291602001916114b8565b820191906000526020600020905b81548152906001019060200180831161149b57829003601f168201915b50505050508152602001600782015481526020016008820160009054906101000a900460ff1660048111156114e957fe5b60048111156114f457fe5b81525050905080600001519950806020015198508060400151975080606001519650806080015195508060a0015194508060c0015193508060e0015192508061010001519150509193959799909294969850565b600061155e82600161162f90919063ffffffff16565b9050919050565b61156e336118df565b565b61157933611939565b565b61158f81600061199390919063ffffffff16565b8073ffffffffffffffffffffffffffffffffffffffff167f686dbfa27271f8cf2fe2e5eaeaf43f15d839d20c7e162ca3aee8362b6c6a861b60405160405180910390a250565b6115e9816004611a4290919063ffffffff16565b8073ffffffffffffffffffffffffffffffffffffffff167f28b26e7a3d20aedbc5f8f2ebf7da671c0491723a2b78f47a097b0e46dee0714260405160405180910390a250565b60008073ffffffffffffffffffffffffffffffffffffffff168273ffffffffffffffffffffffffffffffffffffffff161415151561166c57600080fd5b8260000160008373ffffffffffffffffffffffffffffffffffffffff1673ffffffffffffffffffffffffffffffffffffffff16815260200190815260200160002060009054906101000a900460ff16905092915050565b6116d781600461199390919063ffffffff16565b8073ffffffffffffffffffffffffffffffffffffffff167fe3f5ed5f263f1f01764a96edfc7d025f511ec5f7d180e8816908b78bcf74f09860405160405180910390a250565b611731816003611a4290919063ffffffff16565b8073ffffffffffffffffffffffffffffffffffffffff167f71ae26cad02663e3d92efd6ec56031a80d74a20c0ab4183faa8bf262261c9baa60405160405180910390a250565b61178b816000611a4290919063ffffffff16565b8073ffffffffffffffffffffffffffffffffffffffff167f423fd8158a2c5772d65f93f5aa158245f414b4da880b0d6d2a3361a3915ad3ae60405160405180910390a250565b6117e581600361199390919063ffffffff16565b8073ffffffffffffffffffffffffffffffffffffffff167fdb7176e79cffef81cb01767dd0447a0b24bb72ca9778d4b245581086b2a7e6db60405160405180910390a250565b61183f816001611a4290919063ffffffff16565b8073ffffffffffffffffffffffffffffffffffffffff167f2977383b0207d39ef14220620b6cf3e6c9b6e78592af90baeef6614ed2fcd2c660405160405180910390a250565b611899816002611a4290919063ffffffff16565b8073ffffffffffffffffffffffffffffffffffffffff167fd8a7ad7929975a375d2b12bf49040286b5b105df0fe351f10df6d85e5b7142f760405160405180910390a250565b6118f381600161199390919063ffffffff16565b8073ffffffffffffffffffffffffffffffffffffffff167fb78e9906c5bae930ccf756a5214c9855b1782f0eb30f9566de2384f034af48f360405160405180910390a250565b61194d81600261199390919063ffffffff16565b8073ffffffffffffffffffffffffffffffffffffffff167f7f865f710a7604537eb2bc0334f082fa642d210a705398937f53663384485b2860405160405180910390a250565b600073ffffffffffffffffffffffffffffffffffffffff168173ffffffffffffffffffffffffffffffffffffffff16141515156119cf57600080fd5b6119d9828261162f565b15156119e457600080fd5b60008260000160008373ffffffffffffffffffffffffffffffffffffffff1673ffffffffffffffffffffffffffffffffffffffff16815260200190815260200160002060006101000a81548160ff0219169083151502179055505050565b600073ffffffffffffffffffffffffffffffffffffffff168173ffffffffffffffffffffffffffffffffffffffff1614151515611a7e57600080fd5b611a88828261162f565b151515611a9457600080fd5b60018260000160008373ffffffffffffffffffffffffffffffffffffffff1673ffffffffffffffffffffffffffffffffffffffff16815260200190815260200160002060006101000a81548160ff0219169083151502179055505050565b828054600181600116156101000203166002900490600052602060002090601f016020900481019282601f10611b3357805160ff1916838001178555611b61565b82800160010185558215611b61579182015b82811115611b60578251825591602001919060010190611b45565b5b509050611b6e9190611bf6565b5090565b6101206040519081016040528060008152602001600073ffffffffffffffffffffffffffffffffffffffff168152602001600073ffffffffffffffffffffffffffffffffffffffff168152602001606081526020016060815260200160608152602001606081526020016000815260200160006004811115611bf057fe5b81525090565b611c1891905b80821115611c14576000816000905550600101611bfc565b5090565b9056fea165627a7a723058201e42f464110263524af81e0f20f3c07c27a5230892f9681407cde309a2ac3f260029",
  "source": "pragma solidity = 0.5.0;\nimport \"../wineaccesscontrol/ConsumerRole.sol\";\nimport \"../wineaccesscontrol/GrowerRole.sol\";\nimport \"../wineaccesscontrol/ProducerRole.sol\";\nimport \"../wineaccesscontrol/RetailerRole.sol\";\nimport \"../wineaccesscontrol/WholesalerRole.sol\";\n\n\ncontract SupplyChain is\n    GrowerRole,\n    ProducerRole,\n    WholeSalerRole,\n    RetailerRole,\n    ConsumerRole\n{\n\n    // Define 'owner'\n    address payable owner;\n\n    // Define a variable called 'upc' for Universal Product Code (UPC)\n    uint  upc;\n\n    // Define a variable called 'sku' for Stock Keeping Unit (SKU)\n    uint  sku;\n\n    // Define a variable called 'grapeID' for indentifying grapes.\n    // The Wine Supply Chain Traceability GS1 Application Guideline\n    // does not recommend the use of GTIN (Global Trade Item Number)\n    // for the grapes as it is not yet a branded product\n    // but we still need a way to uniquely identify the grapes.\n    uint  grapeID;\n\n    // Define a public mapping 'grapes' that maps the grapeID to a wine.\n    mapping (uint => Grape) grapes;\n\n    // Define a public mapping 'items' that maps the UPC to a wine.\n    mapping (uint => Item) items;\n\n    // Define a public mapping 'itemsHistory' that maps the UPC to an array of TxHash,\n    // that track its journey through the supply chain -- to be sent from DApp.\n    mapping (uint => string[]) itemsHistory;\n\n    // Define enum 'GrapeState' with the following values:\n    enum GrapeState\n    {\n        Harvested,  // 0\n        ForSale,    // 1\n        Sold,       // 2\n        Shipped,    // 3\n        Received    // 4\n    }\n\n    // Define enum 'WineState' with the following values:\n    enum WineState\n    {\n        Produced,  // 0\n        Packed,    // 1\n        ForSale,   // 2\n        Sold,      // 3\n        Shipped,   // 4\n        Received,  // 5\n        Purchased   // 6\n    }\n\n    //TODO: set default states for grapes and items\n\n    // Define a struct for grapes\n    struct Grape {\n        uint grapeId; // unique ID of grapes\n        address payable ownerID;  // Metamask-Ethereum address of the current owner as the product moves through different stages\n        address payable growerID; // Metamask-Ethereum address of the Grower\n        string  growerName; // Grower Name\n        string  growerInformation;  // Grower Information\n        string  growerLatitude; // Grower plot Latitude\n        string  growerLongitude;  // Grower plot Longitude\n        uint    grapePrice; // Product Price\n        GrapeState   grapeState;  // Grape State as represented in the enum above\n    }\n\n    // Define a struct 'Item' with the following fields:\n    struct Item {\n        uint    sku;  // Stock Keeping Unit (SKU)\n        uint    upc; // Universal Product Code (UPC), generated by the Producer, goes on the package, can be verified by the Consumer\n        address payable ownerID;  // Metamask-Ethereum address of the current owner as the product moves through different stages\n        address payable producerID; // Metamask-Ethereum address of the Producer\n        string  producerName; // Producer Name\n        string  producerInformation;  // Producer Information\n        string  producerLatitude; // Producer Latitude\n        string  producerLongitude;  // Producer Longitude\n        uint    productID;  // Product ID potentially a combination of upc + sku\n        string  productNotes; // Product Notes\n        uint    productPrice; // Product Price\n        Grape[] grapes; // Array of grapes\n        WineState   wineState;  // Product State as represented in the enum above\n        address payable wholesalerID;  // Metamask-Ethereum address of the Wholesaler\n        address payable retailerID; // Metamask-Ethereum address of the Retailer\n        address payable consumerID; // Metamask-Ethereum address of the Consumer\n    }\n\n    // Define events for grapes\n    event GrapeHarvested(uint grapeId);\n    event GrapeForSale(uint grapeId);\n    event GrapeSold(uint grapeId);\n    event GrapeShipped(uint grapeId);\n    event GrapeReceived(uint grapeId);\n    // Define events for wine\n    event WineProduced(uint upc);\n    event WinePacked(uint upc);\n    event WineForSale(uint upc);\n    event WineForSold(uint upc);\n    event WineForShipped(uint upc);\n    event WineReceived(uint upc);\n    event WinePurchased(uint upc);\n\n    // Define a modifer that checks to see if msg.sender == owner of the contract\n    modifier onlyOwner() {\n        require(msg.sender == owner);\n        _;\n    }\n\n    // Define a modifer that verifies the Caller\n    modifier verifyCaller (address _address) {\n        require(msg.sender == _address);\n        _;\n    }\n\n    // Define a modifier that checks if the paid amount is sufficient to cover the price\n    modifier paidEnough(uint _price) {\n        require(msg.value >= _price);\n        _;\n    }\n\n    modifier checkGrapeValue(uint _grapeID) {\n        _;\n        uint _price = grapes[_grapeID].grapePrice;\n        uint amountToReturn = msg.value - _price;\n        msg.sender.transfer(amountToReturn);\n    }\n\n\n    // Define a modifier that checks the price and refunds the remaining balance\n    modifier checkValue(uint _upc) {\n        _;\n        uint _price = items[_upc].productPrice;\n        uint amountToReturn = msg.value - _price;\n        items[_upc].consumerID.transfer(amountToReturn);\n    }\n\n    // Define a modifier that checks if an grapes.grapeState of a grapeID is Harvested\n    modifier grapeHarvested(uint _grapeId) {\n        require(grapes[_grapeId].grapeState == GrapeState.Harvested);\n        _;\n    }\n\n    // Define a modifier that checks if an item.grapeState of a upc is ForSale\n    modifier grapeForSale(uint _grapeId) {\n        require(grapes[_grapeId].grapeState == GrapeState.ForSale);\n        _;\n    }\n\n    // Define a modifier that checks if an item.grapeState of a upc is Sold\n    modifier grapeSold(uint _grapeId) {\n        require(grapes[_grapeId].grapeState == GrapeState.Sold);\n        _;\n    }\n\n    // Define a modifier that checks if an item.grapeState of a upc is Shipped\n    modifier grapeShipped(uint _grapeId) {\n        require(grapes[_grapeId].grapeState == GrapeState.Shipped);\n        _;\n    }\n\n    // Define a modifier that checks if an item.grapeState of a upc is Received\n    modifier grapeReceived(uint _grapeId) {\n        require(grapes[_grapeId].grapeState == GrapeState.Received);\n        _;\n    }\n\n    // Define a modifier that checks if an item.wineState of a upc is Produced\n    modifier wineProduced(uint _upc) {\n        require(items[_upc].wineState == WineState.Produced);\n        _;\n    }\n\n    // Define a modifier that checks if an item.wineState of a upc is Packed\n    modifier winePacked(uint _upc) {\n        require(items[_upc].wineState == WineState.Packed);\n        _;\n    }\n\n    // Define a modifier that checks if an item.wineState of a upc is ForSale\n    modifier wineForSale(uint _upc) {\n        require(items[_upc].wineState == WineState.ForSale);\n        _;\n    }\n\n    // Define a modifier that checks if an item.wineState of a upc is Sold\n    modifier wineSold(uint _upc) {\n        require(items[_upc].wineState == WineState.Sold);\n        _;\n    }\n\n    // Define a modifier that checks if an item.wineState of a upc is Shipped\n    modifier wineShipped(uint _upc) {\n        require(items[_upc].wineState == WineState.Shipped);\n        _;\n    }\n\n    // Define a modifier that checks if an item.wineState of a upc is Shipped\n    modifier wineReceived(uint _upc) {\n        require(items[_upc].wineState == WineState.Received);\n        _;\n    }\n\n    // Define a modifier that checks if an item.wineState of a upc is Purchased\n    modifier winePurchased(uint _upc) {\n        require(items[_upc].wineState == WineState.Purchased);\n        _;\n    }\n\n    // In the constructor set 'owner' to the address that instantiated the contract\n    // and set 'sku' to 1\n    // and set 'upc' to 1\n    constructor() public payable {\n        owner = msg.sender;\n        sku = 1;\n        upc = 1;\n        grapeID = 1;\n    }\n\n    // Define a function 'kill' if required\n    function kill() public {\n        if (msg.sender == owner) {\n            selfdestruct(owner);\n        }\n    }\n\n    // Define a function 'harvestGrape' that allows a grower to mark grapes 'Harvested'\n    function harvestGrapes(\n        uint _grapeID,\n        string memory _growerName,\n        string memory _growerInformation,\n        string memory _growerLatitude,\n        string memory _growerLongitude,\n        uint  _grapePrice)\n    public\n    onlyGrower\n    {\n        // Add the new grapes\n        grapes[_grapeID] = Grape(\n            _grapeID,\n            msg.sender,\n            msg.sender,\n            _growerName,\n            _growerInformation,\n            _growerLatitude,\n            _growerLongitude,\n            _grapePrice,\n            GrapeState.Harvested\n        );\n        // Increment grapeID\n        grapeID = grapeID + 1;\n        // Emit the appropriate event\n        emit GrapeHarvested(_grapeID);\n    }\n\n    // Let a grower that owns havested grapes to put them for sale\n    function addGrapesForSale(uint _grapeID)\n    public\n    onlyGrower\n    {\n        Grape storage grape = grapes[_grapeID];\n        require(msg.sender == grape.ownerID);\n        grape.grapeState = GrapeState.ForSale;\n        emit GrapeForSale(_grapeID);\n    }\n\n    function fetchGrape(uint _grapeID) public view returns (\n        uint grapeGrapeID,\n        address payable ownerID,\n        address payable growerID,\n        string memory growerName,\n        string memory growerInformation,\n        string memory growerLatitude,\n        string memory growerLongitude,\n        uint grapePrice,\n        GrapeState grapeState\n    ) {\n        Grape memory grape = grapes[_grapeID];\n        grapeGrapeID = grape.grapeId;\n        ownerID = grape.ownerID;\n        growerID = grape.growerID;\n        growerName = grape.growerName;\n        growerInformation = grape.growerInformation;\n        growerLatitude = grape.growerLatitude;\n        growerLongitude = grape.growerLongitude;\n        grapePrice = grape.grapePrice;\n        grapeState = grape.grapeState;\n    }\n\n    function buyGrapes(uint _grapeID, uint _grapePrice)\n    public\n    payable\n    onlyProducer\n    grapeForSale(_grapeID)\n    paidEnough(_grapePrice)\n    {\n        Grape storage grape = grapes[_grapeID];\n        grape.grapeState = GrapeState.Sold;\n        grape.ownerID = msg.sender;\n        grape.growerID.transfer(msg.value);\n        emit GrapeSold(_grapeID);\n    }\n}\n",
  "sourcePath": "/home/david2099/Documents/nodesall/supplyChainDApp/contracts/winebase/SupplyChain.sol",
  "compiler": {
    "name": "solc",
    "version": "0.5.0+commit.1d4f565a.Emscripten.clang"
  },
  "schemaVersion": "3.0.2",
  "updatedAt": "2019-02-19T22:07:28.463Z",
  "devdoc": {
    "methods": {}
  },
  "userdoc": {
    "methods": {}
  }
}