{
  "contractName": "SupplyChain",
  "abi": [
    {
      "constant": false,
      "inputs": [],
      "name": "renounceGrower",
      "outputs": [],
      "payable": false,
      "stateMutability": "nonpayable",
      "type": "function"
    },
    {
      "constant": false,
      "inputs": [
        {
          "name": "account",
          "type": "address"
        }
      ],
      "name": "addConsumer",
      "outputs": [],
      "payable": false,
      "stateMutability": "nonpayable",
      "type": "function"
    },
    {
      "constant": true,
      "inputs": [
        {
          "name": "account",
          "type": "address"
        }
      ],
      "name": "isRetailer",
      "outputs": [
        {
          "name": "",
          "type": "bool"
        }
      ],
      "payable": false,
      "stateMutability": "view",
      "type": "function"
    },
    {
      "constant": false,
      "inputs": [],
      "name": "renounceConsumer",
      "outputs": [],
      "payable": false,
      "stateMutability": "nonpayable",
      "type": "function"
    },
    {
      "constant": true,
      "inputs": [
        {
          "name": "account",
          "type": "address"
        }
      ],
      "name": "isWholesaler",
      "outputs": [
        {
          "name": "",
          "type": "bool"
        }
      ],
      "payable": false,
      "stateMutability": "view",
      "type": "function"
    },
    {
      "constant": true,
      "inputs": [
        {
          "name": "account",
          "type": "address"
        }
      ],
      "name": "isConsumer",
      "outputs": [
        {
          "name": "",
          "type": "bool"
        }
      ],
      "payable": false,
      "stateMutability": "view",
      "type": "function"
    },
    {
      "constant": false,
      "inputs": [
        {
          "name": "account",
          "type": "address"
        }
      ],
      "name": "addRetailer",
      "outputs": [],
      "payable": false,
      "stateMutability": "nonpayable",
      "type": "function"
    },
    {
      "constant": false,
      "inputs": [
        {
          "name": "account",
          "type": "address"
        }
      ],
      "name": "addGrower",
      "outputs": [],
      "payable": false,
      "stateMutability": "nonpayable",
      "type": "function"
    },
    {
      "constant": true,
      "inputs": [
        {
          "name": "account",
          "type": "address"
        }
      ],
      "name": "isGrower",
      "outputs": [
        {
          "name": "",
          "type": "bool"
        }
      ],
      "payable": false,
      "stateMutability": "view",
      "type": "function"
    },
    {
      "constant": false,
      "inputs": [],
      "name": "renounceRetailer",
      "outputs": [],
      "payable": false,
      "stateMutability": "nonpayable",
      "type": "function"
    },
    {
      "constant": false,
      "inputs": [
        {
          "name": "account",
          "type": "address"
        }
      ],
      "name": "addProducer",
      "outputs": [],
      "payable": false,
      "stateMutability": "nonpayable",
      "type": "function"
    },
    {
      "constant": false,
      "inputs": [
        {
          "name": "account",
          "type": "address"
        }
      ],
      "name": "addWholesaler",
      "outputs": [],
      "payable": false,
      "stateMutability": "nonpayable",
      "type": "function"
    },
    {
      "constant": true,
      "inputs": [
        {
          "name": "account",
          "type": "address"
        }
      ],
      "name": "isProducer",
      "outputs": [
        {
          "name": "",
          "type": "bool"
        }
      ],
      "payable": false,
      "stateMutability": "view",
      "type": "function"
    },
    {
      "constant": false,
      "inputs": [],
      "name": "renounceProducer",
      "outputs": [],
      "payable": false,
      "stateMutability": "nonpayable",
      "type": "function"
    },
    {
      "constant": false,
      "inputs": [],
      "name": "renounceWholesaler",
      "outputs": [],
      "payable": false,
      "stateMutability": "nonpayable",
      "type": "function"
    },
    {
      "inputs": [],
      "payable": true,
      "stateMutability": "payable",
      "type": "constructor"
    },
    {
      "anonymous": false,
      "inputs": [
        {
          "indexed": false,
          "name": "grapeId",
          "type": "uint256"
        }
      ],
      "name": "GrapeHarvested",
      "type": "event"
    },
    {
      "anonymous": false,
      "inputs": [
        {
          "indexed": false,
          "name": "grapeId",
          "type": "uint256"
        }
      ],
      "name": "GrapeForSale",
      "type": "event"
    },
    {
      "anonymous": false,
      "inputs": [
        {
          "indexed": false,
          "name": "grapeId",
          "type": "uint256"
        }
      ],
      "name": "GrapeSold",
      "type": "event"
    },
    {
      "anonymous": false,
      "inputs": [
        {
          "indexed": false,
          "name": "grapeId",
          "type": "uint256"
        }
      ],
      "name": "GrapeShipped",
      "type": "event"
    },
    {
      "anonymous": false,
      "inputs": [
        {
          "indexed": false,
          "name": "grapeId",
          "type": "uint256"
        }
      ],
      "name": "GrapeReceived",
      "type": "event"
    },
    {
      "anonymous": false,
      "inputs": [
        {
          "indexed": false,
          "name": "upc",
          "type": "uint256"
        }
      ],
      "name": "WineProduced",
      "type": "event"
    },
    {
      "anonymous": false,
      "inputs": [
        {
          "indexed": false,
          "name": "upc",
          "type": "uint256"
        }
      ],
      "name": "WinePacked",
      "type": "event"
    },
    {
      "anonymous": false,
      "inputs": [
        {
          "indexed": false,
          "name": "upc",
          "type": "uint256"
        }
      ],
      "name": "WineForSale",
      "type": "event"
    },
    {
      "anonymous": false,
      "inputs": [
        {
          "indexed": false,
          "name": "upc",
          "type": "uint256"
        }
      ],
      "name": "WineSold",
      "type": "event"
    },
    {
      "anonymous": false,
      "inputs": [
        {
          "indexed": false,
          "name": "upc",
          "type": "uint256"
        }
      ],
      "name": "WineShipped",
      "type": "event"
    },
    {
      "anonymous": false,
      "inputs": [
        {
          "indexed": false,
          "name": "upc",
          "type": "uint256"
        }
      ],
      "name": "WineReceived",
      "type": "event"
    },
    {
      "anonymous": false,
      "inputs": [
        {
          "indexed": false,
          "name": "upc",
          "type": "uint256"
        }
      ],
      "name": "WinePurchased",
      "type": "event"
    },
    {
      "anonymous": false,
      "inputs": [
        {
          "indexed": true,
          "name": "account",
          "type": "address"
        }
      ],
      "name": "ConsumerAdded",
      "type": "event"
    },
    {
      "anonymous": false,
      "inputs": [
        {
          "indexed": true,
          "name": "account",
          "type": "address"
        }
      ],
      "name": "ConsumerRemoved",
      "type": "event"
    },
    {
      "anonymous": false,
      "inputs": [
        {
          "indexed": true,
          "name": "account",
          "type": "address"
        }
      ],
      "name": "RetailerAdded",
      "type": "event"
    },
    {
      "anonymous": false,
      "inputs": [
        {
          "indexed": true,
          "name": "account",
          "type": "address"
        }
      ],
      "name": "RetailerRemoved",
      "type": "event"
    },
    {
      "anonymous": false,
      "inputs": [
        {
          "indexed": true,
          "name": "account",
          "type": "address"
        }
      ],
      "name": "WholesalerAdded",
      "type": "event"
    },
    {
      "anonymous": false,
      "inputs": [
        {
          "indexed": true,
          "name": "account",
          "type": "address"
        }
      ],
      "name": "WholesalerRemoved",
      "type": "event"
    },
    {
      "anonymous": false,
      "inputs": [
        {
          "indexed": true,
          "name": "account",
          "type": "address"
        }
      ],
      "name": "ProducerAdded",
      "type": "event"
    },
    {
      "anonymous": false,
      "inputs": [
        {
          "indexed": true,
          "name": "account",
          "type": "address"
        }
      ],
      "name": "ProducerRemoved",
      "type": "event"
    },
    {
      "anonymous": false,
      "inputs": [
        {
          "indexed": true,
          "name": "account",
          "type": "address"
        }
      ],
      "name": "GrowerAdded",
      "type": "event"
    },
    {
      "anonymous": false,
      "inputs": [
        {
          "indexed": true,
          "name": "account",
          "type": "address"
        }
      ],
      "name": "GrowerRemoved",
      "type": "event"
    },
    {
      "constant": false,
      "inputs": [],
      "name": "kill",
      "outputs": [],
      "payable": false,
      "stateMutability": "nonpayable",
      "type": "function"
    },
    {
      "constant": false,
      "inputs": [
        {
          "name": "_growerName",
          "type": "string"
        },
        {
          "name": "_growerInformation",
          "type": "string"
        },
        {
          "name": "_growerLatitude",
          "type": "string"
        },
        {
          "name": "_growerLongitude",
          "type": "string"
        },
        {
          "name": "_grapeVariery",
          "type": "string"
        }
      ],
      "name": "harvestGrapes",
      "outputs": [],
      "payable": false,
      "stateMutability": "nonpayable",
      "type": "function"
    },
    {
      "constant": false,
      "inputs": [
        {
          "name": "_grapeID",
          "type": "uint256"
        },
        {
          "name": "_grapePrice",
          "type": "uint256"
        }
      ],
      "name": "addGrapesForSale",
      "outputs": [],
      "payable": false,
      "stateMutability": "nonpayable",
      "type": "function"
    },
    {
      "constant": false,
      "inputs": [
        {
          "name": "_grapeID",
          "type": "uint256"
        }
      ],
      "name": "buyGrapes",
      "outputs": [],
      "payable": true,
      "stateMutability": "payable",
      "type": "function"
    },
    {
      "constant": false,
      "inputs": [
        {
          "name": "_grapeID",
          "type": "uint256"
        }
      ],
      "name": "shipGrapes",
      "outputs": [],
      "payable": false,
      "stateMutability": "nonpayable",
      "type": "function"
    },
    {
      "constant": false,
      "inputs": [
        {
          "name": "_grapeID",
          "type": "uint256"
        }
      ],
      "name": "receiveGrapes",
      "outputs": [],
      "payable": false,
      "stateMutability": "nonpayable",
      "type": "function"
    },
    {
      "constant": true,
      "inputs": [
        {
          "name": "_grapeID",
          "type": "uint256"
        }
      ],
      "name": "fetchGrape",
      "outputs": [
        {
          "name": "grapeGrapeID",
          "type": "uint256"
        },
        {
          "name": "ownerID",
          "type": "address"
        },
        {
          "name": "growerID",
          "type": "address"
        },
        {
          "name": "growerName",
          "type": "string"
        },
        {
          "name": "growerInformation",
          "type": "string"
        },
        {
          "name": "growerLatitude",
          "type": "string"
        },
        {
          "name": "growerLongitude",
          "type": "string"
        },
        {
          "name": "grapePrice",
          "type": "uint256"
        },
        {
          "name": "grapeState",
          "type": "uint8"
        },
        {
          "name": "grapeVariety",
          "type": "string"
        }
      ],
      "payable": false,
      "stateMutability": "view",
      "type": "function"
    },
    {
      "constant": false,
      "inputs": [
        {
          "name": "_producerName",
          "type": "string"
        },
        {
          "name": "_producerInformation",
          "type": "string"
        },
        {
          "name": "_producerLatitude",
          "type": "string"
        },
        {
          "name": "_producerLongitude",
          "type": "string"
        },
        {
          "name": "_productNotes",
          "type": "string"
        },
        {
          "name": "_grapesIDs",
          "type": "uint256[]"
        },
        {
          "name": "_wineState",
          "type": "uint8"
        }
      ],
      "name": "produceWine",
      "outputs": [],
      "payable": false,
      "stateMutability": "nonpayable",
      "type": "function"
    },
    {
      "constant": false,
      "inputs": [
        {
          "name": "_upc",
          "type": "uint256"
        }
      ],
      "name": "packWine",
      "outputs": [],
      "payable": false,
      "stateMutability": "nonpayable",
      "type": "function"
    },
    {
      "constant": false,
      "inputs": [
        {
          "name": "_upc",
          "type": "uint256"
        }
      ],
      "name": "addWineForSale",
      "outputs": [],
      "payable": false,
      "stateMutability": "nonpayable",
      "type": "function"
    },
    {
      "constant": false,
      "inputs": [
        {
          "name": "_upc",
          "type": "uint256"
        }
      ],
      "name": "buyWine",
      "outputs": [],
      "payable": false,
      "stateMutability": "nonpayable",
      "type": "function"
    },
    {
      "constant": false,
      "inputs": [
        {
          "name": "_upc",
          "type": "uint256"
        }
      ],
      "name": "shipWine",
      "outputs": [],
      "payable": false,
      "stateMutability": "nonpayable",
      "type": "function"
    },
    {
      "constant": false,
      "inputs": [
        {
          "name": "_upc",
          "type": "uint256"
        }
      ],
      "name": "receiveWine",
      "outputs": [],
      "payable": false,
      "stateMutability": "nonpayable",
      "type": "function"
    },
    {
      "constant": false,
      "inputs": [
        {
          "name": "_upc",
          "type": "uint256"
        }
      ],
      "name": "purchaseWine",
      "outputs": [],
      "payable": true,
      "stateMutability": "payable",
      "type": "function"
    },
    {
      "constant": true,
      "inputs": [
        {
          "name": "_upc",
          "type": "uint256"
        }
      ],
      "name": "fetchWineOne",
      "outputs": [
        {
          "name": "wineSku",
          "type": "uint256"
        },
        {
          "name": "wineUpc",
          "type": "uint256"
        },
        {
          "name": "ownerID",
          "type": "address"
        },
        {
          "name": "producerID",
          "type": "address"
        },
        {
          "name": "productPrice",
          "type": "uint256"
        },
        {
          "name": "wineState",
          "type": "uint8"
        },
        {
          "name": "wholesalerID",
          "type": "address"
        },
        {
          "name": "retailerID",
          "type": "address"
        },
        {
          "name": "consumerID",
          "type": "address"
        }
      ],
      "payable": false,
      "stateMutability": "view",
      "type": "function"
    },
    {
      "constant": true,
      "inputs": [
        {
          "name": "_upc",
          "type": "uint256"
        }
      ],
      "name": "fetchWineTwo",
      "outputs": [
        {
          "name": "wineSku",
          "type": "uint256"
        },
        {
          "name": "wineUpc",
          "type": "uint256"
        },
        {
          "name": "producerName",
          "type": "string"
        },
        {
          "name": "producerInformation",
          "type": "string"
        },
        {
          "name": "producerLatitude",
          "type": "string"
        },
        {
          "name": "producerLongitude",
          "type": "string"
        },
        {
          "name": "productID",
          "type": "uint256"
        },
        {
          "name": "productNotes",
          "type": "string"
        },
        {
          "name": "productPrice",
          "type": "uint256"
        }
      ],
      "payable": false,
      "stateMutability": "view",
      "type": "function"
    },
    {
      "constant": true,
      "inputs": [
        {
          "name": "_upc",
          "type": "uint256"
        }
      ],
      "name": "fetchWineGrapes",
      "outputs": [
        {
          "name": "grapesIDs",
          "type": "uint256[]"
        }
      ],
      "payable": false,
      "stateMutability": "view",
      "type": "function"
    }
  ],
  "bytecode": "0x60806040526200001e33620000e5640100000000026401000000009004565b62000038336200014f640100000000026401000000009004565b6200005233620001b9640100000000026401000000009004565b6200006c3362000223640100000000026401000000009004565b62000086336200028d640100000000026401000000009004565b33600560006101000a81548173ffffffffffffffffffffffffffffffffffffffff021916908373ffffffffffffffffffffffffffffffffffffffff1602179055506001600781905550600160068190555060016008819055506200044f565b62000109816000620002f76401000000000262005be0179091906401000000009004565b8073ffffffffffffffffffffffffffffffffffffffff167f423fd8158a2c5772d65f93f5aa158245f414b4da880b0d6d2a3361a3915ad3ae60405160405180910390a250565b62000173816001620002f76401000000000262005be0179091906401000000009004565b8073ffffffffffffffffffffffffffffffffffffffff167f2977383b0207d39ef14220620b6cf3e6c9b6e78592af90baeef6614ed2fcd2c660405160405180910390a250565b620001dd816002620002f76401000000000262005be0179091906401000000009004565b8073ffffffffffffffffffffffffffffffffffffffff167fd8a7ad7929975a375d2b12bf49040286b5b105df0fe351f10df6d85e5b7142f760405160405180910390a250565b62000247816003620002f76401000000000262005be0179091906401000000009004565b8073ffffffffffffffffffffffffffffffffffffffff167f71ae26cad02663e3d92efd6ec56031a80d74a20c0ab4183faa8bf262261c9baa60405160405180910390a250565b620002b1816004620002f76401000000000262005be0179091906401000000009004565b8073ffffffffffffffffffffffffffffffffffffffff167f28b26e7a3d20aedbc5f8f2ebf7da671c0491723a2b78f47a097b0e46dee0714260405160405180910390a250565b600073ffffffffffffffffffffffffffffffffffffffff168173ffffffffffffffffffffffffffffffffffffffff16141515156200033457600080fd5b6200034f8282620003ba640100000000026401000000009004565b1515156200035c57600080fd5b60018260000160008373ffffffffffffffffffffffffffffffffffffffff1673ffffffffffffffffffffffffffffffffffffffff16815260200190815260200160002060006101000a81548160ff0219169083151502179055505050565b60008073ffffffffffffffffffffffffffffffffffffffff168273ffffffffffffffffffffffffffffffffffffffff1614151515620003f857600080fd5b8260000160008373ffffffffffffffffffffffffffffffffffffffff1673ffffffffffffffffffffffffffffffffffffffff16815260200190815260200160002060009054906101000a900460ff16905092915050565b615f42806200045f6000396000f3fe608060405260043610610196576000357c0100000000000000000000000000000000000000000000000000000000900463ffffffff16806304fee1eb1461019b5780630c11596b146101c95780630ef1b67e146101e0578063112940f9146102255780631cd0924e1461027657806326820e7e1461063b5780632c2dbba11461067657806341c0e1b5146106b157806344a0a968146106c8578063531d5a9a146107035780635da09b88146107315780635dfb81361461079a57806361e6982d14610a1a57806364d1ba1f14610a315780637a86b5d514610a9a5780637b97bb3414610dbe578063834ff73914610df95780638ec4f50514610e625780639e083bd314610eb3578063b8b06c8614611024578063c4d10d7414611075578063cbcf2349146110de578063d1e7404414611119578063db0e6a2f14611154578063ddf801661461116b578063de63bdb9146111bc578063dfc90b501461120d578063e2dde0521461129d578063f55210221461158a578063f9b867d8146115f3578063fd3338351461160a578063fe19d15214611645575b600080fd5b6101c7600480360360208110156101b157600080fd5b810190808035906020019092919050505061165c565b005b3480156101d557600080fd5b506101de61198c565b005b3480156101ec57600080fd5b506102236004803603604081101561020357600080fd5b810190808035906020019092919080359060200190929190505050611997565b005b34801561023157600080fd5b506102746004803603602081101561024857600080fd5b81019080803573ffffffffffffffffffffffffffffffffffffffff169060200190929190505050611a9e565b005b34801561028257600080fd5b50610639600480360360e081101561029957600080fd5b81019080803590602001906401000000008111156102b657600080fd5b8201836020820111156102c857600080fd5b803590602001918460018302840111640100000000831117156102ea57600080fd5b91908080601f016020809104026020016040519081016040528093929190818152602001838380828437600081840152601f19601f8201169050808301925050505050505091929192908035906020019064010000000081111561034d57600080fd5b82018360208201111561035f57600080fd5b8035906020019184600183028401116401000000008311171561038157600080fd5b91908080601f016020809104026020016040519081016040528093929190818152602001838380828437600081840152601f19601f820116905080830192505050505050509192919290803590602001906401000000008111156103e457600080fd5b8201836020820111156103f657600080fd5b8035906020019184600183028401116401000000008311171561041857600080fd5b91908080601f016020809104026020016040519081016040528093929190818152602001838380828437600081840152601f19601f8201169050808301925050505050505091929192908035906020019064010000000081111561047b57600080fd5b82018360208201111561048d57600080fd5b803590602001918460018302840111640100000000831117156104af57600080fd5b91908080601f016020809104026020016040519081016040528093929190818152602001838380828437600081840152601f19601f8201169050808301925050505050505091929192908035906020019064010000000081111561051257600080fd5b82018360208201111561052457600080fd5b8035906020019184600183028401116401000000008311171561054657600080fd5b91908080601f016020809104026020016040519081016040528093929190818152602001838380828437600081840152601f19601f820116905080830192505050505050509192919290803590602001906401000000008111156105a957600080fd5b8201836020820111156105bb57600080fd5b803590602001918460208302840111640100000000831117156105dd57600080fd5b919080806020026020016040519081016040528093929190818152602001838360200280828437600081840152601f19601f820116905080830192505050505050509192919290803560ff169060200190929190505050611abe565b005b34801561064757600080fd5b506106746004803603602081101561065e57600080fd5b8101908080359060200190929190505050612755565b005b34801561068257600080fd5b506106af6004803603602081101561069957600080fd5b8101908080359060200190929190505050612906565b005b3480156106bd57600080fd5b506106c6612b19565b005b3480156106d457600080fd5b50610701600480360360208110156106eb57600080fd5b8101908080359060200190929190505050612bac565b005b61072f6004803603602081101561071957600080fd5b8101908080359060200190929190505050612d5d565b005b34801561073d57600080fd5b506107806004803603602081101561075457600080fd5b81019080803573ffffffffffffffffffffffffffffffffffffffff169060200190929190505050613051565b604051808215151515815260200191505060405180910390f35b3480156107a657600080fd5b506107d3600480360360208110156107bd57600080fd5b810190808035906020019092919050505061306e565b604051808a8152602001898152602001806020018060200180602001806020018881526020018060200187815260200186810386528d818151815260200191508051906020019080838360005b8381101561083b578082015181840152602081019050610820565b50505050905090810190601f1680156108685780820380516001836020036101000a031916815260200191505b5086810385528c818151815260200191508051906020019080838360005b838110156108a1578082015181840152602081019050610886565b50505050905090810190601f1680156108ce5780820380516001836020036101000a031916815260200191505b5086810384528b818151815260200191508051906020019080838360005b838110156109075780820151818401526020810190506108ec565b50505050905090810190601f1680156109345780820380516001836020036101000a031916815260200191505b5086810383528a818151815260200191508051906020019080838360005b8381101561096d578082015181840152602081019050610952565b50505050905090810190601f16801561099a5780820380516001836020036101000a031916815260200191505b50868103825288818151815260200191508051906020019080838360005b838110156109d35780820151818401526020810190506109b8565b50505050905090810190601f168015610a005780820380516001836020036101000a031916815260200191505b509e50505050505050505050505050505060405180910390f35b348015610a2657600080fd5b50610a2f613697565b005b348015610a3d57600080fd5b50610a8060048036036020811015610a5457600080fd5b81019080803573ffffffffffffffffffffffffffffffffffffffff1690602001909291905050506136a2565b604051808215151515815260200191505060405180910390f35b348015610aa657600080fd5b50610dbc600480360360a0811015610abd57600080fd5b8101908080359060200190640100000000811115610ada57600080fd5b820183602082011115610aec57600080fd5b80359060200191846001830284011164010000000083111715610b0e57600080fd5b91908080601f016020809104026020016040519081016040528093929190818152602001838380828437600081840152601f19601f82011690508083019250505050505050919291929080359060200190640100000000811115610b7157600080fd5b820183602082011115610b8357600080fd5b80359060200191846001830284011164010000000083111715610ba557600080fd5b91908080601f016020809104026020016040519081016040528093929190818152602001838380828437600081840152601f19601f82011690508083019250505050505050919291929080359060200190640100000000811115610c0857600080fd5b820183602082011115610c1a57600080fd5b80359060200191846001830284011164010000000083111715610c3c57600080fd5b91908080601f016020809104026020016040519081016040528093929190818152602001838380828437600081840152601f19601f82011690508083019250505050505050919291929080359060200190640100000000811115610c9f57600080fd5b820183602082011115610cb157600080fd5b80359060200191846001830284011164010000000083111715610cd357600080fd5b91908080601f016020809104026020016040519081016040528093929190818152602001838380828437600081840152601f19601f82011690508083019250505050505050919291929080359060200190640100000000811115610d3657600080fd5b820183602082011115610d4857600080fd5b80359060200191846001830284011164010000000083111715610d6a57600080fd5b91908080601f016020809104026020016040519081016040528093929190818152602001838380828437600081840152601f19601f8201169050808301925050505050505091929192905050506136bf565b005b348015610dca57600080fd5b50610df760048036036020811015610de157600080fd5b8101908080359060200190929190505050613e21565b005b348015610e0557600080fd5b50610e4860048036036020811015610e1c57600080fd5b81019080803573ffffffffffffffffffffffffffffffffffffffff169060200190929190505050614034565b604051808215151515815260200191505060405180910390f35b348015610e6e57600080fd5b50610eb160048036036020811015610e8557600080fd5b81019080803573ffffffffffffffffffffffffffffffffffffffff169060200190929190505050614051565b005b348015610ebf57600080fd5b50610eec60048036036020811015610ed657600080fd5b8101908080359060200190929190505050614071565b604051808a81526020018981526020018873ffffffffffffffffffffffffffffffffffffffff1673ffffffffffffffffffffffffffffffffffffffff1681526020018773ffffffffffffffffffffffffffffffffffffffff1673ffffffffffffffffffffffffffffffffffffffff168152602001868152602001856006811115610f7257fe5b60ff1681526020018473ffffffffffffffffffffffffffffffffffffffff1673ffffffffffffffffffffffffffffffffffffffff1681526020018373ffffffffffffffffffffffffffffffffffffffff1673ffffffffffffffffffffffffffffffffffffffff1681526020018273ffffffffffffffffffffffffffffffffffffffff1673ffffffffffffffffffffffffffffffffffffffff168152602001995050505050505050505060405180910390f35b34801561103057600080fd5b506110736004803603602081101561104757600080fd5b81019080803573ffffffffffffffffffffffffffffffffffffffff16906020019092919050505061469b565b005b34801561108157600080fd5b506110c46004803603602081101561109857600080fd5b81019080803573ffffffffffffffffffffffffffffffffffffffff1690602001909291905050506146bb565b604051808215151515815260200191505060405180910390f35b3480156110ea57600080fd5b506111176004803603602081101561110157600080fd5b81019080803590602001909291905050506146d8565b005b34801561112557600080fd5b506111526004803603602081101561113c57600080fd5b810190808035906020019092919050505061489d565b005b34801561116057600080fd5b50611169614a4e565b005b34801561117757600080fd5b506111ba6004803603602081101561118e57600080fd5b81019080803573ffffffffffffffffffffffffffffffffffffffff169060200190929190505050614a59565b005b3480156111c857600080fd5b5061120b600480360360208110156111df57600080fd5b81019080803573ffffffffffffffffffffffffffffffffffffffff169060200190929190505050614a79565b005b34801561121957600080fd5b506112466004803603602081101561123057600080fd5b8101908080359060200190929190505050614a99565b6040518080602001828103825283818151815260200191508051906020019060200280838360005b8381101561128957808201518184015260208101905061126e565b505050509050019250505060405180910390f35b3480156112a957600080fd5b506112d6600480360360208110156112c057600080fd5b8101908080359060200190929190505050615073565b604051808b81526020018a73ffffffffffffffffffffffffffffffffffffffff1673ffffffffffffffffffffffffffffffffffffffff1681526020018973ffffffffffffffffffffffffffffffffffffffff1673ffffffffffffffffffffffffffffffffffffffff1681526020018060200180602001806020018060200188815260200187600481111561136657fe5b60ff1681526020018060200186810386528d818151815260200191508051906020019080838360005b838110156113aa57808201518184015260208101905061138f565b50505050905090810190601f1680156113d75780820380516001836020036101000a031916815260200191505b5086810385528c818151815260200191508051906020019080838360005b838110156114105780820151818401526020810190506113f5565b50505050905090810190601f16801561143d5780820380516001836020036101000a031916815260200191505b5086810384528b818151815260200191508051906020019080838360005b8381101561147657808201518184015260208101905061145b565b50505050905090810190601f1680156114a35780820380516001836020036101000a031916815260200191505b5086810383528a818151815260200191508051906020019080838360005b838110156114dc5780820151818401526020810190506114c1565b50505050905090810190601f1680156115095780820380516001836020036101000a031916815260200191505b50868103825287818151815260200191508051906020019080838360005b83811015611542578082015181840152602081019050611527565b50505050905090810190601f16801561156f5780820380516001836020036101000a031916815260200191505b509f5050505050505050505050505050505060405180910390f35b34801561159657600080fd5b506115d9600480360360208110156115ad57600080fd5b81019080803573ffffffffffffffffffffffffffffffffffffffff169060200190929190505050615535565b604051808215151515815260200191505060405180910390f35b3480156115ff57600080fd5b50611608615552565b005b34801561161657600080fd5b506116436004803603602081101561162d57600080fd5b810190808035906020019092919050505061555d565b005b34801561165157600080fd5b5061165a61570e565b005b61166533614034565b151561167057600080fd5b806005600681111561167e57fe5b600a6000838152602001908152602001600020600c0160009054906101000a900460ff1660068111156116ad57fe5b141515611722576040517f08c379a00000000000000000000000000000000000000000000000000000000081526004018080602001828103825260148152602001807f57696e65206973206e6f7420726563656976656400000000000000000000000081525060200191505060405180910390fd5b600a6000838152602001908152602001600020600a01548034101515156117b1576040517f08c379a00000000000000000000000000000000000000000000000000000000081526004018080602001828103825260118152602001807f556e73756666696369656e742066756e6400000000000000000000000000000081525060200191505060405180910390fd5b826000600a60008681526020019081526020016000209050600681600c0160006101000a81548160ff021916908360068111156117ea57fe5b021790555060008160020160009054906101000a900473ffffffffffffffffffffffffffffffffffffffff169050600082600a01549050338360020160006101000a81548173ffffffffffffffffffffffffffffffffffffffff021916908373ffffffffffffffffffffffffffffffffffffffff1602179055508173ffffffffffffffffffffffffffffffffffffffff166108fc829081150290604051600060405180830381858888f193505050501580156118aa573d6000803e3d6000fd5b507f0513f8569d804d90dd149e0e50db1c075f672ccfbb4ccabe023ff332ffa2196c876040518082815260200191505060405180910390a15050506000600a6000838152602001908152602001600020600a0154905060008134039050600a600084815260200190815260200160002060020160009054906101000a900473ffffffffffffffffffffffffffffffffffffffff1673ffffffffffffffffffffffffffffffffffffffff166108fc829081150290604051600060405180830381858888f19350505050158015611983573d6000803e3d6000fd5b50505050505050565b61199533615719565b565b6119a0336146bb565b15156119ab57600080fd5b6009600083815260200190815260200160002060010160009054906101000a900473ffffffffffffffffffffffffffffffffffffffff168073ffffffffffffffffffffffffffffffffffffffff163373ffffffffffffffffffffffffffffffffffffffff16141515611a1c57600080fd5b600060096000858152602001908152602001600020905060018160080160006101000a81548160ff02191690836004811115611a5457fe5b02179055508281600701819055507e3260cac5be8a3ee788081a5ebb9ddedc21351f222a74d9553c1482bb0c8d34846040518082815260200191505060405180910390a150505050565b611aa733614034565b1515611ab257600080fd5b611abb81615773565b50565b611ac733615535565b1515611ad257600080fd5b8160008090505b8151811015611d075760008282815181101515611af257fe5b9060200190602002015190503373ffffffffffffffffffffffffffffffffffffffff166009600083815260200190815260200160002060010160009054906101000a900473ffffffffffffffffffffffffffffffffffffffff1673ffffffffffffffffffffffffffffffffffffffff16141515611bfd576040517f08c379a00000000000000000000000000000000000000000000000000000000081526004018080602001828103825260358152602001807f50726f647563657220646f6573206e6f74206f776e207468652067726170657381526020017f20666f72206d616b696e6720746869732077696e65000000000000000000000081525060400191505060405180910390fd5b600480811115611c0957fe5b6009600083815260200190815260200160002060080160009054906101000a900460ff166004811115611c3857fe5b141515611cf9576040517f08c379a00000000000000000000000000000000000000000000000000000000081526004018080602001828103825260428152602001807f50726f647563657220646964206e6f742079657420726563656976656420616c81526020017f6c2074686520677261706573206e656564656420666f7220746869732077696e81526020017f652e00000000000000000000000000000000000000000000000000000000000081525060600191505060405180910390fd5b508080600101915050611ad9565b50600654611d13615c90565b600a6000838152602001908152602001600020610220604051908101604052908160008201548152602001600182015481526020016002820160009054906101000a900473ffffffffffffffffffffffffffffffffffffffff1673ffffffffffffffffffffffffffffffffffffffff1673ffffffffffffffffffffffffffffffffffffffff1681526020016003820160009054906101000a900473ffffffffffffffffffffffffffffffffffffffff1673ffffffffffffffffffffffffffffffffffffffff1673ffffffffffffffffffffffffffffffffffffffff168152602001600482018054600181600116156101000203166002900480601f016020809104026020016040519081016040528092919081815260200182805460018160011615610100020316600290048015611e8c5780601f10611e6157610100808354040283529160200191611e8c565b820191906000526020600020905b815481529060010190602001808311611e6f57829003601f168201915b50505050508152602001600582018054600181600116156101000203166002900480601f016020809104026020016040519081016040528092919081815260200182805460018160011615610100020316600290048015611f2e5780601f10611f0357610100808354040283529160200191611f2e565b820191906000526020600020905b815481529060010190602001808311611f1157829003601f168201915b50505050508152602001600682018054600181600116156101000203166002900480601f016020809104026020016040519081016040528092919081815260200182805460018160011615610100020316600290048015611fd05780601f10611fa557610100808354040283529160200191611fd0565b820191906000526020600020905b815481529060010190602001808311611fb357829003601f168201915b50505050508152602001600782018054600181600116156101000203166002900480601f0160208091040260200160405190810160405280929190818152602001828054600181600116156101000203166002900480156120725780601f1061204757610100808354040283529160200191612072565b820191906000526020600020905b81548152906001019060200180831161205557829003601f168201915b5050505050815260200160088201548152602001600982018054600181600116156101000203166002900480601f01602080910402602001604051908101604052809291908181526020018280546001816001161561010002031660029004801561211e5780601f106120f35761010080835404028352916020019161211e565b820191906000526020600020905b81548152906001019060200180831161210157829003601f168201915b50505050508152602001600a8201548152602001600b820180548060200260200160405190810160405280929190818152602001828054801561218057602002820191906000526020600020905b81548152602001906001019080831161216c575b50505050508152602001600c820160009054906101000a900460ff1660068111156121a757fe5b60068111156121b257fe5b8152602001600c820160019054906101000a900473ffffffffffffffffffffffffffffffffffffffff1673ffffffffffffffffffffffffffffffffffffffff1673ffffffffffffffffffffffffffffffffffffffff168152602001600d820160009054906101000a900473ffffffffffffffffffffffffffffffffffffffff1673ffffffffffffffffffffffffffffffffffffffff1673ffffffffffffffffffffffffffffffffffffffff168152602001600e820160009054906101000a900473ffffffffffffffffffffffffffffffffffffffff1673ffffffffffffffffffffffffffffffffffffffff1673ffffffffffffffffffffffffffffffffffffffff168152602001600e820160149054906101000a900460ff1615151515815250509050806102000151151515612350576040517f08c379a00000000000000000000000000000000000000000000000000000000081526004018080602001828103825260188152602001807f57696e652075706320616c7265616479206578697374732e000000000000000081525060200191505060405180910390fd5b60006006546007540190506000600654905061022060405190810160405280600754815260200160065481526020013373ffffffffffffffffffffffffffffffffffffffff1681526020013373ffffffffffffffffffffffffffffffffffffffff1681526020018d81526020018c81526020018b81526020018a8152602001838152602001898152602001600081526020018881526020018760068111156123f457fe5b8152602001600073ffffffffffffffffffffffffffffffffffffffff168152602001600073ffffffffffffffffffffffffffffffffffffffff168152602001600073ffffffffffffffffffffffffffffffffffffffff16815260200160011515815250600a6000838152602001908152602001600020600082015181600001556020820151816001015560408201518160020160006101000a81548173ffffffffffffffffffffffffffffffffffffffff021916908373ffffffffffffffffffffffffffffffffffffffff16021790555060608201518160030160006101000a81548173ffffffffffffffffffffffffffffffffffffffff021916908373ffffffffffffffffffffffffffffffffffffffff1602179055506080820151816004019080519060200190612528929190615d90565b5060a0820151816005019080519060200190612545929190615d90565b5060c0820151816006019080519060200190612562929190615d90565b5060e082015181600701908051906020019061257f929190615d90565b5061010082015181600801556101208201518160090190805190602001906125a8929190615d90565b5061014082015181600a015561016082015181600b0190805190602001906125d1929190615e10565b5061018082015181600c0160006101000a81548160ff021916908360068111156125f757fe5b02179055506101a082015181600c0160016101000a81548173ffffffffffffffffffffffffffffffffffffffff021916908373ffffffffffffffffffffffffffffffffffffffff1602179055506101c082015181600d0160006101000a81548173ffffffffffffffffffffffffffffffffffffffff021916908373ffffffffffffffffffffffffffffffffffffffff1602179055506101e082015181600e0160006101000a81548173ffffffffffffffffffffffffffffffffffffffff021916908373ffffffffffffffffffffffffffffffffffffffff16021790555061020082015181600e0160146101000a81548160ff0219169083151502179055509050506001600654016006819055506001600754016007819055507f83e1ab300d19168d03dcd993384c2d69adc560b1021bb4c18a68bf40cde1f4d7816040518082815260200191505060405180910390a1505050505050505050505050565b61275e33615535565b151561276957600080fd5b806003600681111561277757fe5b600a6000838152602001908152602001600020600c0160009054906101000a900460ff1660068111156127a657fe5b14151561281b576040517f08c379a00000000000000000000000000000000000000000000000000000000081526004018080602001828103825260108152602001807f57696e65206973206e6f7420736f6c640000000000000000000000000000000081525060200191505060405180910390fd5b600a600083815260200190815260200160002060030160009054906101000a900473ffffffffffffffffffffffffffffffffffffffff168073ffffffffffffffffffffffffffffffffffffffff163373ffffffffffffffffffffffffffffffffffffffff1614151561288c57600080fd5b6000600a60008581526020019081526020016000209050600481600c0160006101000a81548160ff021916908360068111156128c457fe5b02179055507fc45d1150d9c75df34f991dd286a910d790ce07ba5af619b7f7d37139c3c2cafc846040518082815260200191505060405180910390a150505050565b61290f33615535565b151561291a57600080fd5b806001600681111561292857fe5b600a6000838152602001908152602001600020600c0160009054906101000a900460ff16600681111561295757fe5b1415156129cc576040517f08c379a00000000000000000000000000000000000000000000000000000000081526004018080602001828103825260168152602001807f57696e65206973206e6f7420796574207061636b65640000000000000000000081525060200191505060405180910390fd5b600a600083815260200190815260200160002060020160009054906101000a900473ffffffffffffffffffffffffffffffffffffffff168073ffffffffffffffffffffffffffffffffffffffff163373ffffffffffffffffffffffffffffffffffffffff16141515612a3d57600080fd5b6000600a600085815260200190815260200160002090508060030160009054906101000a900473ffffffffffffffffffffffffffffffffffffffff1673ffffffffffffffffffffffffffffffffffffffff163373ffffffffffffffffffffffffffffffffffffffff16141515612ab257600080fd5b600281600c0160006101000a81548160ff02191690836006811115612ad357fe5b02179055507fa97ba00ead9a7c7102566aab6635515af6ade3035fee035f2e91f51daf03423681600101546040518082815260200191505060405180910390a150505050565b600560009054906101000a900473ffffffffffffffffffffffffffffffffffffffff1673ffffffffffffffffffffffffffffffffffffffff163373ffffffffffffffffffffffffffffffffffffffff161415612baa57600560009054906101000a900473ffffffffffffffffffffffffffffffffffffffff1673ffffffffffffffffffffffffffffffffffffffff16ff5b565b612bb533615535565b1515612bc057600080fd5b8060036004811115612bce57fe5b6009600083815260200190815260200160002060080160009054906101000a900460ff166004811115612bfd57fe5b141515612c72576040517f08c379a00000000000000000000000000000000000000000000000000000000081526004018080602001828103825260148152602001807f4772617065206973206e6f74207368697070656400000000000000000000000081525060200191505060405180910390fd5b6009600083815260200190815260200160002060010160009054906101000a900473ffffffffffffffffffffffffffffffffffffffff168073ffffffffffffffffffffffffffffffffffffffff163373ffffffffffffffffffffffffffffffffffffffff16141515612ce357600080fd5b600060096000858152602001908152602001600020905060048160080160006101000a81548160ff02191690836004811115612d1b57fe5b02179055507fa4ebe2faef1a8e12d4ae5cc1d71ce997889854e26a0cbf25aa01f719e95276d1846040518082815260200191505060405180910390a150505050565b612d6633615535565b1515612d7157600080fd5b8060016004811115612d7f57fe5b6009600083815260200190815260200160002060080160009054906101000a900460ff166004811115612dae57fe5b141515612e23576040517f08c379a00000000000000000000000000000000000000000000000000000000081526004018080602001828103825260158152602001807f4772617065206973206e6f7420666f722073616c65000000000000000000000081525060200191505060405180910390fd5b6009600083815260200190815260200160002060070154803410151515612eb2576040517f08c379a00000000000000000000000000000000000000000000000000000000081526004018080602001828103825260118152602001807f556e73756666696369656e742066756e6400000000000000000000000000000081525060200191505060405180910390fd5b82600060096000868152602001908152602001600020905060028160080160006101000a81548160ff02191690836004811115612eeb57fe5b0217905550600081600701549050338260010160006101000a81548173ffffffffffffffffffffffffffffffffffffffff021916908373ffffffffffffffffffffffffffffffffffffffff1602179055508160020160009054906101000a900473ffffffffffffffffffffffffffffffffffffffff1673ffffffffffffffffffffffffffffffffffffffff166108fc829081150290604051600060405180830381858888f19350505050158015612fa6573d6000803e3d6000fd5b507fdbcd9442ea51662810e0fc9e143a1cee86d83e1010e20963373aa6bf17ba439d866040518082815260200191505060405180910390a15050600060096000838152602001908152602001600020600701549050600081340390503373ffffffffffffffffffffffffffffffffffffffff166108fc829081150290604051600060405180830381858888f19350505050158015613048573d6000803e3d6000fd5b50505050505050565b60006130678260036157cd90919063ffffffff16565b9050919050565b600080606080606080600060606000613085615c90565b600a60008c8152602001908152602001600020610220604051908101604052908160008201548152602001600182015481526020016002820160009054906101000a900473ffffffffffffffffffffffffffffffffffffffff1673ffffffffffffffffffffffffffffffffffffffff1673ffffffffffffffffffffffffffffffffffffffff1681526020016003820160009054906101000a900473ffffffffffffffffffffffffffffffffffffffff1673ffffffffffffffffffffffffffffffffffffffff1673ffffffffffffffffffffffffffffffffffffffff168152602001600482018054600181600116156101000203166002900480601f0160208091040260200160405190810160405280929190818152602001828054600181600116156101000203166002900480156131fe5780601f106131d3576101008083540402835291602001916131fe565b820191906000526020600020905b8154815290600101906020018083116131e157829003601f168201915b50505050508152602001600582018054600181600116156101000203166002900480601f0160208091040260200160405190810160405280929190818152602001828054600181600116156101000203166002900480156132a05780601f10613275576101008083540402835291602001916132a0565b820191906000526020600020905b81548152906001019060200180831161328357829003601f168201915b50505050508152602001600682018054600181600116156101000203166002900480601f0160208091040260200160405190810160405280929190818152602001828054600181600116156101000203166002900480156133425780601f1061331757610100808354040283529160200191613342565b820191906000526020600020905b81548152906001019060200180831161332557829003601f168201915b50505050508152602001600782018054600181600116156101000203166002900480601f0160208091040260200160405190810160405280929190818152602001828054600181600116156101000203166002900480156133e45780601f106133b9576101008083540402835291602001916133e4565b820191906000526020600020905b8154815290600101906020018083116133c757829003601f168201915b5050505050815260200160088201548152602001600982018054600181600116156101000203166002900480601f0160208091040260200160405190810160405280929190818152602001828054600181600116156101000203166002900480156134905780601f1061346557610100808354040283529160200191613490565b820191906000526020600020905b81548152906001019060200180831161347357829003601f168201915b50505050508152602001600a8201548152602001600b82018054806020026020016040519081016040528092919081815260200182805480156134f257602002820191906000526020600020905b8154815260200190600101908083116134de575b50505050508152602001600c820160009054906101000a900460ff16600681111561351957fe5b600681111561352457fe5b8152602001600c820160019054906101000a900473ffffffffffffffffffffffffffffffffffffffff1673ffffffffffffffffffffffffffffffffffffffff1673ffffffffffffffffffffffffffffffffffffffff168152602001600d820160009054906101000a900473ffffffffffffffffffffffffffffffffffffffff1673ffffffffffffffffffffffffffffffffffffffff1673ffffffffffffffffffffffffffffffffffffffff168152602001600e820160009054906101000a900473ffffffffffffffffffffffffffffffffffffffff1673ffffffffffffffffffffffffffffffffffffffff1673ffffffffffffffffffffffffffffffffffffffff168152602001600e820160149054906101000a900460ff16151515158152505090508060000151995080602001519850806080015197508060a0015196508060c0015195508060e001519450806101000151935080610120015192508061014001519150509193959799909294969850565b6136a033615861565b565b60006136b88260026157cd90919063ffffffff16565b9050919050565b6136c8336146bb565b15156136d357600080fd5b6008546136de615e5d565b600960008381526020019081526020016000206101606040519081016040529081600082015481526020016001820160009054906101000a900473ffffffffffffffffffffffffffffffffffffffff1673ffffffffffffffffffffffffffffffffffffffff1673ffffffffffffffffffffffffffffffffffffffff1681526020016002820160009054906101000a900473ffffffffffffffffffffffffffffffffffffffff1673ffffffffffffffffffffffffffffffffffffffff1673ffffffffffffffffffffffffffffffffffffffff168152602001600382018054600181600116156101000203166002900480601f01602080910402602001604051908101604052809291908181526020018280546001816001161561010002031660029004801561384d5780601f106138225761010080835404028352916020019161384d565b820191906000526020600020905b81548152906001019060200180831161383057829003601f168201915b50505050508152602001600482018054600181600116156101000203166002900480601f0160208091040260200160405190810160405280929190818152602001828054600181600116156101000203166002900480156138ef5780601f106138c4576101008083540402835291602001916138ef565b820191906000526020600020905b8154815290600101906020018083116138d257829003601f168201915b50505050508152602001600582018054600181600116156101000203166002900480601f0160208091040260200160405190810160405280929190818152602001828054600181600116156101000203166002900480156139915780601f1061396657610100808354040283529160200191613991565b820191906000526020600020905b81548152906001019060200180831161397457829003601f168201915b50505050508152602001600682018054600181600116156101000203166002900480601f016020809104026020016040519081016040528092919081815260200182805460018160011615610100020316600290048015613a335780601f10613a0857610100808354040283529160200191613a33565b820191906000526020600020905b815481529060010190602001808311613a1657829003601f168201915b50505050508152602001600782015481526020016008820160009054906101000a900460ff166004811115613a6457fe5b6004811115613a6f57fe5b8152602001600982018054600181600116156101000203166002900480601f016020809104026020016040519081016040528092919081815260200182805460018160011615610100020316600290048015613b0c5780601f10613ae157610100808354040283529160200191613b0c565b820191906000526020600020905b815481529060010190602001808311613aef57829003601f168201915b50505050508152602001600a820160009054906101000a900460ff1615151515815250509050806101400151151515613bad576040517f08c379a00000000000000000000000000000000000000000000000000000000081526004018080602001828103825260188152602001807f477261706520494420616c7265616479206578697374732e000000000000000081525060200191505060405180910390fd5b600060085490506101606040519081016040528060085481526020013373ffffffffffffffffffffffffffffffffffffffff1681526020013373ffffffffffffffffffffffffffffffffffffffff1681526020018981526020018881526020018781526020018681526020016000815260200160006004811115613c2d57fe5b815260200185815260200160011515815250600960008381526020019081526020016000206000820151816000015560208201518160010160006101000a81548173ffffffffffffffffffffffffffffffffffffffff021916908373ffffffffffffffffffffffffffffffffffffffff16021790555060408201518160020160006101000a81548173ffffffffffffffffffffffffffffffffffffffff021916908373ffffffffffffffffffffffffffffffffffffffff1602179055506060820151816003019080519060200190613d06929190615d90565b506080820151816004019080519060200190613d23929190615d90565b5060a0820151816005019080519060200190613d40929190615d90565b5060c0820151816006019080519060200190613d5d929190615d90565b5060e082015181600701556101008201518160080160006101000a81548160ff02191690836004811115613d8d57fe5b0217905550610120820151816009019080519060200190613daf929190615d90565b5061014082015181600a0160006101000a81548160ff0219169083151502179055509050506001600854016008819055507fe98cb48b7c65f60e2a8d0b20a8dbaac7cc3c2c897044fe92d5f5d3f97382ca75816040518082815260200191505060405180910390a15050505050505050565b613e2a33615535565b1515613e3557600080fd5b8060006006811115613e4357fe5b600a6000838152602001908152602001600020600c0160009054906101000a900460ff166006811115613e7257fe5b141515613ee7576040517f08c379a00000000000000000000000000000000000000000000000000000000081526004018080602001828103825260188152602001807f57696e65206973206e6f74207965742070726f6475636564000000000000000081525060200191505060405180910390fd5b600a600083815260200190815260200160002060020160009054906101000a900473ffffffffffffffffffffffffffffffffffffffff168073ffffffffffffffffffffffffffffffffffffffff163373ffffffffffffffffffffffffffffffffffffffff16141515613f5857600080fd5b6000600a600085815260200190815260200160002090508060030160009054906101000a900473ffffffffffffffffffffffffffffffffffffffff1673ffffffffffffffffffffffffffffffffffffffff163373ffffffffffffffffffffffffffffffffffffffff16141515613fcd57600080fd5b600181600c0160006101000a81548160ff02191690836006811115613fee57fe5b02179055507f0869ab0322800b441c2ace7097217dfee49f6c8129437dd36e5e4146e0e6992881600101546040518082815260200191505060405180910390a150505050565b600061404a8260046157cd90919063ffffffff16565b9050919050565b61405a33613051565b151561406557600080fd5b61406e816158bb565b50565b6000806000806000806000806000614087615c90565b600a60008c8152602001908152602001600020610220604051908101604052908160008201548152602001600182015481526020016002820160009054906101000a900473ffffffffffffffffffffffffffffffffffffffff1673ffffffffffffffffffffffffffffffffffffffff1673ffffffffffffffffffffffffffffffffffffffff1681526020016003820160009054906101000a900473ffffffffffffffffffffffffffffffffffffffff1673ffffffffffffffffffffffffffffffffffffffff1673ffffffffffffffffffffffffffffffffffffffff168152602001600482018054600181600116156101000203166002900480601f0160208091040260200160405190810160405280929190818152602001828054600181600116156101000203166002900480156142005780601f106141d557610100808354040283529160200191614200565b820191906000526020600020905b8154815290600101906020018083116141e357829003601f168201915b50505050508152602001600582018054600181600116156101000203166002900480601f0160208091040260200160405190810160405280929190818152602001828054600181600116156101000203166002900480156142a25780601f10614277576101008083540402835291602001916142a2565b820191906000526020600020905b81548152906001019060200180831161428557829003601f168201915b50505050508152602001600682018054600181600116156101000203166002900480601f0160208091040260200160405190810160405280929190818152602001828054600181600116156101000203166002900480156143445780601f1061431957610100808354040283529160200191614344565b820191906000526020600020905b81548152906001019060200180831161432757829003601f168201915b50505050508152602001600782018054600181600116156101000203166002900480601f0160208091040260200160405190810160405280929190818152602001828054600181600116156101000203166002900480156143e65780601f106143bb576101008083540402835291602001916143e6565b820191906000526020600020905b8154815290600101906020018083116143c957829003601f168201915b5050505050815260200160088201548152602001600982018054600181600116156101000203166002900480601f0160208091040260200160405190810160405280929190818152602001828054600181600116156101000203166002900480156144925780601f1061446757610100808354040283529160200191614492565b820191906000526020600020905b81548152906001019060200180831161447557829003601f168201915b50505050508152602001600a8201548152602001600b82018054806020026020016040519081016040528092919081815260200182805480156144f457602002820191906000526020600020905b8154815260200190600101908083116144e0575b50505050508152602001600c820160009054906101000a900460ff16600681111561451b57fe5b600681111561452657fe5b8152602001600c820160019054906101000a900473ffffffffffffffffffffffffffffffffffffffff1673ffffffffffffffffffffffffffffffffffffffff1673ffffffffffffffffffffffffffffffffffffffff168152602001600d820160009054906101000a900473ffffffffffffffffffffffffffffffffffffffff1673ffffffffffffffffffffffffffffffffffffffff1673ffffffffffffffffffffffffffffffffffffffff168152602001600e820160009054906101000a900473ffffffffffffffffffffffffffffffffffffffff1673ffffffffffffffffffffffffffffffffffffffff1673ffffffffffffffffffffffffffffffffffffffff168152602001600e820160149054906101000a900460ff16151515158152505090508060000151995080602001519850806040015197508060600151965080610140015195508061018001519450806101a001519350806101c001519250806101e001519150509193959799909294969850565b6146a4336146bb565b15156146af57600080fd5b6146b881615915565b50565b60006146d18260006157cd90919063ffffffff16565b9050919050565b6146e133613051565b15156146ec57600080fd5b80600260068111156146fa57fe5b600a6000838152602001908152602001600020600c0160009054906101000a900460ff16600681111561472957fe5b14151561479e576040517f08c379a00000000000000000000000000000000000000000000000000000000081526004018080602001828103825260148152602001807f57696e65206973206e6f7420666f722073616c6500000000000000000000000081525060200191505060405180910390fd5b6000600a600084815260200190815260200160002090503381600d0160006101000a81548173ffffffffffffffffffffffffffffffffffffffff021916908373ffffffffffffffffffffffffffffffffffffffff160217905550600381600c0160006101000a81548160ff0219169083600681111561481957fe5b0217905550338160020160006101000a81548173ffffffffffffffffffffffffffffffffffffffff021916908373ffffffffffffffffffffffffffffffffffffffff1602179055507fc4e50a10ecdbba8d26cab330220ec6f89afc954c92251c4e529542119b85c084836040518082815260200191505060405180910390a1505050565b6148a633613051565b15156148b157600080fd5b80600460068111156148bf57fe5b600a6000838152602001908152602001600020600c0160009054906101000a900460ff1660068111156148ee57fe5b141515614963576040517f08c379a00000000000000000000000000000000000000000000000000000000081526004018080602001828103825260138152602001807f57696e65206973206e6f7420736869707065640000000000000000000000000081525060200191505060405180910390fd5b600a600083815260200190815260200160002060020160009054906101000a900473ffffffffffffffffffffffffffffffffffffffff168073ffffffffffffffffffffffffffffffffffffffff163373ffffffffffffffffffffffffffffffffffffffff161415156149d457600080fd5b6000600a60008581526020019081526020016000209050600581600c0160006101000a81548160ff02191690836006811115614a0c57fe5b02179055507f14b6cc590b47a9656821bdb6db91b9e1537ca4d36ff65f265a661c8e13bfd098846040518082815260200191505060405180910390a150505050565b614a573361596f565b565b614a6233615535565b1515614a6d57600080fd5b614a76816159c9565b50565b614a82336136a2565b1515614a8d57600080fd5b614a9681615a23565b50565b6060614aa3615c90565b600a6000848152602001908152602001600020610220604051908101604052908160008201548152602001600182015481526020016002820160009054906101000a900473ffffffffffffffffffffffffffffffffffffffff1673ffffffffffffffffffffffffffffffffffffffff1673ffffffffffffffffffffffffffffffffffffffff1681526020016003820160009054906101000a900473ffffffffffffffffffffffffffffffffffffffff1673ffffffffffffffffffffffffffffffffffffffff1673ffffffffffffffffffffffffffffffffffffffff168152602001600482018054600181600116156101000203166002900480601f016020809104026020016040519081016040528092919081815260200182805460018160011615610100020316600290048015614c1c5780601f10614bf157610100808354040283529160200191614c1c565b820191906000526020600020905b815481529060010190602001808311614bff57829003601f168201915b50505050508152602001600582018054600181600116156101000203166002900480601f016020809104026020016040519081016040528092919081815260200182805460018160011615610100020316600290048015614cbe5780601f10614c9357610100808354040283529160200191614cbe565b820191906000526020600020905b815481529060010190602001808311614ca157829003601f168201915b50505050508152602001600682018054600181600116156101000203166002900480601f016020809104026020016040519081016040528092919081815260200182805460018160011615610100020316600290048015614d605780601f10614d3557610100808354040283529160200191614d60565b820191906000526020600020905b815481529060010190602001808311614d4357829003601f168201915b50505050508152602001600782018054600181600116156101000203166002900480601f016020809104026020016040519081016040528092919081815260200182805460018160011615610100020316600290048015614e025780601f10614dd757610100808354040283529160200191614e02565b820191906000526020600020905b815481529060010190602001808311614de557829003601f168201915b5050505050815260200160088201548152602001600982018054600181600116156101000203166002900480601f016020809104026020016040519081016040528092919081815260200182805460018160011615610100020316600290048015614eae5780601f10614e8357610100808354040283529160200191614eae565b820191906000526020600020905b815481529060010190602001808311614e9157829003601f168201915b50505050508152602001600a8201548152602001600b8201805480602002602001604051908101604052809291908181526020018280548015614f1057602002820191906000526020600020905b815481526020019060010190808311614efc575b50505050508152602001600c820160009054906101000a900460ff166006811115614f3757fe5b6006811115614f4257fe5b8152602001600c820160019054906101000a900473ffffffffffffffffffffffffffffffffffffffff1673ffffffffffffffffffffffffffffffffffffffff1673ffffffffffffffffffffffffffffffffffffffff168152602001600d820160009054906101000a900473ffffffffffffffffffffffffffffffffffffffff1673ffffffffffffffffffffffffffffffffffffffff1673ffffffffffffffffffffffffffffffffffffffff168152602001600e820160009054906101000a900473ffffffffffffffffffffffffffffffffffffffff1673ffffffffffffffffffffffffffffffffffffffff1673ffffffffffffffffffffffffffffffffffffffff168152602001600e820160149054906101000a900460ff1615151515815250509050806101600151915050919050565b6000806000606080606080600080606061508b615e5d565b600960008d81526020019081526020016000206101606040519081016040529081600082015481526020016001820160009054906101000a900473ffffffffffffffffffffffffffffffffffffffff1673ffffffffffffffffffffffffffffffffffffffff1673ffffffffffffffffffffffffffffffffffffffff1681526020016002820160009054906101000a900473ffffffffffffffffffffffffffffffffffffffff1673ffffffffffffffffffffffffffffffffffffffff1673ffffffffffffffffffffffffffffffffffffffff168152602001600382018054600181600116156101000203166002900480601f0160208091040260200160405190810160405280929190818152602001828054600181600116156101000203166002900480156151fa5780601f106151cf576101008083540402835291602001916151fa565b820191906000526020600020905b8154815290600101906020018083116151dd57829003601f168201915b50505050508152602001600482018054600181600116156101000203166002900480601f01602080910402602001604051908101604052809291908181526020018280546001816001161561010002031660029004801561529c5780601f106152715761010080835404028352916020019161529c565b820191906000526020600020905b81548152906001019060200180831161527f57829003601f168201915b50505050508152602001600582018054600181600116156101000203166002900480601f01602080910402602001604051908101604052809291908181526020018280546001816001161561010002031660029004801561533e5780601f106153135761010080835404028352916020019161533e565b820191906000526020600020905b81548152906001019060200180831161532157829003601f168201915b50505050508152602001600682018054600181600116156101000203166002900480601f0160208091040260200160405190810160405280929190818152602001828054600181600116156101000203166002900480156153e05780601f106153b5576101008083540402835291602001916153e0565b820191906000526020600020905b8154815290600101906020018083116153c357829003601f168201915b50505050508152602001600782015481526020016008820160009054906101000a900460ff16600481111561541157fe5b600481111561541c57fe5b8152602001600982018054600181600116156101000203166002900480601f0160208091040260200160405190810160405280929190818152602001828054600181600116156101000203166002900480156154b95780601f1061548e576101008083540402835291602001916154b9565b820191906000526020600020905b81548152906001019060200180831161549c57829003601f168201915b50505050508152602001600a820160009054906101000a900460ff161515151581525050905080600001519a50806020015199508060400151985080606001519750806080015196508060a0015195508060c0015194508060e00151935080610100015192508061012001519150509193959799509193959799565b600061554b8260016157cd90919063ffffffff16565b9050919050565b61555b33615a7d565b565b615566336146bb565b151561557157600080fd5b806002600481111561557f57fe5b6009600083815260200190815260200160002060080160009054906101000a900460ff1660048111156155ae57fe5b141515615623576040517f08c379a00000000000000000000000000000000000000000000000000000000081526004018080602001828103825260118152602001807f4772617065206973206e6f7420736f6c6400000000000000000000000000000081525060200191505060405180910390fd5b6009600083815260200190815260200160002060020160009054906101000a900473ffffffffffffffffffffffffffffffffffffffff168073ffffffffffffffffffffffffffffffffffffffff163373ffffffffffffffffffffffffffffffffffffffff1614151561569457600080fd5b600060096000858152602001908152602001600020905060038160080160006101000a81548160ff021916908360048111156156cc57fe5b02179055507fb4f140a99563fe049d6206aa111e9592995d91e14529b45430d6c3b0dcf49975846040518082815260200191505060405180910390a150505050565b61571733615ad7565b565b61572d816000615b3190919063ffffffff16565b8073ffffffffffffffffffffffffffffffffffffffff167f686dbfa27271f8cf2fe2e5eaeaf43f15d839d20c7e162ca3aee8362b6c6a861b60405160405180910390a250565b615787816004615be090919063ffffffff16565b8073ffffffffffffffffffffffffffffffffffffffff167f28b26e7a3d20aedbc5f8f2ebf7da671c0491723a2b78f47a097b0e46dee0714260405160405180910390a250565b60008073ffffffffffffffffffffffffffffffffffffffff168273ffffffffffffffffffffffffffffffffffffffff161415151561580a57600080fd5b8260000160008373ffffffffffffffffffffffffffffffffffffffff1673ffffffffffffffffffffffffffffffffffffffff16815260200190815260200160002060009054906101000a900460ff16905092915050565b615875816004615b3190919063ffffffff16565b8073ffffffffffffffffffffffffffffffffffffffff167fe3f5ed5f263f1f01764a96edfc7d025f511ec5f7d180e8816908b78bcf74f09860405160405180910390a250565b6158cf816003615be090919063ffffffff16565b8073ffffffffffffffffffffffffffffffffffffffff167f71ae26cad02663e3d92efd6ec56031a80d74a20c0ab4183faa8bf262261c9baa60405160405180910390a250565b615929816000615be090919063ffffffff16565b8073ffffffffffffffffffffffffffffffffffffffff167f423fd8158a2c5772d65f93f5aa158245f414b4da880b0d6d2a3361a3915ad3ae60405160405180910390a250565b615983816003615b3190919063ffffffff16565b8073ffffffffffffffffffffffffffffffffffffffff167fdb7176e79cffef81cb01767dd0447a0b24bb72ca9778d4b245581086b2a7e6db60405160405180910390a250565b6159dd816001615be090919063ffffffff16565b8073ffffffffffffffffffffffffffffffffffffffff167f2977383b0207d39ef14220620b6cf3e6c9b6e78592af90baeef6614ed2fcd2c660405160405180910390a250565b615a37816002615be090919063ffffffff16565b8073ffffffffffffffffffffffffffffffffffffffff167fd8a7ad7929975a375d2b12bf49040286b5b105df0fe351f10df6d85e5b7142f760405160405180910390a250565b615a91816001615b3190919063ffffffff16565b8073ffffffffffffffffffffffffffffffffffffffff167fb78e9906c5bae930ccf756a5214c9855b1782f0eb30f9566de2384f034af48f360405160405180910390a250565b615aeb816002615b3190919063ffffffff16565b8073ffffffffffffffffffffffffffffffffffffffff167f7f865f710a7604537eb2bc0334f082fa642d210a705398937f53663384485b2860405160405180910390a250565b600073ffffffffffffffffffffffffffffffffffffffff168173ffffffffffffffffffffffffffffffffffffffff1614151515615b6d57600080fd5b615b7782826157cd565b1515615b8257600080fd5b60008260000160008373ffffffffffffffffffffffffffffffffffffffff1673ffffffffffffffffffffffffffffffffffffffff16815260200190815260200160002060006101000a81548160ff0219169083151502179055505050565b600073ffffffffffffffffffffffffffffffffffffffff168173ffffffffffffffffffffffffffffffffffffffff1614151515615c1c57600080fd5b615c2682826157cd565b151515615c3257600080fd5b60018260000160008373ffffffffffffffffffffffffffffffffffffffff1673ffffffffffffffffffffffffffffffffffffffff16815260200190815260200160002060006101000a81548160ff0219169083151502179055505050565b610220604051908101604052806000815260200160008152602001600073ffffffffffffffffffffffffffffffffffffffff168152602001600073ffffffffffffffffffffffffffffffffffffffff168152602001606081526020016060815260200160608152602001606081526020016000815260200160608152602001600081526020016060815260200160006006811115615d2a57fe5b8152602001600073ffffffffffffffffffffffffffffffffffffffff168152602001600073ffffffffffffffffffffffffffffffffffffffff168152602001600073ffffffffffffffffffffffffffffffffffffffff1681526020016000151581525090565b828054600181600116156101000203166002900490600052602060002090601f016020900481019282601f10615dd157805160ff1916838001178555615dff565b82800160010185558215615dff579182015b82811115615dfe578251825591602001919060010190615de3565b5b509050615e0c9190615ef1565b5090565b828054828255906000526020600020908101928215615e4c579160200282015b82811115615e4b578251825591602001919060010190615e30565b5b509050615e599190615ef1565b5090565b6101606040519081016040528060008152602001600073ffffffffffffffffffffffffffffffffffffffff168152602001600073ffffffffffffffffffffffffffffffffffffffff168152602001606081526020016060815260200160608152602001606081526020016000815260200160006004811115615edb57fe5b8152602001606081526020016000151581525090565b615f1391905b80821115615f0f576000816000905550600101615ef7565b5090565b9056fea165627a7a7230582028fa3c1907de59176d73ae296c3a9fed9f89a72060ec2c7662f04825fd8ea3880029",
  "source": "pragma solidity = 0.5.0;\nimport \"../wineaccesscontrol/GrowerRole.sol\";\nimport \"../wineaccesscontrol/ProducerRole.sol\";\nimport \"../wineaccesscontrol/WholesalerRole.sol\";\nimport \"../wineaccesscontrol/RetailerRole.sol\";\nimport \"../wineaccesscontrol/ConsumerRole.sol\";\nimport \"../winecore/Ownable.sol\";\n\ncontract SupplyChain is\n    GrowerRole,\n    ProducerRole,\n    WholeSalerRole,\n    RetailerRole,\n    ConsumerRole\n{\n\n    // Define 'owner'\n    address payable owner;\n\n    // Define a variable called 'upc' for Universal Product Code (UPC)\n    uint  upc;\n\n    // Define a variable called 'sku' for Stock Keeping Unit (SKU)\n    uint  sku;\n\n    // Define a variable called 'grapeID' for indentifying grapes.\n    // The Wine Supply Chain Traceability GS1 Application Guideline\n    // does not recommend the use of GTIN (Global Trade Item Number)\n    // for the grapes as it is not yet a branded product\n    // but we still need a way to uniquely identify the grapes.\n    uint  grapeID;\n\n    // Define a public mapping 'grapes' that maps the grapeID to a wine.\n    mapping (uint => Grape) grapes;\n\n    // Define a public mapping 'items' that maps the UPC to a wine.\n    mapping (uint => Wine) items;\n\n    // Define a public mapping 'itemsHistory' that maps the UPC to an array of TxHash,\n    // that track its journey through the supply chain -- to be sent from DApp.\n    mapping (uint => string[]) itemsHistory;\n\n    // Define enum 'GrapeState' with the following values:\n    enum GrapeState\n    {\n        Harvested,  // 0\n        ForSale,    // 1\n        Sold,       // 2\n        Shipped,    // 3\n        Received    // 4\n    }\n\n    // Define enum 'WineState' with the following values:\n    enum WineState\n    {\n        Produced,  // 0\n        Packed,    // 1\n        ForSale,   // 2\n        Sold,      // 3\n        Shipped,   // 4\n        Received,  // 5\n        Purchased   // 6\n    }\n\n    //TODO: set default states for grapes and items\n\n    // Define a struct for grapes\n    struct Grape {\n        uint grapeId; // unique ID of grapes\n        address payable ownerID;  // Metamask-Ethereum address of the current owner as the product moves through different stages\n        address payable growerID; // Metamask-Ethereum address of the Grower\n        string  growerName; // Grower Name\n        string  growerInformation;  // Grower Information\n        string  growerLatitude; // Grower plot Latitude\n        string  growerLongitude;  // Grower plot Longitude\n        uint    grapePrice; // Product Price\n        GrapeState   grapeState;  // Grape State as represented in the enum above\n        string  grapeVariety; // grape variety\n        bool exist;\n    }\n\n    // Define a struct 'Item' with the following fields:\n    struct Wine {\n        uint    sku;  // Stock Keeping Unit (SKU)\n        uint    upc; // Universal Product Code (UPC), generated by the Producer, goes on the package, can be verified by the Consumer\n        address payable ownerID;  // Metamask-Ethereum address of the current owner as the product moves through different stages\n        address payable producerID; // Metamask-Ethereum address of the Producer\n        string  producerName; // Producer Name\n        string  producerInformation;  // Producer Information\n        string  producerLatitude; // Producer Latitude\n        string  producerLongitude;  // Producer Longitude\n        uint    productID;  // Product ID potentially a combination of upc + sku\n        string  productNotes; // Product Notes\n        uint    productPrice; // Product Price\n        uint[] grapesIDs; // Array of grapes IDs\n        WineState   wineState;  // Product State as represented in the enum above\n        address payable wholesalerID;  // Metamask-Ethereum address of the Wholesaler\n        address payable retailerID; // Metamask-Ethereum address of the Retailer\n        address payable consumerID; // Metamask-Ethereum address of the Consumer\n        bool exist; // use to see entry already exists in mapping\n    }\n\n    // Define events for grapes\n    event GrapeHarvested(uint grapeId);\n    event GrapeForSale(uint grapeId);\n    event GrapeSold(uint grapeId);\n    event GrapeShipped(uint grapeId);\n    event GrapeReceived(uint grapeId);\n    // Define events for wine\n    event WineProduced(uint upc);\n    event WinePacked(uint upc);\n    event WineForSale(uint upc);\n    event WineSold(uint upc);\n    event WineShipped(uint upc);\n    event WineReceived(uint upc);\n    event WinePurchased(uint upc);\n\n    // Define a modifer that verifies the Caller\n    modifier verifyCaller (address _address) {\n        require(msg.sender == _address);\n        _;\n    }\n\n    // Define a modifier that checks if the paid amount is sufficient to cover the price\n    modifier paidEnough(uint _price) {\n        require(msg.value >= _price,\n            \"Unsufficient fund\");\n        _;\n    }\n\n    modifier checkGrapeValue(uint _grapeID) {\n        _;\n        uint _price = grapes[_grapeID].grapePrice;\n        uint amountToReturn = msg.value - _price;\n        msg.sender.transfer(amountToReturn);\n    }\n\n    // Define a modifier that checks the price and refunds the remaining balance\n    modifier checkValue(uint _upc) {\n        _;\n        uint _price = items[_upc].productPrice;\n        uint amountToReturn = msg.value - _price;\n        items[_upc].ownerID.transfer(amountToReturn);\n    }\n\n\n    // Define a modifier that check if grape already exists.\n    modifier grapeAlreadyExists(uint _grapeID) {\n        Grape memory _grape = grapes[_grapeID];\n        require(!_grape.exist, \"Grape ID already exists.\");\n        _;\n    }\n\n    // Define a modifier that checks if an grapes.grapeState of a grapeID is Harvested\n    modifier grapeHarvested(uint _grapeId) {\n        require(grapes[_grapeId].grapeState == GrapeState.Harvested,\n            \"Grape is not yet harvested\");\n        _;\n    }\n\n    // Define a modifier that checks if an item.grapeState of a upc is ForSale\n    modifier grapeForSale(uint _grapeId) {\n        require(grapes[_grapeId].grapeState == GrapeState.ForSale,\n            \"Grape is not for sale\");\n        _;\n    }\n\n    // Define a modifier that checks if an item.grapeState of a upc is Sold\n    modifier grapeSold(uint _grapeId) {\n        require(grapes[_grapeId].grapeState == GrapeState.Sold,\n            \"Grape is not sold\");\n        _;\n    }\n\n    // Define a modifier that checks if an item.grapeState of a upc is Shipped\n    modifier grapeShipped(uint _grapeId) {\n        require(grapes[_grapeId].grapeState == GrapeState.Shipped,\n            \"Grape is not shipped\");\n        _;\n    }\n\n    // Define a modifier that checks if an grape.grapeState of a grapeID is Received\n    modifier grapeReceived(uint _grapeId) {\n        require(grapes[_grapeId].grapeState == GrapeState.Received,\n        \"The grapes have not been received yet\");\n        _;\n    }\n\n    // Define a modifier that check if grape already exists in items.\n    modifier wineAlreadyExists(uint _upc) {\n        Wine memory _wine = items[_upc];\n        require(!_wine.exist, \"Wine upc already exists.\");\n        _;\n    }\n\n    // Define a modifier that check if the producer owns the grapes used for making wine\n    modifier wineProducerHasAndOwnsGrapes(uint[] memory _grapesID) {\n        for (uint i=0; i<_grapesID.length; i++) {\n            uint _grapeID = _grapesID[i];\n            require(grapes[_grapeID].ownerID == msg.sender,\n                \"Producer does not own the grapes for making this wine\");\n            require(grapes[_grapeID].grapeState == GrapeState.Received,\n                \"Producer did not yet received all the grapes needed for this wine.\");\n        }\n        _;\n    }\n\n    // Define a modifier that checks if an item.wineState of a upc is Produced\n    modifier wineProduced(uint _upc) {\n        require(items[_upc].wineState == WineState.Produced,\n            \"Wine is not yet produced\");\n        _;\n    }\n\n    // Define a modifier that checks if an item.wineState of a upc is Packed\n    modifier winePacked(uint _upc) {\n        require(items[_upc].wineState == WineState.Packed,\n            \"Wine is not yet packed\");\n        _;\n    }\n\n    // Define a modifier that checks if an item.wineState of a upc is ForSale\n    modifier wineForSale(uint _upc) {\n        require(items[_upc].wineState == WineState.ForSale,\n            \"Wine is not for sale\");\n        _;\n    }\n\n    // Define a modifier that checks if an item.wineState of a upc is Sold\n    modifier wineSold(uint _upc) {\n        require(items[_upc].wineState == WineState.Sold,\n            \"Wine is not sold\");\n        _;\n    }\n\n    // Define a modifier that checks if an item.wineState of a upc is Shipped\n    modifier wineShipped(uint _upc) {\n        require(items[_upc].wineState == WineState.Shipped,\n            \"Wine is not shipped\");\n        _;\n    }\n\n    // Define a modifier that checks if an item.wineState of a upc is Shipped\n    modifier wineReceived(uint _upc) {\n        require(items[_upc].wineState == WineState.Received,\n            \"Wine is not received\");\n        _;\n    }\n\n    // Define a modifier that checks if an item.wineState of a upc is Purchased\n    modifier winePurchased(uint _upc) {\n        require(items[_upc].wineState == WineState.Purchased,\n            \"Wine is not purchased\");\n        _;\n    }\n\n    // In the constructor set 'owner' to the address that instantiated the contract\n    // and set 'sku' to 1\n    // and set 'upc' to 1\n    // grapeID to 1\n    // the identifier are simplified here\n    // as we should also use the client company prefix for generating UPC\n    constructor() public payable {\n        owner = msg.sender;\n        sku = 1;\n        upc = 1; // for simpicity we'll use this\n        // GS1 guidelines said that UPC\n        // applies to branded products only\n        // so we use a simple ID\n        grapeID = 1;\n    }\n\n    // Define a function 'kill' if required\n    function kill() public {\n        if (msg.sender == owner) {\n            selfdestruct(owner);\n        }\n    }\n\n    /////////////////////////\n    /// GRAPES OPERATIONS ///\n    /////////////////////////\n\n    // Define a function 'harvestGrape' that allows a grower to mark grapes 'Harvested'\n    function harvestGrapes(\n        string memory _growerName,\n        string memory _growerInformation,\n        string memory _growerLatitude,\n        string memory _growerLongitude,\n        string memory _grapeVariery)\n    public\n    onlyGrower\n    grapeAlreadyExists(grapeID)\n    {\n        // Add the new grapes\n        uint _grapeID = grapeID;\n        grapes[_grapeID] = Grape(\n            grapeID,\n            msg.sender,\n            msg.sender,\n            _growerName,\n            _growerInformation,\n            _growerLatitude,\n            _growerLongitude,\n            0,\n            GrapeState.Harvested,\n            _grapeVariery,\n            true\n        );\n        // Increment grapeID\n        grapeID = grapeID + 1;\n        // Emit the appropriate event\n        emit GrapeHarvested(_grapeID);\n    }\n\n    // Let a grower that owns havested grapes to put them for sale\n    function addGrapesForSale(uint _grapeID, uint _grapePrice)\n    public\n    onlyGrower\n    verifyCaller(grapes[_grapeID].ownerID)\n    {\n        Grape storage grape = grapes[_grapeID];\n        grape.grapeState = GrapeState.ForSale;\n        grape.grapePrice = _grapePrice;\n        emit GrapeForSale(_grapeID);\n    }\n\n    function buyGrapes(uint _grapeID)\n    public\n    payable\n    onlyProducer\n    grapeForSale(_grapeID)\n    paidEnough(grapes[_grapeID].grapePrice)\n    checkGrapeValue(_grapeID)\n    {\n        Grape storage grape = grapes[_grapeID];\n        grape.grapeState = GrapeState.Sold;\n        uint _grapePrice = grape.grapePrice;\n        grape.ownerID = msg.sender;\n        grape.growerID.transfer(_grapePrice);\n        emit GrapeSold(_grapeID);\n    }\n\n    function shipGrapes(uint _grapeID)\n    public\n    onlyGrower\n    grapeSold(_grapeID)\n    verifyCaller(grapes[_grapeID].growerID)\n    {\n        Grape storage grape = grapes[_grapeID];\n        grape.grapeState = GrapeState.Shipped;\n        emit GrapeShipped(_grapeID);\n    }\n\n    function receiveGrapes(uint _grapeID)\n    public\n    onlyProducer\n    grapeShipped(_grapeID)\n    verifyCaller(grapes[_grapeID].ownerID)\n    {\n        Grape storage grape = grapes[_grapeID];\n        grape.grapeState = GrapeState.Received;\n        emit GrapeReceived(_grapeID);\n    }\n\n    function fetchGrape(uint _grapeID) public view returns (\n        uint grapeGrapeID,\n        address payable ownerID,\n        address payable growerID,\n        string memory growerName,\n        string memory growerInformation,\n        string memory growerLatitude,\n        string memory growerLongitude,\n        uint grapePrice,\n        GrapeState grapeState,\n        string memory grapeVariety\n    ) {\n        Grape memory grape = grapes[_grapeID];\n        grapeGrapeID = grape.grapeId;\n        ownerID = grape.ownerID;\n        growerID = grape.growerID;\n        growerName = grape.growerName;\n        growerInformation = grape.growerInformation;\n        growerLatitude = grape.growerLatitude;\n        growerLongitude = grape.growerLongitude;\n        grapePrice = grape.grapePrice;\n        grapeState = grape.grapeState;\n        grapeVariety = grape.grapeVariety;\n    }\n\n    ///////////////////////\n    /// WINE OPERATIONS ///\n    //////////////////////\n    function produceWine(\n        string memory _producerName,\n        string memory _producerInformation,\n        string memory _producerLatitude,\n        string memory _producerLongitude,\n        string memory _productNotes,\n        uint[] memory _grapesIDs,\n        WineState _wineState\n    )\n    public\n    onlyProducer\n    wineProducerHasAndOwnsGrapes(_grapesIDs)\n    wineAlreadyExists(upc)\n    {\n        uint _productID = sku + upc;\n        uint _upc = upc;\n        items[_upc] = Wine(\n            sku,\n            upc,\n            msg.sender,\n            msg.sender,\n            _producerName,\n            _producerInformation,\n            _producerLatitude,\n            _producerLongitude,\n            _productID,\n            _productNotes,\n            0,\n            _grapesIDs,\n            _wineState,\n            address(0),\n            address(0),\n            address(0),\n            true\n        );\n        upc = upc + 1;\n        sku = sku + 1;\n        emit WineProduced(_upc);\n    }\n\n    function packWine(uint _upc)\n    public\n    onlyProducer\n    wineProduced(_upc)\n    verifyCaller(items[_upc].ownerID)\n    {\n        Wine storage wine = items[_upc];\n        require(msg.sender == wine.producerID);\n        wine.wineState = WineState.Packed;\n        emit WinePacked(wine.upc);\n    }\n\n    function addWineForSale(uint _upc)\n    public\n    onlyProducer\n    winePacked(_upc)\n    verifyCaller(items[_upc].ownerID)\n    {\n        Wine storage wine = items[_upc];\n        require(msg.sender == wine.producerID);\n        wine.wineState = WineState.ForSale;\n        emit WineForSale(wine.upc);\n    }\n\n    function buyWine(uint _upc)\n    public\n    onlyRetailer\n    wineForSale(_upc)\n    {\n        Wine storage wine = items[_upc];\n        wine.retailerID = msg.sender;\n        wine.wineState = WineState.Sold;\n        wine.ownerID = msg.sender;\n        emit WineSold(_upc);\n    }\n\n    function shipWine(uint _upc)\n    public\n    onlyProducer\n    wineSold(_upc)\n    verifyCaller(items[_upc].producerID)\n    {\n        Wine storage wine = items[_upc];\n        wine.wineState = WineState.Shipped;\n        emit WineShipped(_upc);\n    }\n\n    function receiveWine(uint _upc)\n    public\n    onlyRetailer\n    wineShipped(_upc)\n    verifyCaller(items[_upc].ownerID)\n    {\n        Wine storage wine = items[_upc];\n        wine.wineState = WineState.Received;\n        emit WineReceived(_upc);\n    }\n\n    function purchaseWine(uint _upc)\n    public\n    payable\n    onlyConsumer\n    wineReceived(_upc)\n    paidEnough(items[_upc].productPrice)\n    checkValue(_upc)\n    {\n        Wine storage wine = items[_upc];\n        wine.wineState = WineState.Purchased;\n        address payable recipient = wine.ownerID;\n        uint _price = wine.productPrice;\n        wine.ownerID = msg.sender;\n        recipient.transfer(_price);\n        emit WinePurchased(_upc);\n    }\n\n    // fetchWine - 3 functions - stack too deep compilation error\n    function fetchWineOne(uint _upc) public view returns (\n        uint wineSku,\n        uint wineUpc,\n        address payable ownerID,\n        address payable producerID,\n        uint productPrice,\n        WineState wineState,\n        address wholesalerID,\n        address retailerID,\n        address consumerID\n    ) {\n        Wine memory wine = items[_upc];\n        wineSku = wine.sku;\n        wineUpc = wine.upc;\n        ownerID = wine.ownerID;\n        producerID = wine.producerID;\n        productPrice = wine.productPrice;\n        wineState = wine.wineState;\n        wholesalerID = wine.wholesalerID;\n        retailerID = wine.retailerID;\n        consumerID = wine.consumerID;\n    }\n\n    // fetchWineTwo\n    function fetchWineTwo(uint _upc) public view returns (\n        uint wineSku,\n        uint wineUpc,\n        string memory producerName,\n        string memory producerInformation,\n        string memory producerLatitude,\n        string memory producerLongitude,\n        uint productID,\n        string memory productNotes,\n        uint productPrice\n    ) {\n        Wine memory wine = items[_upc];\n        wineSku = wine.sku;\n        wineUpc = wine.upc;\n        producerName = wine.producerName;\n        producerInformation = wine.producerInformation;\n        producerLatitude = wine.producerLatitude;\n        producerLongitude = wine.producerLongitude;\n        productID = wine.productID;\n        productNotes = wine.productNotes;\n        productPrice = wine.productPrice;\n    }\n\n    function fetchWineGrapes(uint _upc) public view returns (uint[] memory grapesIDs) {\n        Wine memory wine = items[_upc];\n        grapesIDs = wine.grapesIDs;\n    }\n}\n",
  "sourcePath": "/home/david2099/Documents/nodesall/supplyChainDApp/contracts/winebase/SupplyChain.sol",
  "compiler": {
    "name": "solc",
    "version": "0.5.0+commit.1d4f565a.Emscripten.clang"
  },
  "schemaVersion": "3.0.2",
  "updatedAt": "2019-02-23T18:59:03.281Z",
  "devdoc": {
    "methods": {}
  },
  "userdoc": {
    "methods": {
      "harvestGrapes(string,string,string,string,string)": {
        "notice": "////////////////////// GRAPES OPERATIONS /// //////////////////////"
      },
      "produceWine(string,string,string,string,string,uint256[],uint8)": {
        "notice": "//////////////////// WINE OPERATIONS /// ///////////////////"
      }
    }
  }
}