{
  "contractName": "WholeSalerRole",
  "abi": [
    {
      "inputs": [],
      "payable": false,
      "stateMutability": "nonpayable",
      "type": "constructor"
    },
    {
      "anonymous": false,
      "inputs": [
        {
          "indexed": true,
          "name": "account",
          "type": "address"
        }
      ],
      "name": "WholesalerAdded",
      "type": "event"
    },
    {
      "anonymous": false,
      "inputs": [
        {
          "indexed": true,
          "name": "account",
          "type": "address"
        }
      ],
      "name": "WholesalerRemoved",
      "type": "event"
    },
    {
      "constant": true,
      "inputs": [
        {
          "name": "account",
          "type": "address"
        }
      ],
      "name": "isWholesaler",
      "outputs": [
        {
          "name": "",
          "type": "bool"
        }
      ],
      "payable": false,
      "stateMutability": "view",
      "type": "function"
    },
    {
      "constant": false,
      "inputs": [
        {
          "name": "account",
          "type": "address"
        }
      ],
      "name": "addWholesaler",
      "outputs": [],
      "payable": false,
      "stateMutability": "nonpayable",
      "type": "function"
    },
    {
      "constant": false,
      "inputs": [],
      "name": "renounceWholesaler",
      "outputs": [],
      "payable": false,
      "stateMutability": "nonpayable",
      "type": "function"
    }
  ],
  "bytecode": "0x608060405234801561001057600080fd5b5061002333640100000000610028810204565b610105565b6100406000826401000000006101f661007782021704565b604051600160a060020a038216907fd8a7ad7929975a375d2b12bf49040286b5b105df0fe351f10df6d85e5b7142f790600090a250565b600160a060020a038116151561008c57600080fd5b61009f82826401000000006100ce810204565b156100a957600080fd5b600160a060020a0316600090815260209190915260409020805460ff19166001179055565b6000600160a060020a03821615156100e557600080fd5b50600160a060020a03166000908152602091909152604090205460ff1690565b6102bc806101146000396000f3fe6080604052600436106100565763ffffffff7c010000000000000000000000000000000000000000000000000000000060003504166364d1ba1f811461005b578063de63bdb9146100a2578063fe19d152146100d7575b600080fd5b34801561006757600080fd5b5061008e6004803603602081101561007e57600080fd5b5035600160a060020a03166100ec565b604080519115158252519081900360200190f35b3480156100ae57600080fd5b506100d5600480360360208110156100c557600080fd5b5035600160a060020a0316610104565b005b3480156100e357600080fd5b506100d5610124565b60006100fe818363ffffffff61012f16565b92915050565b61010d336100ec565b151561011857600080fd5b61012181610166565b50565b61012d336101ae565b565b6000600160a060020a038216151561014657600080fd5b50600160a060020a03166000908152602091909152604090205460ff1690565b61017760008263ffffffff6101f616565b604051600160a060020a038216907fd8a7ad7929975a375d2b12bf49040286b5b105df0fe351f10df6d85e5b7142f790600090a250565b6101bf60008263ffffffff61024416565b604051600160a060020a038216907f7f865f710a7604537eb2bc0334f082fa642d210a705398937f53663384485b2890600090a250565b600160a060020a038116151561020b57600080fd5b610215828261012f565b1561021f57600080fd5b600160a060020a0316600090815260209190915260409020805460ff19166001179055565b600160a060020a038116151561025957600080fd5b610263828261012f565b151561026e57600080fd5b600160a060020a0316600090815260209190915260409020805460ff1916905556fea165627a7a72305820e8cec0acccc8c44105854cf57fa6877e713ca76df90c5fa3663db73f77a4978e0029",
  "source": "pragma solidity = 0.5.0;\n\n// Import the library 'Roles'\nimport \"./Roles.sol\";\n\n// Define a contract 'WholeSalerRole' to manage this role - add, remove, check\ncontract WholeSalerRole {\n\n    using Roles for Roles.Role;\n\n    // Define 2 events, one for Adding, and other for Removing\n    event WholesalerAdded(address indexed account);\n    event WholesalerRemoved(address indexed account);\n\n    // Define a struct 'Wholesalers' by inheriting from 'Roles' library, struct Role\n    Roles.Role private Wholesalers;\n\n    // In the constructor make the address that deploys this contract the 1st Wholesaler\n    constructor() public {\n        _addWholesaler(msg.sender);\n    }\n\n    // Define a modifier that checks to see if msg.sender has the appropriate role\n    modifier onlyWholesaler() {\n        require(isWholesaler(msg.sender));\n        _;\n    }\n\n    // Define a function 'isWholesaler' to check this role\n    function isWholesaler(address account) public view returns (bool) {\n        return Wholesalers.has(account);\n    }\n\n    // Define a function 'addWholesaler' that adds this role\n    function addWholesaler(address account) public onlyWholesaler {\n        _addWholesaler(account);\n    }\n\n    // Define a function 'renounceWholesaler' to renounce this role\n    function renounceWholesaler() public {\n        _removeWholesaler(msg.sender);\n    }\n\n    // Define an internal function '_addWholesaler' to add this role, called by 'addWholesaler'\n    function _addWholesaler(address account) internal {\n        Wholesalers.add(account);\n        emit WholesalerAdded(account);\n    }\n\n    // Define an internal function '_removeWholesaler' to remove this role, called by 'removeWholesaler'\n    function _removeWholesaler(address account) internal {\n        Wholesalers.remove(account);\n        emit WholesalerRemoved(account);\n    }\n}",
  "sourcePath": "/home/david2099/Documents/nodesall/supplyChainDApp/contracts/wineaccesscontrol/WholesalerRole.sol",
  "compiler": {
    "name": "solc",
    "version": "0.5.0+commit.1d4f565a.Emscripten.clang"
  },
  "schemaVersion": "3.0.2",
  "updatedAt": "2019-02-26T23:50:25.246Z",
  "devdoc": {
    "methods": {}
  },
  "userdoc": {
    "methods": {}
  }
}